:100000000C9419030C94CE140C94A7140C94410373
:100010000C9441030C9441030C94D4150C942015BA
:100020000C9441030C9441030C9441030C94410340
:100030000C9441030C9405100C9441030C9441035F
:100040000C94F21F0C9441030C94A2150C947C1593
:100050000C9441030C9441030C9441030C94410310
:100060000C94F30D0C9441030200000000003E5B71
:100070004F5B3E3E6B4F6B3E1C3E7C3E1C183C7EF5
:100080003C181C577D571C1C5E7F5E1C00183C18DA
:1000900000FFE7C3E7FF0018241800FFE7DBE7FFD6
:1000A00030483A060E2629792926407F0505074063
:1000B0007F05253F5A3CE73C5A7F3E1C1C08081C24
:1000C0001C3E7F14227F22145F5F005F5F06097F62
:1000D000017F006689956A606060606094A2FFA2FB
:1000E0009408047E040810207E201008082A1C08AA
:1000F000081C2A08081E101010100C1E0C1E0C30B4
:10010000383E3830060E3E0E0600000000000000AB
:100110005F00000007000700147F147F14242A7F6B
:100120002A12231308646236495620500008070338
:1001300000001C2241000041221C002A1C7F1C2AB6
:1001400008083E0808008070300008080808080009
:100150000060600020100804023E5149453E004204
:100160007F400072494949462141494D33181412D4
:100170007F1027454545393C4A49493141211109FC
:10018000073649494936464949291E0000140000EE
:100190000040340000000814224114141414140008
:1001A0004122140802015909063E415D594E7C1254
:1001B00011127C7F494949363E414141227F4141EC
:1001C000413E7F494949417F090909013E41415169
:1001D000737F0808087F00417F41002040413F01B4
:1001E0007F081422417F404040407F021C027F7FF5
:1001F0000408107F3E4141413E7F090909063E4106
:1002000051215E7F09192946264949493203017F58
:1002100001033F4040403F1F2040201F3F403840E7
:100220003F631408146303047804036159494D4380
:10023000007F4141410204081020004141417F04F8
:1002400002010204404040404000030708002054DF
:100250005478407F2844443838444444283844443F
:10026000287F385454541800087E090218A4A49C0E
:10027000787F0804047800447D40002040403D0021
:100280007F1028440000417F40007C047804787C83
:10029000080404783844444438FC182424181824EA
:1002A0002418FC7C08040408485454542404043FD3
:1002B00044243C4040207C1C2040201C3C403040DA
:1002C0003C44281028444C9090907C4464544C4406
:1002D00000083641000000770000004136080002A7
:1002E000010204023C2623263C1EA1A161123A40D1
:1002F00040207A3854545559215555794122545447
:100300007842215554784020545579400C1E527241
:10031000123955555559395454545939555454581E
:100320000000457C410002457D420001457C407D46
:100330001211127DF0282528F07C545545002054D8
:10034000547C547C0A097F4932494949323A444431
:10035000443A324A4848303A4141217A3A424020B0
:1003600078009DA0A07D3D4242423D3D4040403D41
:100370003C24FF2424487E4943662B2FFC2F2BFF6F
:100380000929F620C0887E090320545479410000D1
:10039000447D413048484A32384040227A007A0A47
:1003A0000A727D0D19317D2629292F282629292910
:1003B0002630484D40203808080808080808083842
:1003C0002F10C8ACBA2F102834FA00007B000008A8
:1003D000142A142222142A14085500550055AA552F
:1003E000AA55AAFF55FF55FF000000FF001010108E
:1003F000FF00141414FF001010FF00FF1010F01085
:10040000F0141414FC001414F700FF0000FF00FFA8
:100410001414F404FC141417101F10101F101F14D0
:1004200014141F00101010F0000000001F10101016
:10043000101F10101010F010000000FF101010100E
:100440001010101010FF10000000FF140000FF003B
:10045000FF00001F10170000FC04F41414171017FD
:100460001414F404F40000FF00F71414141414140A
:1004700014F700F7141414171410101F101F14147D
:1004800014F4141010F010F000001F101F000000F2
:100490001F14000000FC140000F010F01010FF10FA
:1004A000FF141414FF141010101F00000000F010AF
:1004B000FFFFFFFFFFF0F0F0F0F0FFFFFF00000094
:1004C0000000FFFF0F0F0F0F0F3844443844FC4A61
:1004D0004A4A347E02020606027E027E02635549C3
:1004E00041633844443C04407E201E2006027E02C4
:1004F0000299A5E7A5991C2A492A1C4C7201724C45
:10050000304A4D4D303048784830BC625A463D3E06
:10051000494949007E0101017E2A2A2A2A2A4444A7
:100520005F444440514A444040444A51400000FF27
:100530000103E080FF000008086B6B0836123624C8
:1005400036060F090F0600001818000000101000F2
:100550003040FF0101001F01011E00191D1712008C
:100560003C3C3C3C00000000000000000024002750
:10057000002A0000000000250028002B00000000D9
:1005800000230026002900040404040404040402D7
:100590000202020202030303030303010204081020
:1005A00020408001020408102001020408102000ED
:1005B0000000080002010000030407000000000022
:1005C000000000000622766D247F20390F5C501059
:1005D0004008063F065B4F666D7D077F6F303058E1
:1005E000484C535F777F395E79713D76060E7538DA
:1005F00015373F7367336D783E1C2A766E5B393052
:100600000F1308105F7C585E7B716F74040C75309B
:1006100015545C7367506D781C1C2A76665B7906EE
:100620004F40001F1C1F1E1F1E1F1F1E1F1E1F00CE
:10063000BA2911241FBECFEFD8E0DEBFCDBF15E031
:10064000A0E0B1E0ECEEF5E602C005900D92A63117
:10065000B107D9F727E0A6E1B5E001C01D92AB3B99
:10066000B207E1F713E0C9E1D3E004C02197FE012E
:100670000E94302EC831D107C9F70E943C200C944B
:10068000F4320C940000089580E090E008958F9279
:100690009F92AF92BF92CF92DF92EF92FF920F9311
:1006A0001F93CF93DF93CDB7DEB7AC970FB6F89417
:1006B000DEBF0FBECDBFDC011696ED91FC91179702
:1006C000319609F482C089017A016B014C01FE0167
:1006D00031965F0188E2DF011D928A95E9F7D40126
:1006E000ED91FC910484F585E02DB501C4010995D7
:1006F000009709F06CC01CA61BA61AA619A6D40167
:10070000ED91FC910684F785E02D9E01275D3F4F1A
:10071000AE01455D5F4FB501C4010995009709F031
:1007200056C00115110539F088E2F501D801019094
:100730000D928A95E1F70BA51CA5C114D10409F10E
:1007400017FD03C081E090E002C08FEF9FEF98019A
:100750003F77289FB001299F700D389F700D11249D
:10076000072E000C880B990B0E942C2C20E030E007
:1007700040E85BE30E94672CF6016083718382830B
:100780009383E114F104A1F069A57AA5072E000C6A
:10079000880B990B0E942C2C20E030E040E85BE3B2
:1007A0000E94672CD7016D937D938D939C93139733
:1007B000C801009739F429A53AA5232B41F486E115
:1007C00090E005C080E090E002C087E190E0AC9648
:1007D0000FB6F894DEBF0FBECDBFDF91CF911F9152
:1007E0000F91FF90EF90DF90CF90BF90AF909F90D0
:1007F0008F9008958F929F92AF92BF92CF92DF9287
:10080000EF92FF920F931F93CF93DF93EC018B0135
:100810005A017901E881F9810284F385E02D099577
:10082000C82EB801685F7F4FE881F9810284F385A3
:10083000E02DCE010995D82EB801605F7F4FE88189
:10084000F9810284F385E02DCE010995882EB80147
:10085000685E7F4FE881F9810284F385E02DCE0147
:100860000995982EB801605E7F4FE881F981028476
:10087000F385E02DCE0109959C2D9D0D980D990DC8
:1008800089130FC0892D90E09829F5019183808309
:100890008D2D90E09C29F7019183808380E090E08A
:1008A00002C085E190E0DF91CF911F910F91FF9001
:1008B000EF90DF90CF90BF90AF909F908F90089572
:1008C00047E050E080E0FB012191BF01042E01C010
:1008D000220F0A94EAF7820F41505109A0F70895B8
:1008E000CF92DF92EF92FF920F931F93CF93DF93FC
:1008F000CDB7DEB728970FB6F894DEBF0FBECDBFD9
:10090000DC011696ED91FC911797319691F18A01D1
:100910007B011D821E821F82188619821A821B8209
:100920001C82DC01ED91FC910480F581E02DAE018B
:100930004F5F5F4FBE016B5F7F4F09956C01892B45
:10094000B1F4E114F10441F06D817E818F819885CD
:100950000E94BF2DF70160830115110541F06981E7
:100960007A818B819C810E94BF2DD8016C93C60136
:1009700002C087E190E028960FB6F894DEBF0FBE64
:10098000CDBFDF91CF911F910F91FF90EF90DF903E
:10099000CF900895FF920F931F93CF93DF93CDB71E
:1009A000DEB7C058D1090FB6F894DEBF0FBECDBF79
:1009B0004138510510F040E850E09E012F5F3F4F55
:1009C000DB018B01040F151FB901A017B10779F0E6
:1009D000ED91E0323CF00E2E000CFF0BED55FA4F7E
:1009E000F49001C0F12CF901F1929F01EECFFC01CE
:1009F00021850E947410C058DF4F0FB6F894DEBFF7
:100A00000FBECDBFDF91CF911F910F91FF90089541
:100A10001F93CF93DF93EC01162F89859E81891355
:100A200028C090E0BE01635F7F4F20E0E22FF0E03E
:100A3000E817F90730F4E60FF71F318130832F5F95
:100A4000F5CF898590E0103244F0E12F012E000CA3
:100A5000FF0BED55FA4FE49101C0E0E0DE01A80F75
:100A6000B91F1D96EC934E8150E020E0CE010E940C
:100A7000741049858E814817F8F450E010323CF02C
:100A8000E12F110FFF0BED55FA4FE49101C0E0E0AB
:100A9000DE01A40FB51F1D96EC934F5F5F4F20E062
:100AA000BE01635F7F4FCE010E94741089858F5F06
:100AB000843008F083E08987DF91CF911F910895FA
:100AC000EF92FF920F931F93CF93DF93EC018B0173
:100AD00088E2FB0111928A95E9F761E08E810E941C
:100AE000B61D60E08E810E942B1C64E170E080E006
:100AF00090E00E942E1E61E08E810E942B1C60E01F
:100B00008E810E94B61D8FE590E00197F1F7E88194
:100B1000F9810084F185E02D26E030E04AE050E0E4
:100B200060E0CE0109956E3171058105910534F4BF
:100B3000B82FA72F962F882780616FC0E881F98191
:100B40000084F185E02D26E030E04AE050E061E0ED
:100B5000CE010995623371058105910534F4B82FF2
:100B6000A72F962F8827816158C07801F8E2EF0EF1
:100B7000F11CE881F9810084F185E02D26E030E068
:100B80004AE050E060E0CE010995683171058105C9
:100B9000910534F4B82FA72F962F882782613DC086
:100BA000E881F9810084F185E02D26E030E04AE01B
:100BB00050E061E0CE0109956B307105810591052A
:100BC00034F4B82FA72F962F8827836126C021E001
:100BD00069327105810591050CF420E0F80121933B
:100BE0008F01EE15FF0529F6E881F9810084F18572
:100BF000E02D26E030E04AE050E060E0CE010995CB
:100C0000683171058105910534F4B82FA72F962F0F
:100C10008827846102C080E090E0DF91CF911F912E
:100C20000F91FF90EF9008953F924F925F926F92D5
:100C30007F928F929F92AF92BF92CF92DF92EF926C
:100C4000FF920F931F93CF93DF93EC01162F7A013E
:100C500069010E94091E4B015C01112311F03884C7
:100C600001C0312C2701440C551C440C551C85E057
:100C7000481A51083601660C771C660C771C85E013
:100C8000681A710800E010E060E070E0CB012A8192
:100C90003B814C815D8126173707480759072CF4A3
:100CA0004FEF3FEF2FEF9FEF2BC00115110531F4F0
:100CB00082E0E816F1044CF0C20105C082E0C816DB
:100CC000D1041CF0C3010197F1F70E94091E6819B5
:100CD00079098A099B09E985F0E0EE0FFF1FE358C7
:100CE000FA4FA591B4913C910F5F1F4F28852323A4
:100CF000321203C097FFCBCFD3CF462F372F282FE9
:100D0000642F732F822FDF91CF911F910F91FF904E
:100D1000EF90DF90CF90BF90AF909F908F907F909B
:100D20006F905F904F903F90089580911001909147
:100D300011018430910509F45FC064F4813091059C
:100D4000C9F0029709F05EC041E0609143058091CF
:100D5000420524C08031910599F1811521E0920767
:100D600049F0089709F04EC041E060915505809127
:100D7000540514C08091970541E0882329F06091C3
:100D800055058091540543C080919605811101C09D
:100D900040E0609141078091400739C00E94A71E42
:100DA000809196058823A9F180915705811131C062
:100DB00040E060E885EA97E00E94861E41E016C0A8
:100DC00041E060915505809154050E94A71E8091D5
:100DD00096058823F1F08091570581111AC042E0F1
:100DE00060E885EA97E00E94861E43E060E885EAB5
:100DF00097E00E94861E0DC041E0609143058091FE
:100E00004205E3CF41E060914305809142050E9495
:100E1000A71E809196058F5F817080939605089537
:100E200082E00E94021C892B21F481E08093560508
:100E30000895109256050895DC0117967C936E93E1
:100E40001697FB01E556FA4FE4911896EC93189724
:100E5000FB01E957FA4F649119966C930895CF926C
:100E6000DF92EF92FF920F931F93CF93DF93EC01EA
:100E70007A0169010E941C07E881F9810480F581EB
:100E8000E02D9801A601B701CE01DF91CF911F910E
:100E90000F91FF90EF90DF90CF900994CF92DF9267
:100EA000EF92FF920F931F93CF93DF93EC017A01A0
:100EB00069010E941C07E881F9810190F081E02D11
:100EC0009801A601B701CE01DF91CF911F910F913B
:100ED000FF90EF90DF90CF900994EF92FF920F93E5
:100EE0001F93CF93DF9300D0CDB7DEB78091100171
:100EF0009091110181159140E9F120E030E0AE01BF
:100F00004F5F5F4FBE016E5F7F4F83E497E00E94AB
:100F100070048CE0E82EF12CF0922507E092240773
:100F200008E110E010932707009326078BEC94E06C
:100F30000E94751FF0922507E0922407109327075F
:100F4000009326076A8170E080E090E04AE00E940A
:100F5000771F8AEE94E00E94751F698170E080E03F
:100F600090E04AE00E94771F8EEE94E00E94751F89
:100F70000E94751C0F900F90DF91CF911F910F91E0
:100F8000FF90EF900895EF92FF920F931F93CF93EE
:100F9000DF9300D000D0CDB7DEB7809110019091E3
:100FA00011018115914009F48AC00CE010E0109302
:100FB00025070093240710922707109226078BEC31
:100FC00094E00E94751F1093250700932407109248
:100FD00027071092260780911001909111018E0130
:100FE0000F5F1F4F8130910549F08830910531F036
:100FF0008031910519F08115914041F560913D07CF
:1010000070E06053784F072E000C880B990B4AE074
:101010000E94771F82EF94E00E94751F80913E0727
:101020001F928F9394EFE92E94E0F92EFF92EF92A6
:101030001F930F930E944130C8010E94751F82EFD9
:1010400094E00E94751F80913F0727C060910401C2
:1010500070E06053784F072E000C880B990B4AE024
:101060000E94771F82EF94E00E94751F8091050116
:101070001F928F9384EFE82E84E0F82EFF92EF9278
:101080001F930F930E944130C8010E94751F82EF89
:1010900094E00E94751F809106011F928F93FF922A
:1010A000EF921F930F930E944130C8010E94751F59
:1010B0000FB6F894DEBF0FBECDBF0E94751C0F9017
:1010C0000F900F900F90DF91CF911F910F91FF9094
:1010D000EF900895AB0121E030E0BC0188E197E09A
:1010E0000C9449118F929F92AF92BF92CF92DF9250
:1010F000EF92FF920F931F93CF93DF934C01C5E3C1
:10110000D0E0C12CD12CC814D904ECF4EE24EA941C
:101110008FE0F82E03E010E023E030E049E250E0F9
:10112000BE0188E197E00E94CB1123E030E049E264
:1011300050E0BE0188E197E00E94B4128FEFC81A18
:10114000D80A2C96E0CF8CE0889D5001899DB00C88
:10115000112460E070E06B018CE0C80ED11C83E0CC
:101160008816910404F56B5C7F4FEB01CA0DDB1D03
:10117000E12CF12C03E010E023E030E049E250E004
:10118000BE0188E197E00E94CB1123E030E049E204
:1011900050E0BE0188E197E00E94B4128FEF881AF8
:1011A000980AB601D8CFDF91CF911F910F91FF9090
:1011B000EF90DF90CF90BF90AF909F908F900C9466
:1011C000751C80914F05E82FF0E0E55BFA4F6081D8
:1011D00070E02FE0829FC001112441E050E00C96A6
:1011E0000C94281DCF93462F813009F4ABC0209179
:1011F0001001309111012031310589F1ACF4223018
:10120000310509F48BC024F42130310509F131C0D6
:101210002430310509F487C02830310551F5C0E08C
:1012200098E1E4E5F5E083C020343105E9F044F4C9
:1012300020323105F1F4C0E094E6E4E0F1E077C05B
:101240002038310509F476C0211581E0380789F48A
:10125000809197058F5F81708093970573C0C0E080
:101260009CE3E5E5F5E063C0C1E09CE0E5E0F1E08A
:101270005EC0C0E04F3F21F48081811101C09083A6
:101280002038310549F580910501863051F028F468
:10129000823049F0843001F504C0893011F08B3080
:1012A000D9F49EE119C020910401822F837099F432
:1012B00030E02053384FC90164E670E00E94012EEF
:1012C000892B39F4C90160E971E00E94012E892B54
:1012D00011F49DE101C09CE1242F8081022E000CBD
:1012E000330B280F311D2C1B3109692F70E0C90108
:1012F0000E94012EC80FC08381E0809357050E9491
:10130000681E609358057093590580935A05909311
:101310005B050E949506CF910C94C307C0E098E14D
:10132000E2E4F5E004C0C0E09CE3E3E4F5E04F3F15
:1013300099F6A2CFC1E09FE1E6E0F1E06F3F09F04E
:10134000A2CF9ACFCF910895109212018091A30756
:101350009091A4071816190634F441E06CE080E07F
:1013600090E00C940E1F0895CF93DF9300D000D02F
:1013700000D0CDB7DEB7E0914F05F0E0E55BFA4F66
:101380008081811112C069EF74E0CE0101960E9444
:10139000591448E250E062E070E0CE0101960E94EC
:1013A000AF1C89819A810E94CE2EE0914F05F0E01A
:1013B000E55BFA4F8081813091F460E075E0CE0109
:1013C00001960E94591448E250E062E070E0CE01BC
:1013D00001960E94AF1C89819A810E94CE2EE091D5
:1013E0004F05F0E0E55BFA4F8081823091F467E0D1
:1013F00075E0CE0101960E94591448E250E062E087
:1014000070E0CE0101960E94AF1C89819A810E94F2
:10141000CE2EE0914F05F0E0E55BFA4F80818330FE
:1014200091F46EE075E0CE0101960E94591448E2F5
:1014300050E062E070E0CE0101960E94AF1C89810D
:101440009A810E94CE2E26960FB6F894DEBF0FBE6C
:10145000CDBFDF91CF9108950E94681E6093500523
:1014600070935105809352059093530583E08093C8
:101470000E0183E090E00E9472080E94E1088091D2
:101480004F058F5F80934F05843010F40E94B4099C
:1014900010920F01089585ED8093BC008091BC00EF
:1014A00084FDFCCF10924A0608954091D805262F5E
:1014B00030E0240F311D21323105DCF420914A0641
:1014C0002430C9F4FC0180E090E0861758F4309194
:1014D000D8052191DC01A854BA4FA30FB11D2C935C
:1014E0000196F3CF8091D805680F6093D80580E00E
:1014F000089581E0089582E0089508950895E091A7
:101500001B0580911A05E81730F4F0E0E856FA4F11
:10151000808190E008958FEF9FEF089590911B05D3
:1015200080911A05981750F4E92FF0E0E856FA4F29
:10153000208130E09F5F90931B0502C02FEF3FEFAB
:10154000C901089580911A0590E020911B05821B26
:1015500091090895CF92DF92EF92FF920F931F931C
:10156000CF93DF937C01CB018A0120914B0622238C
:1015700089F0EB016B01C40ED51ECC15DD0569F0B9
:101580006991D701ED91FC910190F081E02DC701A7
:101590000995F3CF642F0E94550AC801DF91CF91BE
:1015A0001F910F91FF90EF90DF90CF900895CF9310
:1015B000DF931F92CDB7DEB7698320914B062223BC
:1015C000D1F020916E06203240F021E030E0FC01A5
:1015D0003383228380E090E015C080914C06E82F91
:1015E000F0E0E35BF94F998190838F5F80934C0625
:1015F00080936E0605C061E0CE0101960E94550AF7
:1016000081E090E00F90DF91CF910895883048F00D
:1016100098EF980F963050F4E5E2F0E0A5E2B0E0E4
:1016200009C0EBE2F0E0ABE2B0E004C0E8E2F0E0D9
:10163000A8E2B0E09C918E3018F042EF480F02C053
:10164000482F477021E030E001C0220F4A95EAF7A9
:10165000209529232083683048F098EF960F963024
:1016600050F4E4E2F0E0A4E2B0E009C0EAE2F0E025
:10167000AAE2B0E004C0E7E2F0E0A7E2B0E09C91AB
:101680006E3018F042EF460F02C0462F477021E03F
:1016900030E001C0220F4A95EAF7209529232083E4
:1016A000683048F098EF960F963050F0E8E2F0E09E
:1016B000A8E2B0E009C0EBE2F0E0ABE2B0E004C0C9
:1016C000E5E2F0E0A5E2B0E02C9191E06E3018F098
:1016D00032EF360F02C0362F377001C0990F3A959E
:1016E000EAF7922B9083EFE0F0E03197F1F7683062
:1016F00038F098EF960F963030F0E6E2F0E005C053
:10170000E9E2F0E002C0E3E2F0E02081422F50E0A5
:101710006E3058F092EF960F21E030E002C0220FB9
:10172000331F9A95E2F7332709C0962F977021E06F
:1017300030E002C0220F331F9A95E2F724233523AD
:1017400041E0232B09F040E0883048F098EF980FF3
:10175000963050F0E8E2F0E0A8E2B0E009C0EBE239
:10176000F0E0ABE2B0E004C0E5E2F0E0A5E2B0E01A
:101770002C9191E08E3018F032EF380F02C0382FE4
:10178000377001C0990F3A95EAF7922B9083EFE0FA
:10179000F0E03197F1F7883048F098EF980F9630E5
:1017A00050F0E8E2F0E0A8E2B0E009C0EBE2F0E0DF
:1017B000ABE2B0E004C0E5E2F0E0A5E2B0E05C91AD
:1017C0008E3040F08E5021E030E001C0220F8A952B
:1017D000EAF708C0982F977021E030E001C0220F8F
:1017E0009A95EAF7209525232083683048F088EF02
:1017F000860F863050F0E7E2F0E0A7E2B0E009C0E3
:10180000EAE2F0E0AAE2B0E004C0E4E2F0E0A4E240
:10181000B0E02C916E3010F06E5001C0677091E016
:1018200001C0990F6A95EAF7922B9083842F08954F
:10183000883048F098EF980F963050F4E5E2F0E0E9
:10184000A5E2B0E009C0EBE2F0E0ABE2B0E004C03A
:10185000E8E2F0E0A8E2B0E09C918E3018F042EFB0
:10186000480F02C0482F477021E030E001C0220F2E
:101870004A95EAF7209529232083EFE0F0E031979D
:10188000F1F7683048F098EF960F963050F4E5E2A3
:10189000F0E0A5E2B0E009C0EBE2F0E0ABE2B0E0DE
:1018A00004C0E8E2F0E0A8E2B0E09C916E3018F0ED
:1018B00042EF460F02C0462F477021E030E001C0E2
:1018C000220F4A95EAF7209529232083EFE0F0E0E4
:1018D0003197F1F7883048F098EF980F963050F034
:1018E000E8E2F0E0A8E2B0E009C0EBE2F0E0ABE251
:1018F000B0E004C0E5E2F0E0A5E2B0E02C918E306B
:1019000040F092EF980F81E001C0880F9A95EAF7B6
:1019100007C0877091E001C0990F8A95EAF7892F77
:10192000822B80838FE090E00197F1F7683048F0D8
:1019300088EF860F863050F4E5E2F0E0A5E2B0E0F3
:1019400009C0EBE2F0E0ABE2B0E004C0E8E2F0E0B6
:10195000A8E2B0E09C916E3010F06E5001C067704C
:1019600081E001C0880F6A95EAF7892B808308958A
:10197000683048F098EF960F963050F4E5E2F0E0CA
:10198000A5E2B0E009C0EBE2F0E0ABE2B0E004C0F9
:10199000E8E2F0E0A8E2B0E02C9191E06E3018F0BF
:1019A00032EF360F02C0362F377001C0990F3A95CB
:1019B000EAF7922B9083883048F098EF980F963092
:1019C00050F4E5E2F0E0A5E2B0E009C0EBE2F0E0BF
:1019D000ABE2B0E004C0E8E2F0E0A8E2B0E02C91B5
:1019E0008E3010F08E5001C0877091E001C0990FC9
:1019F0008A95EAF7892F822B80838FE090E0019708
:101A0000F1F7683048F088EF860F863050F0E8E252
:101A1000F0E0A8E2B0E009C0EBE2F0E0ABE2B0E059
:101A200004C0E5E2F0E0A5E2B0E02C916E3010F0E9
:101A30006E5001C0677081E090E001C0880F6A9528
:101A4000EAF780958223808308958F929F92AF92C8
:101A5000BF92DF92EF92FF920F931F93CF93DF938A
:101A600000D01F92CDB7DEB7F42E48EF480F4630B6
:101A700010F475E201C078E250E092EF980F21E097
:101A800030E0F90102C0EE0FFF1F9A95E2F7FB83E9
:101A9000EA83982F977001C0220F9A95EAF78E304B
:101AA00010F0DE2E01C0D22ED094F8EFF60FF9839D
:101AB000F63010F4A5E201C0A8E2B0E092EF960F74
:101AC000E1E0F0E08F0101C0000F9A95EAF7962F50
:101AD000977001C0EE0F9A95EAF76E3010F0E02E85
:101AE00001C0EE2E6E3010F0902F01C09E2F909509
:101AF0008E3008F02A8138E0EFE08E2E912C88306D
:101B000030F40BE2A02EB12C0BE210E007C0A72EA0
:101B1000B52E463008F05BC005E210E0F8011081F8
:101B20001D21F5011083F0FE13C0683030F41BE274
:101B3000A12EB12C0BE210E007C0F9815D01F63057
:101B400008F448C008E210E0F80110811E2911C015
:101B5000683030F4FBE2AF2EB12C0BE210E006C08F
:101B6000E9815D01E630C8F108E210E0F80110817A
:101B70001923F5011083F4013197F1F7F6948830B9
:101B800030F4EBE2AE2EB12C0BE210E006C0A72E33
:101B9000B52E463028F108E210E0F8011081122B32
:101BA000F5011083F4013197F1F7315009F0A7CF17
:101BB0000F900F900F90DF91CF911F910F91FF9099
:101BC000EF90DF90BF90AF909F908F90089508E2C4
:101BD00010E0A4CF05E210E0B7CF05E210E0C6CFD9
:101BE00005E210E0DACF1F920F920FB60F92112488
:101BF0002F933F934F935F936F937F938F939F9315
:101C0000AF93BF93EF93FF938091B900887F8036A5
:101C100009F49CC068F5883209F45BC090F4803107
:101C200009F454C038F4882309F4F6C0883009F464
:101C30004DC0F6C0883109F44CC0803209F45DC053
:101C4000EFC0803409F468C048F4803309F455C00B
:101C5000883309F0E5C080934806D8C0803509F480
:101C60004FC0883509F45DC0883409F0D9C0D6C0AA
:101C7000883909F4C7C0A8F4883709F467C038F474
:101C8000883609F463C0803709F460C0C9C0883859
:101C900009F4B8C0803909F45FC0803809F0C0C0C9
:101CA0005BC0803B09F486C038F4803A09F466C012
:101CB000883A09F47FC0B4C0803C09F4A7C0883CCE
:101CC00009F4A4C0883B09F48AC0AAC08091250603
:101CD00010C09091470680914606981770F5E091E4
:101CE000470681E08E0F80934706F0E0EA5DF94FEA
:101CF00080818093BB0085EC86C0809348068EC0AF
:101D0000E091470681E08E0F809347068091BB00EB
:101D1000F0E0EA5DF94F8083909147068091460696
:101D20006EC0E091470681E08E0F80934706809158
:101D3000BB00F0E0EA5DF94F808380914906811194
:101D40006DC081E08093240684EA61C083E08093C3
:101D50004A061092FA05CFCF8091FA05803208F03A
:101D600051C0E091FA0581E08E0F8093FA058091D1
:101D7000BB00F0E0E652FA4F8083BDCF85EC809344
:101D8000BC0010924A068091FA05803230F4E0914E
:101D9000FA05F0E0E652FA4F10826091FA0570E021
:101DA000E0911605F09117058AED95E009951092DE
:101DB000FA0536C084E080934A061092D905109245
:101DC000D805E0911805F091190509958091D8057D
:101DD000811105C081E08093D8051092B805E0918B
:101DE000D90581E08E0F8093D905F0E0E854FA4FD1
:101DF00080818093BB009091D9058091D805981778
:101E000008F479CF85E88093BC000AC085EC809304
:101E1000BC0010924A0604C0109248060E944B0A69
:101E2000FF91EF91BF91AF919F918F917F916F91B2
:101E30005F914F913F912F910F900FBE0F901F9088
:101E40001895CF92DF92EF92FF920F931F93CF934B
:101E5000DF9300D000D000D0CDB7DEB781E0809313
:101E60004B0688E680936D0610924C0610926E0623
:101E700060E08CE097E00E94D70A0E94811A80916E
:101E80004A068111FCCF81E080934A06809349067F
:101E90009FEF909348061092470696E0909346066F
:101EA0008093250680912506806D8093250680917C
:101EB0002406813061F410922406809125068093D7
:101EC000BB008091BC0083FDF8CF85EC01C085EE9E
:101ED0008093BC0080914A068130E1F380914706EF
:101EE000873018F49091470601C097E0A6E2B6E06B
:101EF000E8E9F5E080E0891721F02D9121938F5FCB
:101F0000FACF10921B0580931A058CE097E00E948F
:101F10008E0A8F77982F92959F701AEF082F919FB6
:101F2000000D11248CE097E00E948E0A9C0133275B
:101F300094E0359527959A95E1F7F82E129FF00CCD
:101F400011248CE097E00E948E0A9C01332744E024
:101F5000359527954A95E1F7E82E129FE00C11245C
:101F60008CE097E00E948E0A8CE097E00E948E0A37
:101F70009C01332754E0359527955A95E1F7D82EE3
:101F8000129FD00C11248CE097E00E948E0A9C01D5
:101F9000332764E0359527956A95E1F7C82E129F9F
:101FA000C00C11248CE097E00E948E0A9C0133271C
:101FB00074E0359527957A95E1F7482F129F400DEB
:101FC0001124242F3C2D4D2D5E2D6F2D702F80E080
:101FD00090E026960FB6F894DEBF0FBECDBFDF911E
:101FE000CF911F910F91FF90EF90DF90CF900895C8
:101FF000FC01908190539A3008F090E081818053E9
:102000002AE0929F800D112408951F920F920FB61F
:102010000F9211242F933F934F935F936F937F936E
:102020008F939F93AF93BF93EF93FF93E0914005FE
:10203000F09141050995FF91EF91BF91AF919F916B
:102040008F917F916F915F914F913F912F910F9061
:102050000FBE0F901F901895CF92DF92FF920F93B3
:102060001F93CF93DF93182F062F6A01F22E0E9441
:10207000B80CE601CF0CD11CFF24F394CC15DD0580
:1020800059F04991602F812F0E94250D602F812FDB
:102090000E94060BF822F2CF602F812F0E94180CAD
:1020A0008F2DDF91CF911F910F91FF90DF90CF90F7
:1020B00008951F93CF93DF93C82FD62F142F0E941C
:1020C000B80C412F6D2F8C2F0E94250D6D2F8C2F5A
:1020D0000E94060B182F6D2F8C2F0E94180C812F39
:1020E000DF91CF911F9108958F929F92AF92BF92EF
:1020F000DF92EF92FF920F931F93CF93DF9300D065
:1021000000D01F92CDB7DEB77C015B018A01D22ED1
:10211000FC018681420F511D282F30E0241735071E
:10212000A8F1CE0101964C0185E0F40111928A9547
:10213000E9F78D2D8770806C8983A801CE01029606
:102140000E942230F1E0FD15C0F0F7019485D11016
:102150000CC00230110548F02B81911102C080E0C3
:1021600001C080E8822B8B8308C02A81911102C0B4
:1021700080E001C080E8822B8A8321E0200FA40147
:10218000F701658184810E942C1028C0182F1D1929
:10219000412F50E02D2DC7010E947410F701628578
:1021A000738580E090E00E942E1E0D5F011B11E000
:1021B000F7014681041790F050E0B501610F711DE1
:1021C00020E0C7010E947410F7016285738580E0EA
:1021D00090E00E942E1E01501F5FEACF0F900F90DB
:1021E0000F900F900F90DF91CF911F910F91FF9063
:1021F000EF90DF90BF90AF909F908F900895DC019B
:10220000862F653608F084E618968C9318976AE056
:102210000E94F52D893008F088E08150883030F434
:10222000E82FF0E0EC5EFB4F408101C040E81596DE
:102230006C91159714968C910C9459100895CF9227
:10224000DF92EF92FF920F931F93CF93DF936C0176
:102250007A018B01C0E0D0E0CE15DF0581F0D80116
:102260006D918D01D601ED91FC910190F081E02DF1
:10227000C6010995892B11F02196EECF7E01C70189
:10228000DF91CF911F910F91FF90EF90DF90CF9052
:102290000895FC0177FD68C08085918568177907EE
:1022A0000CF062C057FD60C08285938548175907BE
:1022B0000CF05AC08589823059F08330B1F08130FA
:1022C000D1F48FE290E0861B970BBA01AC0113C0EA
:1022D00083E590E0FC01E61BF70BBF018FE290E085
:1022E000FC01E41BF50BAF0106C083E590E0841B05
:1022F000950BAB01BC0164357105B0F54033510558
:1023000098F5CA01E3E095958795EA95E1F747705E
:102310005527232BA1F024E5289FF001299FF00DDC
:1023200011246E0F7F1FFB01ED5EFE4F81E090E0F8
:1023300001C0880F4A95EAF79081892B14C024E5E3
:10234000289FF001299FF00D11246E0F7F1FFB01C4
:10235000ED5EFE4F81E090E001C0880F4A95EAF7FC
:10236000809590818923808308950895FC0163708E
:10237000658B8481958126813781613039F06330A6
:1023800029F09187808733872287089531872087B6
:102390009387828708956F927F928F929F92AF92D8
:1023A000BF92CF92DF92EF92FF920F931F93CF9342
:1023B000DF93EC014B015A0169013801E881F98191
:1023C0000284F385E02D0995E881F9810288F3897B
:1023D000E02D87019601A501B401CE010995A50163
:1023E000460D571D41505109E881F9810288F38952
:1023F000E02D9601B401CE010995E881F9810088AC
:10240000F189E02D9301A501B401CE010995C80C15
:10241000D91CB60161507109E881F9810088F18900
:10242000E02D9301A501CE010995E881F981068887
:10243000F789E02DCE01DF91CF911F910F91FF9091
:10244000EF90DF90CF90BF90AF909F908F907F9054
:102450006F9009948F929F92AF92BF92CF92DF922A
:10246000EF92FF920F931F93CF93DF934C016B0179
:102470005A01E901DC01ED91FC916217730781F4C7
:102480000417150724F48B2D5801042F182F0A194F
:102490001B0998012F5F3F4F048CF58DE02D12C072
:1024A0004017510709F52617370724F48D2D6901C8
:1024B000C62FD82F9E012C193D092F5F3F4F068C48
:1024C000F78DE02D8701A501B601C4010995DF91C3
:1024D000CF911F910F91FF90EF90DF90CF90BF9021
:1024E000AF909F908F9008950284F385E02D099519
:1024F000D401ED91FC910488F589E02D9E01A501A0
:10250000B601C4010995D401ED91FC910688F789C3
:10251000E02DC401DF91CF911F910F91FF90EF90BB
:10252000DF90CF90BF90AF909F908F900994EF92E3
:10253000FF920F931F93DC011A960D911C911B972C
:1025400018962D913C911997ED91FC9100A0F1A165
:10255000E02D7B0140E050E060E070E009951F91C4
:102560000F91FF90EF9008954F925F926F927F923C
:102570008F929F92AF92BF92CF92DF92EF92FF9293
:102580000F931F93CF93DF936C012B015A013901F5
:102590004801DC01ED91FC910284F385E02D099561
:1025A000E201640C751CD601ED91FC91C615D705AE
:1025B0005CF40088F189E02D87019401A501BE013A
:1025C000C60109952196EFCF0688F789E02DC6014F
:1025D000DF91CF911F910F91FF90EF90DF90CF90FF
:1025E000BF90AF909F908F907F906F905F904F9033
:1025F00009948F929F92AF92BF92CF92DF92EF9207
:10260000FF920F931F93CF93DF93EC015B014A017D
:102610006901E881F9810284F385E02D099595012E
:102620002C0D3D1D21503109E881F9810488F5897F
:10263000E02D78018401A401B501CE010995E8815E
:10264000F9810688F789E02DCE01DF91CF911F91A6
:102650000F91FF90EF90DF90CF90BF90AF909F9041
:102660008F9009948F929F92AF92BF92CF92DF92F8
:10267000EF92FF920F931F93CF93DF93EC015B01D7
:102680004A0169017801E881F9810284F385E02D2E
:102690000995C80CD91C860101501109E881F981FE
:1026A0000488F589E02D9501A401B501CE010995B5
:1026B000E881F9810688F789E02DCE01DF91CF917D
:1026C0001F910F91FF90EF90DF90CF90BF90AF9050
:1026D0009F908F9009940895EF92FF920F931F930C
:1026E000DC01ED91FC9100A0F1A1E02D09951F9175
:1026F0000F91FF90EF9008950F931F93DC01ED91E0
:10270000FC91068CF78DE02D09951F910F9108958E
:102710000F931F93DC01ED91FC91048CF58DE02D5E
:1027200009951F910F910895DC01ED91FC910084B2
:10273000F185E02D09942F923F924F925F926F9214
:102740007F928F929F92AF92BF92CF92DF92EF9241
:10275000FF920F931F93CF93DF9300D000D000D050
:10276000CDB7DEB72C017E836D836A015901C801A4
:10277000FC82EB824801841A950A97FE03C091946B
:102780008194910835012D813E81621A730A77FE8A
:1027900003C0719461947108681479045CF43A2D53
:1027A0002B2D5C01832F922F3D812E81DE82CD82E5
:1027B000C32ED22EAD81BE81AA16BB065CF43C2D81
:1027C0002D2D6C01832F922F3D812E81BE82AD82F3
:1027D000A32EB22E85012D813E81021B130B1C01FD
:1027E0002C183D0837FE03C031942194310878013C
:1027F00017FF03C03FEFE31AF30AF594E794C816F6
:10280000D9062CF08FEF9FEF9A83898304C0A1E053
:10281000B0E0BA83A9832D813E81A216B30624F1CC
:10282000D201ED91FC910484F585E02D2B813C8152
:102830006814790424F44D815E81B60103C0A601B9
:102840006D817E81C2010995E218F308F7FE06C08A
:1028500029813A81C20ED31EE00EF11E8D819E8128
:1028600001969E838D83D7CF26960FB6F894DEBF50
:102870000FBECDBFDF91CF911F910F91FF90EF90D1
:10288000DF90CF90BF90AF909F908F907F906F9090
:102890005F904F903F902F9008950E941D308FE6DB
:1028A00096E00E94421A21E0892B09F420E0822F51
:1028B0000895EF92FF920F931F93CF93DF93EC0154
:1028C000198218821B821A821D821C826115710571
:1028D000B9F17B01FB0101900020E9F731978F01ED
:1028E000061B170BB8016F5F7F4F80E090E00E94DE
:1028F000572F009759F0998388831B830A832C8173
:102900003D81232B81F4FC0110820DC088819981C7
:10291000009711F00E94CE2E198218821D821C820F
:102920001B821A820DC01D830C83B7018881998197
:10293000DF91CF911F910F91FF90EF900C942B306E
:10294000DF91CF911F910F91FF90EF9008951F920B
:102950000F920FB60F9211242F933F934F935F93D3
:102960006F937F938F939F93AF93BF93EF93FF9357
:10297000E0910201F09103010995FF91EF91BF9160
:10298000AF919F918F917F916F915F914F913F9107
:102990002F910F900FBE0F901F9018951F920F92BE
:1029A0000FB60F9211242F933F934F935F936F9322
:1029B0007F938F939F93AF93BF93EF93FF93E09198
:1029C0000001F09101010995FF91EF91BF91AF9145
:1029D0009F918F917F916F915F914F913F912F9137
:1029E0000F900FBE0F901F90189590910D018913B5
:1029F00024C0E8E6F0E0E4919FEF90930D01E13010
:102A0000B9F098F0E230C9F4909170009D7F9093F6
:102A1000700091E09093B0009091B100987F946025
:102A20009093B1001092B30008C010926E0005C0E0
:102A300090916F009D7F90936F0060E00C942B1C31
:102A40001F920F920FB60F9211242F933F934F9323
:102A50005F936F937F938F939F93AF93BF93EF9306
:102A6000FF938091470590914805A0914905B09149
:102A70004A05892B8A2B8B2B51F190914405E091CB
:102A80004505F0914605808189278083809147051F
:102A900090914805A0914905B0914A05181619066C
:102AA0001A061B06C4F48091470590914805A09131
:102AB0004905B0914A050197A109B10980934705DD
:102AC00090934805A0934905B0934A0504C08091AE
:102AD0000D010E94F514FF91EF91BF91AF919F916D
:102AE0008F917F916F915F914F913F912F910F90B7
:102AF0000FBE0F901F9018951F920F920FB60F9256
:102B000011242F933F934F935F936F937F938F93F2
:102B10009F93AF93BF93EF93FF938FE696E00E944E
:102B2000711BFF91EF91BF91AF919F918F917F9119
:102B30006F915F914F913F912F910F900FBE0F902A
:102B40001F9018951F920F920FB60F9211242F937A
:102B50008F939F93EF93FF93E0917F06F091800610
:102B60008081E0918506F091860682FD12C09081F9
:102B7000809188068F5F8F7320918906821751F0AC
:102B8000E0918806F0E0E159F94F958F809388062F
:102B900001C08081FF91EF919F918F912F910F90B4
:102BA0000FBE0F901F9018951F920F920FB60F92A5
:102BB00011240F931F932F933F934F935F936F9322
:102BC0007F938F939F93AF93BF93EF93FF939091D6
:102BD000840080911D05E82FF0E0E450FA4F9083C7
:102BE0008F5F80931D05803208F418C190913E05D7
:102BF00080913F05890F877080931C0580E0E091EC
:102C00001C0524E0E29FF0011124E25EFA4F4081AE
:102C1000518162817381A82FB0E0A450BA4F9C917A
:102C2000490F511D611D711D408351836283738360
:102C3000E0911C0594E0E99FF0011124E25EFA4F57
:102C40004081518162817381E0911C0524E0E29F03
:102C5000F0011124E25EFA4F00811181228133815B
:102C60009AE0440F551F661F771F9A95D1F7400FC2
:102C7000511F621F731F4083518362837383E091EE
:102C80001C0594E0E99FF0011124E25EFA4F4081B7
:102C9000518162817381E0911C0524E0E29FF00183
:102CA0001124E25EFA4F0081118122813381A6E076
:102CB0007695679557954795AA95D1F7402751275F
:102CC0006227732740835183628373838F5F8032CF
:102CD00009F095CF8093FB05E0911C0584E0E89F07
:102CE000F0011124E25EFA4F80819181A281B381CB
:102CF000E0911C0524E0E29FF0011124E25EFA4F0E
:102D0000408151816281738123E0880F991FAA1F3E
:102D1000BB1F2A95D1F7840F951FA61FB71F80836D
:102D20009183A283B383E0911C0584E0E89FF001C6
:102D30001124E25EFA4F80819181A281B381E091FA
:102D40001C0524E0E29FF0011124E25EFA4F40816D
:102D50005181628173813BE0B695A79597958795E0
:102D60003A95D1F784279527A627B72780839183A3
:102D7000A283B383E0911C0584E0E89FF001112455
:102D8000E25EFA4F80819181A281B381E0911C05BE
:102D900024E0E29FF0011124E25EFA4F408151816C
:102DA000628173811FE0880F991FAA1FBB1F1A95AC
:102DB000D1F7840F951FA61FB71F80839183A2832D
:102DC000B383E0911C05A0911C0584E0A89FD0016D
:102DD0001124A25EBA4F8D919D910D90BC91A02DB2
:102DE00024E0E29FF0011124E25EFA4F8083918398
:102DF000A283B38310921D0580913F05883049F46A
:102E000080913E0590E001968770992780933E055A
:102E100005C080913F058F5F80933F05FF91EF9143
:102E2000BF91AF919F918F917F916F915F914F91E2
:102E30003F912F911F910F910F900FBE0F901F90F8
:102E400018952F923F924F925F926F927F928F923E
:102E50009F92AF92BF92CF92DF92EF92FF920F9329
:102E60001F93CF93DF93CDB7DEB76B970FB6F89470
:102E7000DEBF0FBECDBF9B8F8A8F5B011A01D22EA2
:102E80001F830E833701C982DC0158962D913C9136
:102E900059972115310509F0E6C018968D919C913E
:102EA0001997681779070CF0CDC11A968D919C91EE
:102EB0001B97481759070CF0C5C18C2C912CFB01AE
:102EC00026E0C29EE00DF11D1124FB87EA871E1645
:102ED0001F060CF0B7C1A40183E0440F551F8A956B
:102EE000E1F75D874C87CA01820D931D18161906FC
:102EF0000CF0A8C157968C91811104C05FEA5D1552
:102F000008F4D394AA8DBB8DED91FC9111970284A6
:102F1000F385E02DCD010995B5E0DB9EC0011124BC
:102F2000F5013596FF87EE87BB82AA8225019C01B9
:102F30002A193B09398B288BA101485F5F4F5B8BB6
:102F40004A8BE889F989E40DF51DE759FF4F549143
:102F5000588761013D822C82888580FF13C0AA8D2D
:102F6000BB8DED91FC91B981B13031F40484F585CC
:102F7000E02D2E813F8116C00684F785E02DEE807E
:102F8000FF801AC0EE81FF81E615F705F1F0AA8DEA
:102F9000BB8DED91FC91B981B13051F40484F5857C
:102FA000E02D9301A601B2018A8D9B8D09950DC07C
:102FB0000684F785E02D7301840194014C815D81C5
:102FC0006A817B818A8D9B8D0995E885E695E887E6
:102FD000FFEFCF1ADF0A2C813D81280D391D3D837B
:102FE0002C834A895B89C416D50609F0B5CF5FEFFB
:102FF000451A550A8A819B81880D991D9B838A8376
:10300000AE85BF854A165B0609F09BCFEE81FF8136
:10301000E615F70509F4F4C0EA8DFB8DA081B181B6
:10302000F981F13079F4B5016B5F7F4F5096ED91E6
:10303000FC915197830128E030E0A1018A8D9B8D9E
:103040000995DEC06A857B85681979091E96ED9120
:10305000FC911F9773010C851D859401A1018A8D38
:103060009B8D0995CDC0F9013496E491DE1AF901E2
:10307000329685919491B7E0DB9E800D911D1124CD
:10308000F901259134913B8B2A8BFC0125913491D8
:103090002901FC013296C490319634913E873296D4
:1030A00014913196D4904981423058F0612E012E0E
:1030B000000C77088D2D0D2C000C990B99878887B3
:1030C00004C019861886612C712CAA8DBB8DED91D8
:1030D000FC9111970284F385E02DCD010995B9810A
:1030E0008B2E912C689CC001699C900D789C900D52
:1030F0001124FC01EA0DFB1DFD87EC871A82712C5F
:10310000612CE12F110FFF0B95012E0F3F1F3B8705
:103110002A87AC0CB11CA5014E0F5F1F5F8B4E8B35
:10312000C1018D0D911DD7FC9A95998F888F9E8531
:10313000691608F065C0862D90E048855985480FCE
:10314000591F489D9001499D300D589D300D112407
:10315000D101A20FB31FB98BA88BEC85FD85FD8330
:10316000EC83AA84BB84DA80FA85DF1A288D398D36
:10317000280F391F3D8B2C8B8D2D8A0D4E895F8931
:10318000A416B506C1F1877041F4C2010196EA891F
:10319000FB89E40DF51D74902C0177FE21C0AA8DEA
:1031A000BB8DED91FC91B981B13061F40484F5855A
:1031B000E02D2E813F814C895D89B5018A8D9B8DE3
:1031C00009950EC00684F785E02DEE80FF8084010E
:1031D0009401488959896C817D818A8D9B8D0995DF
:1031E000770CEFEFAE1ABE0A2C813D81280D391DF8
:1031F0003D832C83C1CF3A813C0D3A83639497CFB2
:10320000AA8DBB8DED91FC9111970688F789E02D71
:10321000CD016B960FB6F894DEBF0FBECDBFDF9128
:10322000CF911F910F91FF90EF90DF90CF90BF90C3
:10323000AF909F908F907F906F905F904F903F9056
:103240002F9009946B960FB6F894DEBF0FBECDBFDA
:10325000DF91CF911F910F91FF90EF90DF90CF9072
:10326000BF90AF909F908F907F906F905F904F90A6
:103270003F902F900895AF92BF92CF92EF92FF921E
:103280000F931F93CF93DF93EC01262F888D998D99
:10329000009709F040C06A3059F41D861C862C89BD
:1032A0008E859F8538E0239F800D911D112441C09C
:1032B0006D3009F4AAC08E898823C1F03C898C85C1
:1032C0009D8546E0349F800D911D112448855985C8
:1032D000481759075CF41D861C868E859F8548E03B
:1032E000349F800D911D11249F878E87EA88FB886B
:1032F000088919894E855F856C857D85CC88CE01CE
:103300000E9421172C898C859D8536E0239F800D96
:10331000911D112442C06A3079F41D861C862C89C7
:10332000FC013696E4918E859F852E9F800D911D20
:1033300011249F878E8769C06D3009F466C0FC0137
:1033400034963491631708F460C03196E491E6171F
:1033500008F45BC0FC01329665917491422F50E0F5
:10336000431B510937E0349F5001359FB00C1124A5
:10337000A60EB71EF501329634913196E4913323AF
:1033800011F0E1110DC0F5013496E4912C898C8582
:103390009D85E29F800D911D11249D878C8735C0EE
:1033A000F501359644915E89552311F16C89E32F1F
:1033B000F0E0E40FF11D47FDFA956E9FD0016F9F7D
:1033C000B00D11244C855D854A0F5B1FE885F9859A
:1033D000E417F5076CF41D861C86FC013696E49113
:1033E0008E859F856E9F800D911D11249F878E87EE
:1033F000EA88FB88088919894E855F856C857D85FB
:10340000CC88CE010E942117BECF81E090E0DF91F1
:10341000CF911F910F91FF90EF90CF90BF90AF9001
:103420000895FC01538D448D252F30E0842F90E0CA
:10343000821B930B541710F0CF96089501970895AF
:10344000FC01918D828D981761F0828DDF01A80FAC
:10345000B11D5D968C91928D9F5F9F73928F90E0CE
:1034600008958FEF9FEF0895FC01918D828D98173D
:1034700031F0828DE80FF11D858D90E008958FEF7A
:103480009FEF0895FC01918D228D892F90E0805C43
:103490009F4F821B91098F739927089580E090E0D8
:1034A000892B29F00E944F1481110C94000008957B
:1034B000833081F028F4813099F08230A1F00895B2
:1034C0008730A9F08830B9F08430D1F48091800041
:1034D0008F7D03C0809180008F7780938000089556
:1034E00084B58F7702C084B58F7D84BD08958091A7
:1034F000B0008F7703C08091B0008F7D8093B000C3
:10350000089530916E06313208F04BC080914A0622
:103510008111FCCF90916D0622E020934A0621E0B4
:10352000209349062FEF20934806109247063093C8
:103530004606EDE4F6E0A6E2B6E020E0321721F020
:1035400041914D932F5FFACF1092250620912506C9
:10355000990F922B9093250690912406913061F457
:1035600010922406909125069093BB009091BC0088
:1035700093FDF8CF95EC01C095EE9093BC0090912F
:103580004A069230E1F3909148069F3F79F080918E
:103590004806803241F080914806803331F084E063
:1035A00005C081E003C082E001C083E010924C06B8
:1035B00010926E0610924B0608950F931F93CF93AF
:1035C0008C0181E080934B0688E680936D06109213
:1035D0004C0610926E0660E08CE097E00E94D70ADD
:1035E000F8012581CAE0822F6C2F0E94F52D682FEB
:1035F000660F860F880F682F620F8CE097E00E949D
:10360000D70AF8012481822F6C2F0E94F52D682F94
:10361000660F860F880F682F620F8CE097E00E947C
:10362000D70AF8012381822F6C2F0E94F52D682F75
:10363000660F860F880F682F620F8CE097E00E945C
:10364000D70A60E08CE097E00E94D70AF801228157
:10365000822F6C2F0E94F52D682F660F860F880F22
:10366000682F620F8CE097E00E94D70AF801218151
:10367000822F6C2F0E94F52D682F660F860F880F02
:10368000682F620F8CE097E00E94D70AF801208132
:10369000822F6C2F0E94F52D682F660F860F880FE2
:1036A000682F620F8CE097E00E94D70A60E08CE000
:1036B00097E00E94D70ACF911F910F910C94811A25
:1036C00088EF91E0E3E1F1E0DF019C011D922150E0
:1036D0003040E1F7E8E1F7E0158614861786168694
:1036E0000895FC01848DDF01A80FB11DA35ABF4FBF
:1036F0002C91848D90E001968F739927848FA689F1
:10370000B7892C93A089B1898C91837080648C9344
:10371000938D848D981306C00288F389E02D8081F3
:103720008F7D80830895EF92FF920F931F93CF9325
:10373000DF93EC0181E0888F9B8D8C8D981305C001
:10374000E889F989808185FD26C0F62E0B8D10E071
:103750000F5F1F4F0F731127E02E8C8DE8120CC0E6
:103760000FB607FCFACFE889F989808185FFF5CF8C
:10377000CE010E94711BF1CF8B8DFE01E80FF11D70
:10378000E35AFF4FF0829FB7F8940B8FEA89FB89C9
:10379000808180620AC09FB7F894EE89FF896083B8
:1037A000E889F98980818370806480839FBF81E08C
:1037B00090E0DF91CF911F910F91FF90EF900895CE
:1037C000CF93DF93EC01888D8823C9F0EA89FB89C8
:1037D000808185FD05C0A889B9898C9186FD0FC0BF
:1037E0000FB607FCF5CF808185FFF2CFA889B98994
:1037F0008C9185FFEDCFCE010E94711BE7CFDF9149
:10380000CF910895CF93DF93282F30E0F901E15550
:10381000FA4F8491F901E556FA4FD491F901E9572D
:10382000FA4FC491CC2391F081110E94581AEC2FC9
:10383000F0E0EE0FFF1FE358FA4FA591B491EC9121
:10384000ED2381E090E021F480E002C080E090E090
:10385000DF91CF9108951F93CF93DF93282F30E00E
:10386000F901E155FA4F8491F901E556FA4FD491E7
:10387000F901E957FA4FC491CC23C1F0162F8111F9
:103880000E94581AEC2FF0E0EE0FFF1FED58FA4F90
:10389000A591B4919FB7F894111104C08C91D09563
:1038A000D82302C0EC91DE2BDC939FBFDF91CF9138
:1038B0001F910895CF93C82F60E0809134070E9434
:1038C0002B1C8091360718161CF460E00E942B1CFC
:1038D0008C2F0E94B81F80913607181624F461E0DF
:1038E000CF910C942B1CCF910895EF92FF920F93E0
:1038F0001F93CF93DF9303E111E0C0E08C2F80642E
:103900000E945A1C80E80E945A1C61E08091340792
:103910000E942B1C8091360718161CF460E00E9450
:103920002B1C7801D4E5F70181917F010E94B81F1B
:10393000D150C9F78091360718161CF461E00E9437
:103940002B1CCF5F0C5A1F4FC630C1F680E4DF91AD
:10395000CF911F910F91FF90EF900C945A1C2F92D2
:103960003F924F925F926F927F928F929F92AF920F
:10397000BF92CF92EF92FF920F931F93CF93DF935B
:1039800000D0CDB7DEB73C011B012A018DB79EB731
:103990009A838983F301A480B5808A199B090FB6A5
:1039A000F8949EBF0FBE8DBFEDB7FEB731964F01A5
:1039B000A114B10481F1C50101978A159B0508F492
:1039C0005C01F30160817181A501C4010E94323064
:1039D000F401EA0DFB1D108251011401F301248151
:1039E0003581C1018819990982179307A0F4F10163
:1039F00021911F01CC24C394EE24E394F12C00E028
:103A000010E0A201B50188E197E00E942117F6E0DD
:103A1000AF0EB11CE3CF0E94751C89819A810FB64D
:103A2000F8949EBF0FBE8DBF0F900F90DF91CF9186
:103A30001F910F91FF90EF90CF90BF90AF909F900C
:103A40008F907F906F905F904F903F902F90089550
:103A50006F927F928F929F92AF92BF92CF92DF929E
:103A6000EF92FF920F931F93CF93DF936C013B0173
:103A7000C1E0452B09F0C0E0C195D0E0C601049635
:103A80005C0108974C017E0192E06916710450F5C3
:103A900008E110E0960140E150E0B60188E197E0CE
:103AA0000E949B13672871F404E110E0950140E146
:103AB00050E0B60188E197E00E949B13940140E139
:103AC00050E00EC07E0104E110E0950148E150E0B5
:103AD000B60188E197E00E949B13940148E150E011
:103AE000B60130C004E110E0950144E150E0B401BA
:103AF00088E197E00E949B1382E06816710489F4C4
:103B000000E110E0960144E150E0B40188E197E063
:103B10000E949B1308E110E0960144E150E0B401DB
:103B200011C07E0108E110E0960144E150E0B501CA
:103B300088E197E00E949B1300E110E0960144E1C8
:103B400050E0B50188E197E00E949B13DF91CF918F
:103B50001F910F91FF90EF90DF90CF90BF90AF90AB
:103B60009F908F907F906F900C94751CCF93DF93F4
:103B700090E0FC01E556FA4F2491FC01E957FA4F19
:103B80008491882361F190E0880F991FFC01E75927
:103B9000FA4FC591D491FC01ED58FA4FA591B4911B
:103BA000611109C09FB7F89488812095822388838A
:103BB000EC912E230BC0623061F49FB7F89488819A
:103BC000322F309583238883EC912E2B2C939FBF2B
:103BD00006C08FB7F894E8812E2B28838FBFDF9122
:103BE000CF9108958E3008F08E5087708064809356
:103BF0007C0080917A00806480937A0080917A00C2
:103C000086FDFCCF809178002091790090E0922B86
:103C100008953FB7F8948091200690912106A091D5
:103C20002206B091230626B5A89B05C02F3F19F0A8
:103C30000196A11DB11D3FBFBA2FA92F982F88272C
:103C4000820F911DA11DB11DBC01CD0142E0660F87
:103C5000771F881F991F4A95D1F708958F929F92D9
:103C6000AF92BF92CF92DF92EF92FF926B017C01F5
:103C70000E94091E4B015C01C114D104E104F1044E
:103C8000F1F00E94091EDC01CB0188199909AA09EB
:103C9000BB09883E9340A105B10570F321E0C21A2B
:103CA000D108E108F10888EE880E83E0981EA11C77
:103CB000B11CC114D104E104F10419F7DDCFFF9068
:103CC000EF90DF90CF90BF90AF909F908F9008952E
:103CD0002FB7F89460911C0670911D0680911E0606
:103CE00090911F062FBF0895009769F0FC01019085
:103CF0000020E9F73197AF01481B590BBC0188E15F
:103D000097E00C941F1180E090E00895CF93DF932B
:103D100000D0CDB7DEB7FC01842F806C89836A8325
:103D2000413041F48485811102C090E001C090E8E7
:103D3000962B9A8322E0AE014F5F5F4F65818481AD
:103D40000E942C100F900F90DF91CF9108950F9348
:103D50001F93CF93DF9300D000D0CDB7DEB7582F9D
:103D6000262F042F11E08091B107811101C010E0CE
:103D700081E08093B107852F6AE00E94F52D8A309B
:103D800030F4E82FF0E0ED52FA4FE49101C0E0E0AA
:103D9000E9833AE0852F632F0E94F52DE92FF0E0AB
:103DA000ED52FA4FE491EA83822F0E94F52D8A307A
:103DB00030F4E82FF0E0ED52FA4FE49101C0E0E07A
:103DC000EB83822F6AE00E94F52DE92FF0E0ED529F
:103DD000FA4FE491EC8320E044E050E0BE016F5FD5
:103DE0007F4F85EA97E00E947410002321F081E064
:103DF0008093B10702C01092B10741E06A8185EA61
:103E000097E00E94861E1093B1070F900F900F90BD
:103E10000F90DF91CF911F910F910895AF92BF92B4
:103E2000CF92DF92EF92FF920F931F93CF93DF9386
:103E300000D0CDB7DEB769834A83880F991F009100
:103E4000A3071091A407000F111FEDE4F7E09F01F5
:103E50002D5437402017310714F41192F8CF2981DF
:103E6000FC01E35BF84F21838A81808360E08091CD
:103E7000A1070E942B1C1016110634F501501109E0
:103E8000F801E35BF84FC080B0909F07A0909D07BA
:103E900087E0E82EF12CD12CB6010E2C02C07595CE
:103EA00067950A94E2F761708A2D0E942B1C61E0ED
:103EB0008B2D0E942B1C60E08B2D0E942B1C81E01F
:103EC000E81AF10848F7D7CF61E08091A1070F9079
:103ED0000F90DF91CF911F910F91FF90EF90DF90A6
:103EE000CF90BF90AF900C942B1C0C94741E8F92AB
:103EF0009F92AF92BF920F931F93CF93DF93CDB753
:103F0000DEB7A1970FB6F894DEBF0FBECDBF19A2E2
:103F1000423008F44AE08E010F5D1F4F842E912C31
:103F2000A12CB12CA50194010E948E2DE62FB90180
:103F3000CA0101501109EA3014F4E05D01C0E95CE6
:103F4000D801EC93232B242B252B61F7C8010E9469
:103F5000741EA1960FB6F894DEBF0FBECDBFDF91E1
:103F6000CF911F910F91BF90AF909F908F90089528
:103F7000909132079F3F21F4909133079F3F59F171
:103F800028E030E040E8E0913907F0913A075081AD
:103F900090913C07909595239083E0913707F0919D
:103FA000380790913B07582F542319F05081952BD7
:103FB00003C05081909595239083E0913907F0914B
:103FC0003A07508190913C07952B9083469521505C
:103FD0003109C9F608958EBD00000DB407FEFDCF6E
:103FE0008EB508951F920F920FB60F9211242F9342
:103FF0003F938F939F93AF93BF9380911C069091B3
:104000001D06A0911E06B0911F063091B60723E051
:10401000230F2D3720F40196A11DB11D05C026E800
:10402000230F0296A11DB11D2093B60780931C0695
:1040300090931D06A0931E06B0931F068091200644
:1040400090912106A0912206B09123060196A11D10
:10405000B11D8093200690932106A0932206B09371
:104060002306BF91AF919F918F913F912F910F9018
:104070000FBE0F901F901895CF93DF93CDB7DEB78B
:1040800068970FB6F894DEBF0FBECDBF789484B5A5
:10409000826084BD84B5816084BD85B5826085BD44
:1040A00085B5816085BD80916E00816080936E00D2
:1040B00010928100809181008260809381008091C4
:1040C0008100816080938100809180008160809375
:1040D00080008091B10084608093B1008091B00035
:1040E00081608093B00080917A00846080937A0030
:1040F00080917A00826080937A0080917A0081605A
:1041000080937A0080917A00806880937A00109280
:10411000C10062E080E00E94B61D62E082E00E9481
:10412000B61D62E081E00E94B61D60E083E00E945F
:10413000B61D84E08093AB0711E01093AC071982A1
:104140001A821B821C8220E044E050E0BE016F5FB7
:104150007F4F85EA97E00E9474101092AE0764E6E4
:1041600085EA97E00E94FF1080E180938100109221
:10417000800084E294EF909387008093860083E12F
:104180008093810085E996E09093410580934005F6
:1041900010936F0010921B0510921A0510924C0696
:1041A00010926E0610924A06109349061092240649
:1041B00061E082E10E942B1C61E083E10E942B1CE4
:1041C0008091B9008E7F8093B9008091B9008D7F76
:1041D0008093B90088E48093B80085E48093BC00A4
:1041E0008DE79AE090931905809318058EE79AE081
:1041F000909317058093160589EA94E00E94F80FC2
:1042000089838BE08A8384EA94E00E94F80F8B8391
:104210008CEA94E00E94F80F8C838FEA94E00E946D
:10422000F80F8D8382EB94E00E94F80F8E83CE010D
:1042300001960E94DD1A0E94210F20933D073093C2
:104240003E0740933F0750934007609341077093A8
:10425000420780E197E090930101809300018091F3
:1042600069008C7F816080936900E89A0E94100742
:10427000809132078F3F29F4909133079F3F09F4D3
:104280009EC661E00E94B61D61E0809133070E94E6
:10429000B61D80913307082E000C990BFC01E957DD
:1042A000FA4FE491F0E0EE0FFF1FED58FA4F259121
:1042B000349130933A0720933907FC01E556FA4FC1
:1042C000E491E0933C0780913207082E000C990B93
:1042D000FC01E957FA4FE491F0E0EE0FFF1FED58B3
:1042E000FA4F259134913093380720933707FC011A
:1042F000E556FA4FE491E0933B0761E08091340783
:104300000E94B61D8091350718161CF461E00E94CA
:10431000B61D8091360718161CF461E00E94B61D88
:1043200080913507181674F460E00E942B1C64EF2E
:1043300071E080E090E00E942E1E61E080913507E0
:104340000E942B1C81E20E945A1C84E10E945A1C8C
:1043500088EA0E945A1C80E20E945A1C8CE00E944B
:104360005A1C0E94751C0E94601B81E20E945A1C0C
:104370008EE90E945A1C80E20E945A1C8FEF9FEF28
:10438000909329078093280710922B0710922A07F1
:104390000E94751C0E94C3070E946D0710921D05A4
:1043A00010923E0510921C0510923F05F89414BE21
:1043B0008091600088618093600080E48093600059
:1043C000789480913F058823E1F32FB7F894E0912A
:1043D0003E0534E0E39FF0011124E25EFA4F808154
:1043E0009181A281B3818093610590936205A0932E
:1043F0006305B093640580913E0590E00196877057
:10440000992780933E0580913F05815080933F0519
:104410002FBF609161057091620580916305909155
:104420006405611571058105910511F00E94212C2B
:1044300060ED77E080E090E00E942E1E0E94A409CB
:104440008091150390911603A09117038E8B9F8B7B
:10445000A88F0E94210F7B8B20933D0730933E074E
:1044600040933F0750934007609341077093420782
:104470000E94681E2B013C012E893F89488D2F83A5
:1044800038874987AE01495F5F4F5D874C874AE0B7
:10449000242E41E0342E57E0C52E51E0D52E89E67A
:1044A00095E09B878A87E12CF12C01E0EC85FD8566
:1044B0008191FD87EC870E94021C182FF1018081F9
:1044C000181751F00E94681EEA85FB85608371838E
:1044D00082839383F1011083EA85FB85819091901B
:1044E000A190B190FB87EA870E94681EF9E18F0EC8
:1044F000911CA11CB11C86169706A806B90680F46B
:10450000F601808118139BC50BC082E0E816F10408
:1045100009F49CC561E0812F0E94F208F601108326
:10452000FFEFEF1AFF0A2FEF221A320A3FEFC31AEA
:10453000D30A43E0E416F10409F0B8CF2091560500
:104540008091100190911101222309F40BC1813057
:10455000910509F007C130914007209154053213AD
:1045600001C130914107209155053213FBC080E015
:1045700091E0909311018093100110928A0585E0DB
:10458000809391050E94A40910924F0581E08093C9
:104590000F01109289050E94601B00E010E06AE0A4
:1045A00070E0C8010E946A0869E070E0C8010E94DA
:1045B0006A080F5F1F4F0435110589F700E010E00E
:1045C0006FE270E0C8010E946A086EE270E0C80104
:1045D0000E946A080F5F1F4F0435110589F70AE032
:1045E00010E0B80180E090E00E946A08B80181E024
:1045F00090E00E946A080F5F1F4F0033110589F792
:104600000AE010E0B80183E590E00E946A08B80172
:1046100082E590E00E946A080F5F1F4F003311058A
:1046200089F70E94751C2BE4C22E25E0D22E3FE4B0
:10463000E32E35E0F32E86010E94D32B24E030E0F8
:1046400040E050E00E94252DF80161938F01EE16A5
:10465000FF0691F70CE010E07601F60180818111F0
:1046600007C040E050E060E070E0C8010E94281DF3
:10467000F6018081813039F440E050E061E070E083
:10468000C8010E94281DF6018081823039F440E083
:1046900050E062E070E0C8010E94281DFFEFCF1AD1
:1046A000DF0AF7018081833039F440E050E063E0B5
:1046B00070E0C8010E94281D015F1F4F08341105DA
:1046C00059F6EE24E394F12C09E010E023E530E004
:1046D00040E050E060E070E088E197E00E94CB119C
:1046E00023E530E040E050E060E070E088E197E0F2
:1046F0000E94B41265EB74E0CE0101960E94591439
:1047000042E050E062E070E0CE0101960E94AF1CF2
:1047100089819A810E94CE2E22E330E046E250E069
:1047200060E070E088E197E00E94CB1122E330E086
:1047300046E250E060E070E088E197E00E94B41249
:104740000E94B4090E94681E609350057093510541
:10475000809352059093530580910E0190E00E9442
:10476000720808C020915605211104C020918905C6
:1047700021112EC580911001909111018115914058
:1047800009F03AC3809188058111C2C100918A0560
:1047900010E0F801E05CFC4F608170E088EE93E08F
:1047A0000E94012E1B01798B688B072E000C880B51
:1047B000990B0E942C2C26E636E646EA5FE30E941F
:1047C000672C0E94BF2DAB01421953095D8B4C8BA6
:1047D000000F111FF801E85EFC4F808191819B87DB
:1047E0008A87892B09F487C180910D01863021F0D9
:1047F0008F3F09F080C104C0E8E6F0E014916FC07B
:1048000086E080930D01E8E6F0E014911F3F09F483
:1048100072C1113009F440C030F1123009F05FC0AC
:104820001092B0001092B1008091B000826080932D
:10483000B0008091B10081608093B100EDE8F5E0B7
:10484000E491F0E0EE0FFF1FED58FA4F859194913F
:104850009093460580934505E1EAF5E0E491E09305
:10486000440512E082C514BC15BC84B5826084BDC9
:1048700085B5816085BDEDE8F5E0E491F0E0EE0FEF
:10488000FF1FED58FA4F85919491E1EAF5E0E4912C
:10489000E093760510E069C51092800010928100C7
:1048A0008091810088608093810080918100816087
:1048B00080938100EDE8F5E0E491F0E0EE0FFF1F5A
:1048C000ED58FA4F85919491E1EAF5E0E491E09397
:1048D000750561E086E00E94B61D11E087C017FDF6
:1048E0000AC161E086E00E94B61D812F8D7F09F02C
:1048F0007DC0EA85FB854F01A12CB12C60E072E1FF
:104900008AE790E0A50194010E94252D2C873D8720
:104910004E875F87DA01C9010197A109B1098F3F6D
:104920009105A105B10509F00CF44CC060E472E4F6
:104930008FE090E0A50194010E94252D69017A0184
:10494000F1E0CF1AD108E108F108123009F52FEF94
:10495000C216D104E104F10409F00CF4CDC460E9FD
:1049600070ED83E090E0A50194010E94252D69017E
:104970007A0181E0C81AD108E108F1089FEFC91651
:10498000D104E104F10411F00CF043C483E027C02A
:10499000AFEFCA16D104E104F104C1F0BCF068E441
:1049A00078EE81E090E0A50194010E94252D690137
:1049B0007A01E1E0CE1AD108E108F108112309F4E7
:1049C0009DC466C46C017D0181E001C082E01111CB
:1049D00006C095B5987F892B85BD43C085E0909131
:1049E000B100987F892B8093B1003BC0EA85FB859D
:1049F0004F01A12CB12C60E072E18AE790E0A501A3
:104A000094010E94252D69017A01F1E0CF1AD108A5
:104A1000E108F108C114D10421E0E206F1048CF0B0
:104A200068E478EE81E090E0A50194010E94252DD4
:104A300069017A0181E0C81AD108E108F10883E030
:104A400001C081E0113069F490918100987F892B39
:104A5000809381002114310439F42FEF3FEFA90135
:104A600029C02114310471F02A853B85220F331FA0
:104A7000D1010E94152E28EE33E040E050E00E9464
:104A80008E2D03C02FEF3FEFA901113099F01230A6
:104A900019F1111130C0C7BC20937B0530937C0500
:104AA00040937D0550937E0580916E0082608093D7
:104AB0006E0021C0D0928900C092880020937705B3
:104AC000309378054093790550937A0580916F0073
:104AD000826080936F000FC0C092B300209347059F
:104AE000309348054093490550934A0580917000E2
:104AF0008260809370000E94681E609384057093AA
:104B00008505809386059093870581E080938805CD
:104B1000C0908405D0908505E0908605F0908705CB
:104B2000E889F989CF01FF0FAA0BBB0BC80ED91E6C
:104B3000EA1EFB1E0E94681E6C157D058E059F05F2
:104B4000E8F186E00E94F51461E086E00E942B1CEB
:104B50008091830581110DC00E94681E60937F05BE
:104B600070938005809381059093820581E0809306
:104B70008305C0907F05D0908005E0908105F0907E
:104B800082052C893D89C901330FAA0BBB0BC80EC6
:104B9000D91EEA1EFB1E0E94681E6C157D058E053F
:104BA0009F0560F080918A058F5F64E10E94F52D7A
:104BB00090938A051092880510928305809189054B
:104BC00081111AC180910F01882309F476C0E09108
:104BD0004F05F0E0E55BFA4F8081823019F580E106
:104BE0000E94F21D489774F50E94681E609350055C
:104BF00070935105809352059093530583E0809301
:104C00000E0183E090E00E9472080E94E10880910A
:104C10004F058F5F80934F05843010F40E94B409D4
:104C200010920F01E0914F05F0E0E55BFA4F8081B3
:104C3000833041F480E10E94F21D893E934074F17B
:104C40000E942C0AE0914F05F0E0E55BFA4F80816D
:104C5000811124C08FE00E94F21D893E93406CF1C7
:104C60000E94681E60935005709351058093520511
:104C70009093530583E080930E0183E090E00E94BF
:104C800072080E94E10880914F058F5F80934F0565
:104C9000843010F40E94B40910920F01E0914F0586
:104CA000F0E0E55BFA4F8081813039F48FE00E94BB
:104CB000F21D489714F40E942C0A80E10E94F21D14
:104CC000883592409CF480E10E94F21D8139914028
:104CD0006CF08FE00E94F21D883592403CF48FE02A
:104CE0000E94F21D813991400CF08CC280914F05D9
:104CF000882359F190910E01911127C08150809322
:104D00004F050E94B40980914F05E82FF0E0E55B64
:104D1000FA4F608170E02FE0829FC001112440E0D3
:104D200050E00C960E94281D0E94681E609350055A
:104D300070935105809352059093530583E08093BF
:104D40000E0183E090E00E94720810914F0580915F
:104D50008905143000F181111EC080E090E00E94AE
:104D600072080E94601B60EC74E0CE0101960E9404
:104D7000591441E150E06BE070E0CE0101960E94D1
:104D8000AF1C89819A810E94CE2E81E08093890593
:104D900031E03A8B31C0882319F04A8941112CC087
:104DA0000E94681EC0905005D0905105E0905205B9
:104DB000F0905305DC01CB018C199D09AE09BF09A8
:104DC000893C9105A105B105B0F080910E018823C1
:104DD00041F0112331F0815080930E0190E00E9448
:104DE00072080E94681E609350057093510580936D
:104DF0005205909353051A8A8091920590919305DC
:104E0000A0919405B09195058C509E4FAF4FBF4F28
:104E100084159505A605B7050CF054C0C090120185
:104E200052E05C1508F441C0D0908B0500919105CB
:104E300080E2089F800111240C5A1C4F98E0D99EF3
:104E4000000D111D11246DE4E62E67E0F62EBB2443
:104E5000B3948091A3079091A407181619064CF4F7
:104E6000F8014081F701408B6B2D80E090E00E94BB
:104E70000E1F0F5F1F4FFFEFEF1AFF0AB39429E0D9
:104E8000B212E7CF81E08D0D837080938B05811185
:104E900003C0C394C09212014092920550929305B0
:104EA00060929405709295050DC08091A307909132
:104EB000A4071816190634F440E06CE080E090E096
:104EC0000E940E1F8091580590915905A0915A0596
:104ED000B0915B0588519C4FAF4FBF4F841595052E
:104EE000A605B70510F41092570580918D05909195
:104EF0008E05A0918F05B091900588519C4FAF4FC2
:104F0000BF4F84159505A605B7050CF040C081E19B
:104F10000E94F21D8C018091A3079091A40718169E
:104F20001906A4F42FE030E0D8010E94152E2FEFCF
:104F300033E040E050E00E94252D2031310530F46F
:104F4000422F6AE080E090E00E940E1F2AE530E0E8
:104F5000D8010E94152E2FEF33E040E050E00E9470
:104F6000252DCA01B901665F7F4F8F4F9F4F85EA9C
:104F700097E00E94FF1040928D0550928E0560923E
:104F80008F05709290053B89311110928C058091AC
:104F90008C05811111C04B8941110EC080914007D1
:104FA000811105C080914107882309F42FC10E9417
:104FB0006D0781E080938C050E944E1A4ACA1FB784
:104FC000F89480915C05811127C0E1E9F5E08491B6
:104FD000E5EAF5E09491E82FF0E0EE0FFF1FE759C6
:104FE000FA4FA591B491EC91E92321F461E08AE0B4
:104FF0000E942B1C61E08AE00E94B61D8CB5806186
:105000008CBD8CB580648CBD61E08DE00E94B61DC6
:1050100061E08BE00E94B61D80915C058F5F8093FC
:105020005C051FBF8CB58C7F8CBD8DB58E7F8DBD13
:105030008CB5837F8CBD8CB58F7D8CBD5EC951E0F6
:10504000E516F10409F061CA6FEF65CA113059F431
:105050000E94681E609365057093660580936705DE
:10506000909368055BCA8090650590906605A09056
:105070006705B0906805F8EE8F0EF3E09F1EA11C47
:10508000B11C0E94681E20911001309111018616FA
:105090009706A806B906E8F42130310509F03ECAA2
:1050A000809140078093420580914107809343059A
:1050B00080913D078093040180913E078093050114
:1050C00080913F0780930601F0921101E092100158
:1050D00042C02031310509F470C0ECF422303105B2
:1050E000A1F15CF42130310509F06FC088E090E057
:1050F00090931101809310012EC02430310571F17D
:105100002830310509F061C020E130E03093110111
:105110002093100120C02034310551F174F4203265
:10512000310509F052C040E450E050931101409322
:10513000100153E05093910548C02038310511F11A
:105140002115314009F4EAC940C0E4E0F0E0F093F1
:105150001101E09310010093910537C020E230E087
:10516000309311012093100132E0309391052DC04E
:1051700080E890E0909311018093100194E0909367
:10518000910523C08091430590914205209106012D
:10519000309105014091040149833A832B839C831C
:1051A0008D830E83CE0101960E94DD1AE1E0F0E0CE
:1051B000F0931101E093100106C041E050E05093DC
:1051C000110140931001109291050E94A409A6C9F3
:1051D0008115914009F0CECA86E00E94F51461E085
:1051E00086E00E942B1CE1E0F0E0F0931101E093D7
:1051F00010010E94601B0E94C3070E946D070E945D
:10520000751CB8CA81E080930F0170CD0E94C3075E
:10521000CECE68E478EE81E090E0A50194010E9492
:10522000252D69017A01F1E0CF1AD108E108F108D2
:105230002FEFC216D104E104F10441F13CF164E224
:1052400074EF80E090E0A50194010E94252D690192
:105250007A01F1E0CF1AD108E108F1082FEFC21668
:10526000D104E104F10409F008F4B8CB62E17AE773
:1052700080E090E0A50194010E94252D69017A014A
:1052800081E0C81AD108E108F10819C084E0A7CB71
:10529000FFEFCF16D104E104F10409F008F463C074
:1052A00062E17AE780E090E0A50194010E94252D5B
:1052B00069017A01E1E0CE1AD108E108F1085FEF57
:1052C000C516D104E104F104A9F0A0F08C859D85F8
:1052D000AE85BF852AE0B595A795979587952A95C0
:1052E000D1F76C017D0141E0C41AD108E108F10851
:1052F00087E075CB86E073CB82E071CBAFEFCA1647
:10530000D104E104F10469F160F162E17AE780E03F
:1053100090E0A50194010E94252D69017A0181E0A8
:10532000C81AD108E108F1089FEFC916D104E104B9
:10533000F104A9F0A0F08C859D85AE85BF853AE08B
:10534000B595A795979587953A95D1F76C017D010D
:1053500031E0C31AD108E108F10885E03ACB84E0D6
:1053600038CB83E036CB84E032CB61E086E00E942C
:10537000B61DBFCACF92DF92EF92FF921F93CF93D9
:10538000DF93109272061092710688EE93E0A0E00F
:10539000B0E08093730690937406A0937506B09363
:1053A000760620E234E03093700620936F0625ECF9
:1053B00030E030937C0620937B0624EC30E0309381
:1053C0007E0620937D0620EC30E03093800620930B
:1053D0007F0621EC30E0309382062093810622EC98
:1053E00030E0309384062093830626EC30E030933F
:1053F00086062093850610928806109289061092E0
:105400008A0610928B0610920F0710920E07809357
:10541000100790931107A0931207B093130782E32C
:1054200094E090930D0780930C071092A8071092B8
:10543000A70788E994E09093A6078093A50784E0E6
:105440008093A90785E08093AA07549A559A5C9A9D
:105450009BB181E08295880F807E892B8BB9109259
:10546000AE078CE291E09093B0078093AF07109263
:10547000B10764E685EA97E00E94FF1040E460917E
:10548000AA078091A9070E94591088E994E0909397
:10549000A6078093A507C7E0D0E0D0939E07C093EE
:1054A0009D0789E090E09093A00780939F0788E094
:1054B00090E09093A2078093A10781E090E0909301
:1054C000A4078093A30761E087E00E94B61D61E016
:1054D00080919F070E94B61D61E08091A1070E9404
:1054E000B61D61E08091A1070E942B1CD0939E07FE
:1054F000C0939D07EDE5F7E08DE997E011928E17D7
:105500009F07E1F7E12CF12CC0E0D0E08091A307E8
:105510009091A407C817D9070CF042C040E06FE093
:10552000CE010E940E1FD7FD0CC08091A307909161
:10553000A407C817D9072CF447E06BE0CE010E94FE
:105540000E1F40E069E0CE010E940E1FD7FD23C070
:105550008091A3079091A407C817D90784F4C701C5
:10556000835A984F6C0111E0F60111926F0140E0EF
:10557000612FCE010E940E1F1F5F1930A9F7809185
:10558000A3079091A407C817D9072CF440E06CE05A
:10559000CE010E940E1F2196F8E0EF0EF11CB6CF4F
:1055A00080E794E0909344078093430780E49BE472
:1055B000ACE4B0E08093450790934607A09347077B
:1055C000B09348078FEF9FEF90934A078093490766
:1055D00080934B0780934C076EE070E083E497E084
:1055E0000E941C0784E894E090934407809343074B
:1055F00080E1809342078CE18093410786E08093AD
:10560000400740E081E697E9542F537021E009F00C
:1056100020E061E0640F30E0F901E359FE4F8E179E
:105620009F0730F0821B930B8D569140462FECCF95
:1056300040933D0721E0E22FF0E0EE5DF94FE49169
:10564000511103C0223009F4EF5FF0E031E0320F76
:105650008E179F0720F08E1B9F0B232FECCF2093DC
:105660003E078F5F80933F0710921B0710921A0727
:1056700024E530E030931D0720931C0780E390E081
:1056800090931F0780931E073093210720932007D4
:10569000909323078093220710922D0710922507DD
:1056A00010922407109227071092260781E080931A
:1056B0002C072FEF3FEF30932B0720932A073093CF
:1056C00029072093280780932E0710922F07109206
:1056D00031071092300784E494E090931907809387
:1056E00018078CE0809332078DE0809333078BE0BE
:1056F000809334078AE0809335078FEF80933607D5
:10570000DF91CF911F91FF90EF90DF90CF900895A0
:105710008F929F92AF92BF92CF92DF92EF92FF92C1
:10572000CF93DF93EC01688179818A819B81611538
:1057300071058105910521F464E279ED8BE597E02F
:105740002DE133EF41E050E00E94252D49015A013F
:105750009B01AC01A7EAB1E40E94442D6B017C01DE
:10576000ACEEB4EFA50194010E94522DDC01CB01F7
:105770008C0D9D1DAE1DBF1DB7FF03C00197A10974
:10578000B04888839983AA83BB83BC01CD019F77EE
:10579000DF91CF91FF90EF90DF90CF90BF90AF90CF
:1057A0009F908F9008958F929F92AF92BF92CF92C9
:1057B000DF92EF92FF9260910B0370910C03809146
:1057C0000D0390910E03611571058105910521F47A
:1057D00064E279ED8BE597E02DE133EF41E050E0B5
:1057E0000E94252D49015A019B01AC01A7EAB1E4B1
:1057F0000E94442D6B017C01ACEEB4EFA501940135
:105800000E94522DDC01CB018C0D9D1DAE1DBF1DD4
:10581000B7FF03C00197A109B04880930B03909391
:105820000C03A0930D03B0930E03BC01CD019F7731
:10583000FF90EF90DF90CF90BF90AF909F908F90B0
:10584000089560930B0370930C0380930D03909362
:105850000E030895E89409C097FB3EF49095809557
:10586000709561957F4F8F4F9F4F9923A9F0F92F26
:1058700096E9BB279395F695879577956795B795A4
:10588000F111F8CFFAF4BB0F11F460FF1BC06F5F8A
:105890007F4F8F4F9F4F16C0882311F096E911C09C
:1058A000772321F09EE8872F762F05C0662371F0BD
:1058B00096E8862F70E060E02AF09A95660F771FD1
:1058C000881FDAF7880F9695879597F908950E94B3
:1058D0007A2C0C94EB2C0E94DD2C38F00E94E42CE6
:1058E00020F0952311F00C94D42C0C94DA2C112474
:1058F0000C941F2D0E94FC2C70F3959FC1F3950F03
:1059000050E0551F629FF001729FBB27F00DB11D43
:10591000639FAA27F00DB11DAA1F649F6627B00DD3
:10592000A11D661F829F2227B00DA11D621F739FBC
:10593000B00DA11D621F839FA00D611D221F749FCA
:105940003327A00D611D231F849F600D211D822F11
:10595000762F6A2F11249F5750409AF0F1F0882338
:105960004AF0EE0FFF1FBB1F661F771F881F915065
:105970005040A9F79E3F510580F00C94D42C0C9414
:105980001F2D5F3FE4F3983ED4F386957795679596
:10599000B795F795E7959F5FC1F7FE2B880F911D8F
:1059A0009695879597F9089597F99F6780E870E035
:1059B00060E008959FEF80EC089500240A94161685
:1059C000170618060906089500240A9412161306ED
:1059D000140605060895092E0394000C11F488237B
:1059E00052F0BB0F40F4BF2B11F460FF04C06F5F97
:1059F0007F4F8F4F9F4F089557FD9058440F551F6D
:105A000059F05F3F71F04795880F97FB991F61F040
:105A10009F3F79F087950895121613061406551FB7
:105A2000F2CF4695F1DF08C0161617061806991F23
:105A3000F1CF86957105610508940895E894BB2718
:105A400066277727CB0197F90895052E97FB1EF45B
:105A500000940E943C2D57FD07D00E948E2D07FC1C
:105A600003D04EF40C943C2D5095409530952195E3
:105A70003F4F4F4F5F4F089590958095709561957A
:105A80007F4F8F4F9F4F08950E94B02DA59F900D7F
:105A9000B49F900DA49F800D911D11240895B7FF10
:105AA0000C94442D0E94442D821B930B08952F9239
:105AB0003F924F925F926F927F928F929F92AF929E
:105AC000BF92CF92DF92EF92FF920F931F93CF93EB
:105AD000DF93CDB7DEB7CA1BDB0B0FB6F894DEBF82
