:100000000C9499000C940F090C94E8080C94C1000E
:100010000C94C1000C94C1000C94C1000C943609DE
:100020000C94C1000C94C1000C94C1000C94C1004C
:100030000C94C1000C94E6060C94C1000C94C10011
:100040000C949E080C94C1000C9479050C945305F3
:100050000C94C1000C94C1000C94C1000C94C1001C
:100060000C94AB050C94C100020000000024002792
:10007000002A0000000000250028002B00000000DE
:1000800000230026002900040404040404040402DC
:100090000202020202030303030303010204081025
:1000A00020408001020408102001020408102000F2
:1000B0000000080002010000030407000000000027
:1000C000000000000622766D247F20390F5C50105E
:1000D0004008063F065B4F666D7D077F6F303058E6
:1000E000484C535F777F395E79713D76060E7538DF
:1000F00015373F7367336D783E1C2A766E5B393057
:100100000F1308105F7C585E7B716F74040C7530A0
:1001100015545C7367506D781C1C2A76665B7906F3
:100120004F40001F1C1F1E1F1E1F1F1E1F1E1F00D3
:10013000241211241FBECFEFD8E0DEBFCDBF11E0E7
:10014000A0E0B1E0ECEAFAE202C005900D92A43919
:10015000B107D9F723E0A4E9B1E001C01D92A133B2
:10016000B207E1F710E0C9E9D0E004C02197FE0131
:100170000E944015C839D107C9F70E94C90C0C94D8
:1001800054150C940000CF92DF92EF92FF920F93E0
:100190001F93CF93DF936C017A018B01C0E0D0E015
:1001A000CE15DF0581F0D8016D918D01D601ED915D
:1001B000FC910190F081E02DC6010995892B11F089
:1001C0002196EECF7E01C701DF91CF911F910F9154
:1001D000FF90EF90DF90CF90089585ED8093BC0065
:1001E0008091BC0084FDFCCF10924C020895409198
:1001F000B601262F30E0240F311D21323105DCF409
:1002000020914C022430C9F4FC0180E090E0861774
:1002100058F43091B6012191DC01AA56BE4FA30FCC
:10022000B11D2C930196F3CF8091B601680F6093B6
:10023000B60180E0089581E0089582E00895089570
:1002400008950895E091E3018091E201E81730F408
:10025000F0E0EC51FE4F808190E008958FEF9FEF2A
:1002600008959091E3018091E201981750F4E92FED
:10027000F0E0EC51FE4F208130E09F5F9093E3016E
:1002800002C02FEF3FEFC90108958091E20190E095
:100290002091E301821B91090895CF92DF92EF92A2
:1002A000FF920F931F93CF93DF937C01CB018A01C1
:1002B00020914D02222389F0EB016B01C40ED51E63
:1002C000CC15DD0569F06991D701ED91FC910190A4
:1002D000F081E02DC7010995F3CF642F0E94F7004C
:1002E000C801DF91CF911F910F91FF90EF90DF90A8
:1002F000CF900895CF93DF931F92CDB7DEB7698378
:1003000020914D022223D1F020917002203240F042
:1003100021E030E0FC013383228380E090E015C0CF
:1003200080914E02E82FF0E0E15BFD4F99819083D0
:100330008F5F80934E028093700205C061E0CE0112
:1003400001960E94F70081E090E00F90DF91CF913D
:100350000895883048F098EF980F963050F4E5E211
:10036000F0E0A5E2B0E009C0EBE2F0E0ABE2B0E023
:1003700004C0E8E2F0E0A8E2B0E09C918E3018F012
:1003800042EF480F02C0482F477021E030E001C023
:10039000220F4A95EAF7209529232083683048F0F8
:1003A00098EF960F963050F4E4E2F0E0A4E2B0E06B
:1003B00009C0EAE2F0E0AAE2B0E004C0E7E2F0E05F
:1003C000A7E2B0E09C916E3018F042EF460F02C0F9
:1003D000462F477021E030E001C0220F4A95EAF72E
:1003E000209529232083683048F098EF960F9630A7
:1003F00050F0E8E2F0E0A8E2B0E009C0EBE2F0E0A3
:10040000ABE2B0E004C0E5E2F0E0A5E2B0E02C91A0
:1004100091E06E3018F032EF360F02C0362F377091
:1004200001C0990F3A95EAF7922B9083EFE0F0E044
:100430003197F1F7683038F098EF960F963030F03A
:10044000E6E2F0E005C0E9E2F0E002C0E3E2F0E05D
:100450002081422F50E06E3058F092EF960F21E04D
:1004600030E002C0220F331F9A95E2F7332709C00C
:10047000962F977021E030E002C0220F331F9A952B
:10048000E2F72423352341E0232B09F040E08830B4
:1004900048F098EF980F963050F0E8E2F0E0A8E2CC
:1004A000B0E009C0EBE2F0E0ABE2B0E004C0E5E2AE
:1004B000F0E0A5E2B0E02C9191E08E3018F032EF40
:1004C000380F02C0382F377001C0990F3A95EAF7FC
:1004D000922B9083EFE0F0E03197F1F7883048F00D
:1004E00098EF980F963050F0E8E2F0E0A8E2B0E024
:1004F00009C0EBE2F0E0ABE2B0E004C0E5E2F0E01E
:10050000A5E2B0E05C918E3040F08E5021E030E00A
:1005100001C0220F8A95EAF708C0982F977021E052
:1005200030E001C0220F9A95EAF720952523208319
:10053000683048F088EF860F863050F0E7E2F0E050
:10054000A7E2B0E009C0EAE2F0E0AAE2B0E004C04D
:10055000E4E2F0E0A4E2B0E02C916E3010F06E50D6
:1005600001C0677091E001C0990F6A95EAF7922B7C
:100570009083842F0895883048F098EF980F963034
:1005800050F4E5E2F0E0A5E2B0E009C0EBE2F0E013
:10059000ABE2B0E004C0E8E2F0E0A8E2B0E09C9199
:1005A0008E3018F042EF480F02C0482F477021E00C
:1005B00030E001C0220F4A95EAF7209529232083D5
:1005C000EFE0F0E03197F1F7683048F098EF960FE0
:1005D000963050F4E5E2F0E0A5E2B0E009C0EBE2CD
:1005E000F0E0ABE2B0E004C0E8E2F0E0A8E2B0E0A6
:1005F0009C916E3018F042EF460F02C0462F4770B4
:1006000021E030E001C0220F4A95EAF72095292326
:100610002083EFE0F0E03197F1F7883048F098EF71
:10062000980F963050F0E8E2F0E0A8E2B0E009C0A0
:10063000EBE2F0E0ABE2B0E004C0E5E2F0E0A5E21E
:10064000B0E02C918E3040F092EF980F81E001C025
:10065000880F9A95EAF707C0877091E001C0990F5B
:100660008A95EAF7892F822B80838FE090E00197AB
:10067000F1F7683048F088EF860F863050F4E5E2F5
:10068000F0E0A5E2B0E009C0EBE2F0E0ABE2B0E000
:1006900004C0E8E2F0E0A8E2B0E09C916E3010F017
:1006A0006E5001C0677081E001C0880F6A95EAF75B
:1006B000892B80830895683048F098EF960F963024
:1006C00050F4E5E2F0E0A5E2B0E009C0EBE2F0E0D2
:1006D000ABE2B0E004C0E8E2F0E0A8E2B0E02C91C8
:1006E00091E06E3018F032EF360F02C0362F3770BF
:1006F00001C0990F3A95EAF7922B9083883048F021
:1007000098EF980F963050F4E5E2F0E0A5E2B0E003
:1007100009C0EBE2F0E0ABE2B0E004C0E8E2F0E0F8
:10072000A8E2B0E02C918E3010F08E5001C087709E
:1007300091E001C0990F8A95EAF7892F822B808377
:100740008FE090E00197F1F7683048F088EF860F6E
:10075000863050F0E8E2F0E0A8E2B0E009C0EBE259
:10076000F0E0ABE2B0E004C0E5E2F0E0A5E2B0E02A
:100770002C916E3010F06E5001C0677081E090E0F7
:1007800001C0880F6A95EAF78095822380830895D7
:100790008F929F92AF92BF92DF92EF92FF920F9350
:1007A0001F93CF93DF9300D01F92CDB7DEB7F42E07
:1007B00048EF480F463010F475E201C078E250E08F
:1007C00092EF980F21E030E0F90102C0EE0FFF1F19
:1007D0009A95E2F7FB83EA83982F977001C0220F66
:1007E0009A95EAF78E3010F0DE2E01C0D22ED0940A
:1007F000F8EFF60FF983F63010F4A5E201C0A8E295
:10080000B0E092EF960FE1E0F0E08F0101C0000F41
:100810009A95EAF7962F977001C0EE0F9A95EAF72E
:100820006E3010F0E02E01C0EE2E6E3010F0902FE2
:1008300001C09E2F90958E3008F02A8138E0EFE0BD
:100840008E2E912C883030F40BE2A02EB12C0BE2CE
:1008500010E007C0A72EB52E463008F05BC005E2B9
:1008600010E0F80110811D21F5011083F0FE13C086
:10087000683030F41BE2A12EB12C0BE210E007C06F
:10088000F9815D01F63008F448C008E210E0F80193
:1008900010811E2911C0683030F4FBE2AF2EB12C5C
:1008A0000BE210E006C0E9815D01E630C8F108E224
:1008B00010E0F80110811923F5011083F40131973C
:1008C000F1F7F694883030F4EBE2AE2EB12C0BE267
:1008D00010E006C0A72EB52E463028F108E210E041
:1008E000F8011081122BF5011083F4013197F1F713
:1008F000315009F0A7CF0F900F900F90DF91CF915B
:100900001F910F91FF90EF90DF90BF90AF909F905D
:100910008F90089508E210E0A4CF05E210E0B7CF71
:1009200005E210E0C6CF05E210E0DACF089580E0DE
:1009300090E0089581E792E00E94C30921E0892BAD
:1009400009F420E0822F089580910701843009F492
:1009500048C058F48130A1F0823009F05FC041E016
:100960006091E1018091E00128C0883009F1803177
:1009700009F054C041E0609105028091040236C044
:100980008091DF0141E0882329F060910502809188
:1009900004020BC08091940190919501892B09F478
:1009A00040E060911E0380911D030E94230A36C01F
:1009B00041E060910502809104020E94230A809127
:1009C000940190919501892B49F180910702811141
:1009D00025C040E060E880E293E00E94020A41E026
:1009E00018C041E06091E1018091E0010E94230A7A
:1009F0008091940190919501892B81F0809107025B
:100A000081110CC042E060E880E293E00E94020A9B
:100A100043E060E880E293E00E94020A8091940142
:100A200090919501019662E070E00E9411159093FB
:100A3000950180939401089582E00E94FB0B892B1D
:100A400021F481E080930602089510920602089531
:100A500090910601891324C0E8E6F0E0E4919FEF4D
:100A600090930601E130B9F098F0E230C9F490912A
:100A700070009D7F9093700091E09093B0009091F2
:100A8000B100987F94609093B1001092B30008C0B9
:100A900010926E0005C090916F009D7F90936F0043
:100AA00060E00C94240C1F920F920FB60F92112449
:100AB0002F933F934F935F936F937F938F939F9366
:100AC000AF93BF93EF93FF9381E792E00E946A0B8D
:100AD000FF91EF91BF91AF919F918F917F916F9116
:100AE0005F914F913F912F910F900FBE0F901F90EC
:100AF00018951F920F920FB60F9211242F938F9378
:100B00009F93EF93FF93E0918102F09182028081A5
:100B1000E0918702F091880282FD12C0908180915D
:100B20008A028F5F8F7320918B02821751F0E091C0
:100B30008A02F0E0EF58FD4F958F80938A0201C042
:100B40008081FF91EF919F918F912F910F900FBE18
:100B50000F901F9018951F920F920FB60F921124AD
:100B60002F933F934F935F936F937F938F939F93B5
:100B7000AF93BF93EF93FF938091B900887F803646
:100B800009F49CC068F5883209F45BC090F48031A8
:100B900009F454C038F4882309F4F6C0883009F405
:100BA0004DC0F6C0883109F44CC0803209F45DC0F4
:100BB000EFC0803409F468C048F4803309F455C0AC
:100BC000883309F0E5C080934A02D8C0803509F423
:100BD0004FC0883509F45DC0883409F0D9C0D6C04B
:100BE000883909F4C7C0A8F4883709F467C038F415
:100BF000883609F463C0803709F460C0C9C08838FA
:100C000009F4B8C0803909F45FC0803809F0C0C069
:100C10005BC0803B09F486C038F4803A09F466C0B2
:100C2000883A09F47FC0B4C0803C09F4A7C0883C6E
:100C300009F4A4C0883B09F48AC0AAC080912702A5
:100C400010C09091490280914802981770F5E09188
:100C5000490281E08E0F80934902F0E0E85DFD4F8C
:100C600080818093BB0085EC86C080934A028EC051
:100C7000E091490281E08E0F809349028091BB0090
:100C8000F0E0E85DFD4F8083909149028091480239
:100C90006EC0E091490281E08E0F809349028091FD
:100CA000BB00F0E0E85DFD4F808380914B02811135
:100CB0006DC081E08093260284EA61C083E0809366
:100CC0004C021092D801CFCF8091D801803208F029
:100CD00051C0E091D80181E08E0F8093D8018091BE
:100CE000BB00F0E0E854FE4F8083BDCF85EC8093DD
:100CF000BC0010924C028091D801803230F4E09117
:100D0000D801F0E0E854FE4F10826091D80170E005
:100D1000E091D901F091DA0188EB91E00995109208
:100D2000D80136C084E080934C021092B701109233
:100D3000B601E091DB01F091DC0109958091B601EB
:100D4000811105C081E08093B60110929601E09177
:100D5000B70181E08E0F8093B701F0E0EA56FE4FB5
:100D600080818093BB009091B7018091B601981764
:100D700008F479CF85E88093BC000AC085EC8093A5
:100D8000BC0010924C0204C010924A020E94ED0076
:100D9000FF91EF91BF91AF919F918F917F916F9153
:100DA0005F914F913F912F910F900FBE0F901F9029
:100DB0001895FC01908190539A3008F090E0818161
:100DC00080532AE0929F800D112408951F920F9264
:100DD0000FB60F9211242F933F934F935F936F930E
:100DE0007F938F939F93AF93BF93EF93FF93E09184
:100DF000DD01F091DE010995FF91EF91BF91AF9177
:100E00009F918F917F916F915F914F913F912F9122
:100E10000F900FBE0F901F901895CF92DF92FF9208
:100E20000F931F93CF93DF93182F062F6A01F22E93
:100E30000E945B03E601CF0CD11CFF24F394CC1578
:100E4000DD0559F04991602F812F0E94C803602F62
:100E5000812F0E94A901F822F2CF602F812F0E94DA
:100E6000BB028F2DDF91CF911F910F91FF90DF90EB
:100E7000CF9008951F93CF93DF93C82FD62F142FB1
:100E80000E945B03412F6D2F8C2F0E94C8036D2F92
:100E90008C2F0E94A901182F6D2F8C2F0E94BB024E
:100EA000812FDF91CF911F9108958F929F92AF92E2
:100EB000BF92DF92EF92FF920F931F93CF93DF9336
:100EC00000D000D01F92CDB7DEB77C015B018A0154
:100ED000D22EFC018681420F511D282F30E02417AD
:100EE0003507A8F1CE0101964C0185E0F40111927D
:100EF0008A95E9F78D2D8770806C8983A801CE01D2
:100F000002960E944B15F1E0FD15C0F0F7019485A3
:100F1000D1100CC00230110548F02B81911102C094
:100F200080E001C080E8822B8B8308C02A81911168
:100F300002C080E001C080E8822B8A8321E0200F7C
:100F4000A401F701658184810E940D0728C0182F34
:100F50001D19412F50E02D2DC7010E945507F701A3
:100F60006285738580E090E00E948F0C0D5F011B0D
:100F700011E0F7014681041790F050E0B501610FD0
:100F8000711D20E0C7010E945507F7016285738536
:100F900080E090E00E948F0C01501F5FEACF0F901D
:100FA0000F900F900F900F90DF91CF911F910F91A5
:100FB000FF90EF90DF90BF90AF909F908F9008953B
:100FC000FF920F931F93CF93DF93CDB7DEB7C05837
:100FD000D1090FB6F894DEBF0FBECDBF4138510521
:100FE00010F040E850E09E012F5F3F4FDB018B0186
:100FF000040F151FB901A017B10779F0ED91E03288
:101000003CF00E2E000CFF0BED55FF4FF49001C08D
:10101000F12CF901F1929F01EECFFC0121850E9494
:101020005507C058DF4F0FB6F894DEBF0FBECDBFD7
:10103000DF91CF911F910F91FF9008951F93CF9350
:10104000DF93EC01162F89859E81891328C090E0DB
:10105000BE01635F7F4F20E0E22FF0E0E817F90761
:1010600030F4E60FF71F318130832F5FF5CF89858C
:1010700090E0103244F0E12F012E000CFF0BED55F3
:10108000FF4FE49101C0E0E0DE01A80FB91F1D96FB
:10109000EC934E8150E020E0CE010E945507498537
:1010A0008E814817F8F450E010323CF0E12F110F18
:1010B000FF0BED55FF4FE49101C0E0E0DE01A40F0E
:1010C000B51F1D96EC934F5F5F4F20E0BE01635F3D
:1010D0007F4FCE010E94550789858F5F843008F0CD
:1010E00083E08987DF91CF911F91089508950E9431
:1010F00046153FB7F8948091220290912302A09167
:101100002402B091250226B5A89B05C02F3F19F0F7
:101110000196A11DB11D3FBFBA2FA92F982F882777
:10112000820F911DA11DB11DBC01CD0142E0660FD2
:10113000771F881F991F4A95D1F708951F920F9224
:101140000FB60F9211242F933F938F939F93AF93DA
:10115000BF9380911E0290911F02A0912002B09136
:10116000210230911D0223E0230F2D3720F4019638
:10117000A11DB11D05C026E8230F0296A11DB11DBA
:1011800020931D0280931E0290931F02A0932002C1
:10119000B09321028091220290912302A091240217
:1011A000B09125020196A11DB11D8093220290935A
:1011B0002302A0932402B0932502BF91AF919F9187
:1011C0008F913F912F910F900FBE0F901F90189508
:1011D0001F920F920FB60F9211242F933F934F93AC
:1011E0005F936F937F938F939F93AF93BF93EF938F
:1011F000FF93E0910201F09103010995FF91EF91B6
:10120000BF91AF919F918F917F916F915F914F911E
:101210003F912F910F900FBE0F901F9018951F9226
:101220000F920FB60F9211242F933F934F935F931A
:101230006F937F938F939F93AF93BF93EF93FF939E
:10124000E0910001F09101010995FF91EF91BF91AB
:10125000AF919F918F917F916F915F914F913F914E
:101260002F910F900FBE0F901F9018951F920F9205
:101270000FB60F9211242F933F934F935F936F9369
:101280007F938F939F93AF93BF93EF93FF9380913F
:101290000F0290911002A0911102B0911202892BBD
:1012A0008A2B8B2B51F190910A02E0910B02F09165
:1012B0000C0280818927808380910F029091100217
:1012C000A0911102B0911202181619061A061B06F7
:1012D000C4F480910F0290911002A0911102B0917C
:1012E00012020197A109B10980930F029093100295
:1012F000A0931102B093120204C0809106010E94D3
:101300002805FF91EF91BF91AF919F918F917F91B0
:101310006F915F914F913F912F910F900FBE0F9062
:101320001F901895FC01538D448D252F30E0842F9C
:1013300090E0821B930B541710F0CF9608950197FD
:101340000895FC01918D828D981761F0828DDF01E7
:10135000A80FB11D5D968C91928D9F5F9F73928FA8
:1013600090E008958FEF9FEF0895FC01918D828D9D
:10137000981731F0828DE80FF11D858D90E008956A
:101380008FEF9FEF0895FC01918D228D892F90E0C2
:10139000805C9F4F821B91098F739927089580E08D
:1013A00090E0892B29F00E949A0481110C9400008E
:1013B0000895833081F028F4813099F08230A1F0D3
:1013C00008958730A9F08830B9F08430D1F4809145
:1013D00080008F7D03C0809180008F778093800094
:1013E000089584B58F7702C084B58F7D84BD08953C
:1013F0008091B0008F7703C08091B0008F7D809383
:10140000B0000895CF93DF9300D0CDB7DEB7FC01D5
:10141000842F806C89836A83413041F484858111F3
:1014200002C090E001C090E8962B9A8322E0AE01C2
:101430004F5F5F4F658184810E940D070F900F9071
:10144000DF91CF9108950F931F93CF93DF9300D037
:1014500000D0CDB7DEB7582F262F042F11E0809192
:101460002C03811101C010E081E080932C03852FB3
:101470006AE00E9405158A3030F4E82FF0E0ED5262
:10148000FF4FE49101C0E0E0E9833AE0852F632F4C
:101490000E940515E92FF0E0ED52FF4FE491EA8339
:1014A000822F0E9405158A3030F4E82FF0E0ED52CB
:1014B000FF4FE49101C0E0E0EB83822F6AE00E94DD
:1014C0000515E92FF0E0ED52FF4FE491EC8320E0A9
:1014D00044E050E0BE016F5F7F4F80E293E00E94E6
:1014E0005507002321F081E080932C0302C0109265
:1014F0002C0341E06A8180E293E00E94020A10938B
:101500002C030F900F900F900F90DF91CF911F91B0
:101510000F910895282F30917002313208F04AC09F
:1015200080914C028111FCCF90916F0242E0409378
:101530004C0220934B022FEF20934A021092490253
:1015400030934802EFE4F2E0A8E2B2E020E0321784
:1015500021F041914D932F5FFACF109227022091F5
:101560002702990F922B9093270290912602913097
:1015700061F410922602909127029093BB00909103
:10158000BC0093FDF8CF95EC01C095EE9093BC00A4
:1015900090914C029230E1F390914A029F3F79F092
:1015A00080914A02803241F080914A02803331F0CA
:1015B00084E005C081E003C082E001C083E01092B6
:1015C0004E021092700210924D0208950F931F93D5
:1015D000CF938C0181E080934D0288E680936F0267
:1015E00010924E021092700260E08EE093E00E9432
:1015F0007A01F8012581CAE0822F6C2F0E9405151F
:10160000682F660F860F880F682F620F8EE093E0B9
:101610000E947A01F8012481822F6C2F0E94051507
:10162000682F660F860F880F682F620F8EE093E099
:101630000E947A01F8012381822F6C2F0E940515E8
:10164000682F660F860F880F682F620F8EE093E079
:101650000E947A0160E08EE093E00E947A01F80136
:101660002281822F6C2F0E940515682F660F860F2E
:10167000880F682F620F8EE093E00E947A01F801D4
:101680002181822F6C2F0E940515682F660F860F0F
:10169000880F682F620F8EE093E00E947A01F801B4
:1016A0002081822F6C2F0E940515682F660F860FF0
:1016B000880F682F620F8EE093E00E947A0160E04D
:1016C0008EE093E00E947A0181E0CF911F910F910B
:1016D0000C948A0AFC01848DDF01A80FB11DA35A66
:1016E000BF4F2C91848D90E001968F739927848F42
:1016F000A689B7892C93A089B1898C918370806465
:101700008C93938D848D981306C00288F389E02D05
:1017100080818F7D80830895EF92FF920F931F93B6
:10172000CF93DF93EC0181E0888F9B8D8C8D981394
:1017300005C0E889F989808185FD26C0F62E0B8DCC
:1017400010E00F5F1F4F0F731127E02E8C8DE812F2
:101750000CC00FB607FCFACFE889F989808185FFB4
:10176000F5CFCE010E946A0BF1CF8B8DFE01E80F01
:10177000F11DE35AFF4FF0829FB7F8940B8FEA896F
:10178000FB89808180620AC09FB7F894EE89FF8947
:101790006083E889F98980818370806480839FBF3A
:1017A00081E090E0DF91CF911F910F91FF90EF903A
:1017B0000895CF93DF93EC01888D8823C9F0EA89DF
:1017C000FB89808185FD05C0A889B9898C9186FD3A
:1017D0000FC00FB607FCF5CF808185FFF2CFA88937
:1017E000B9898C9185FFEDCFCE010E946A0BE7CFBE
:1017F000DF91CF910895CF93DF93282F30E0F90147
:10180000E155FF4F8491F901E556FF4FD491F9015D
:10181000E957FF4FC491CC2391F081110E94D9095F
:10182000EC2FF0E0EE0FFF1FE358FF4FA591B491AE
:10183000EC91ED2381E090E021F480E002C080E0B3
:1018400090E0DF91CF9108951F93CF93DF93282FDE
:1018500030E0F901E155FF4F8491F901E556FF4F62
:10186000D491F901E957FF4FC491CC23C1F0162F51
:1018700081110E94D909EC2FF0E0EE0FFF1FED5807
:10188000FF4FA591B4919FB7F894111104C08C91AA
:10189000D095D82302C0EC91DE2BDC939FBFDF9163
:1018A000CF911F910895CF93DF9390E0FC01E5560F
:1018B000FF4F2491FC01E957FF4F8491882361F188
:1018C00090E0880F991FFC01E759FF4FC591D49113
:1018D000FC01ED58FF4FA591B491611109C09FB76C
:1018E000F8948881209582238883EC912E230BC065
:1018F000623061F49FB7F8948881322F309583234A
:101900008883EC912E2B2C939FBF06C08FB7F89441
:10191000E8812E2B28838FBFDF91CF9108958F927E
:101920009F92AF92BF92CF92DF92EF92FF926B01A4
:101930007C010E9479084B015C01C114D104E104CF
:10194000F104F1F00E947908DC01CB0188199909B2
:10195000AA09BB09883E9340A105B10570F321E0B7
:10196000C21AD108E108F10888EE880E83E0981EBB
:10197000A11CB11CC114D104E104F10419F7DDCF9D
:10198000FF90EF90DF90CF90BF90AF909F908F909F
:101990000895CF93DF93CDB7DEB7C154D1090FB609
:1019A000F894DEBF0FBECDBF789484B5826084BD4D
:1019B00084B5816084BD85B5826085BD85B5816053
:1019C00085BD80916E00816080936E0010928100D1
:1019D000809181008260809381008091810081608C
:1019E000809381008091800081608093800080914D
:1019F000B10084608093B1008091B00081608093D9
:101A0000B00080917A00846080937A0080917A009F
:101A1000826080937A0080917A00816080937A005E
:101A200080917A00806880937A001092C10062E011
:101A300082E00E94530C60E083E00E94530C62E05D
:101A400086E00E94530C84E08093260311E01093FB
:101A5000270319821A821B821C8220E044E050E096
:101A6000BE016F5F7F4F80E293E00E9455071092A6
:101A7000290384E6809328034FE860912503809131
:101A800024030E943A0780E1809381001092800035
:101A900084E294EF909387008093860083E18093A3
:101AA000810084EA94E09093DE018093DD0110933D
:101AB0006F001092E3011092E20110924E02109218
:101AC000700210924C0210934B021092260261E0B9
:101AD00082E10E94240C61E083E10E94240C809149
:101AE000B9008E7F8093B9008091B9008D7F80937B
:101AF000B90088E48093B80085E48093BC008FE14E
:101B000091E09093DC018093DB0180E291E090937F
:101B1000DA018093D90187E891E00E94D906898390
:101B20008BE08A8382E891E00E94D9068B838AE861
:101B300091E00E94D9068C838DE891E00E94D9063D
:101B40008D8380E991E00E94D9068E83CE010196B3
:101B50000E94E60A8CE195E09093010180930001D8
:101B6000809169008C7F816080936900E89A0E946F
:101B70001C0501E086E089A783E08AA75E0129E2CF
:101B8000A20EB11CF4E0EF2EF1E0FF2EC12CD12CFF
:101B90001501A2E17A2EB0E16B2E18E0512E84E0FF
:101BA000482EF50181915F010E94FB0B182FF70170
:101BB0008081181709F4AEC0F1E0CF16D10409F402
:101BC0004BC0113009F4A6C080910701843019F18F
:101BD00058F48130B9F0823059F528E12DAFE0EEAC
:101BE0008E2EE1E09E2E24C08031E1F0803209F497
:101BF00091C08830E9F458E15DAF64E0862E62E080
:101C0000962E16C08091DF0190E001968170992791
:101C10008093DF017FC04CE34DAF71EE872E71E002
:101C2000972E06C08CE38DAF55E0852E52E0952EA1
:101C3000F401808190E00196FDAD6F2F70E00E946D
:101C40001115F40180830093070280911F03809394
:101C50001C020E94A4045EC02FB7113079F4F894DE
:101C600080911E0290911F02A0912002B09121024A
:101C70002FBF90930902809308024CC0F894809182
:101C80001E0290911F02A0912002B09121022FBF4D
:101C90002091080230910902AC01421B530B9A01BA
:101CA00080910701293E33407CF0813009F08BC3DD
:101CB00080911D038093E00180911E038093E101D8
:101CC00082E08093070126C0843081F038F48130AF
:101CD00051F08230F9F4409207011CC08830A9F01D
:101CE0008031B1F017C05092070114C08091E1011A
:101CF0009091E00179820A830B839C838D831E82FD
:101D0000CE0101960E94E60A03C06092070102C05C
:101D100000930701F70111937F01FFEFCF1ADF0A4C
:101D200022E0C216D10409F03CCF00934D0288E6B0
:101D300080936F0210924E021092700260E08EE06B
:101D400093E00E947A0181E00E948A0A80914C020D
:101D50008111FCCF00934C0200934B028FEF8093D4
:101D60004A021092490286E08093480200932702BB
:101D700080912702806D8093270280912602813016
:101D800061F410922602809127028093BB0080911B
:101D9000BC0083FDF8CF85EC01C085EE8093BC00CC
:101DA00080914C028130E1F380914902873018F430
:101DB0009091490201C097E0A8E2B2E0E4EEF1E0C0
:101DC00080E0891721F02D9121938F5FFACF109237
:101DD000E3018093E2018EE093E00E9431018F776E
:101DE000982F92959F701AEFD82E919FD00C1124A6
:101DF0008EE093E00E9431019C013327F4E0359599
:101E00002795FA95E1F7F82E129FF00C11248EE039
:101E100093E00E9431019C013327A4E0359527957A
:101E2000AA95E1F7E82E129FE00C11248EE093E0D2
:101E30000E9431018EE093E00E9431019C01332722
:101E4000B4E035952795BA95E1F7C82E129FC00CDE
:101E500011248EE093E00E9431019C01332794E02D
:101E6000359527959A95E1F7B82E129FB00C11245D
:101E70008EE093E00E9431019C01332744E03595C8
:101E800027954A95E1F7129F800D112480931A033C
:101E9000B0921B03C0921C03E0921D03F0921E033C
:101EA000D0921F039091060280910701992309F4B3
:101EB00002C2813009F0FFC1909104029E11FBC162
:101EC000909105029F11F7C180E2809307018091F4
:101ED0000701803209F0CDC188E2E8E0F1E0DE01DF
:101EE000119601900D928A95E1F784E1E0E3F1E02B
:101EF000DE01999601900D928A95E1F720911B02DF
:101F000030E0F101E20FF31F608170E088EE93E0B2
:101F10000E9411155B01220F331FE1E0F0E0EC0F8E
:101F2000FD1FE20FF31F2080318080910601873072
:101F300021F08F3F09F07EC104C0E8E6F0E0149183
:101F40006FC087E080930601E8E6F0E014911F3F40
:101F500009F470C1113009F440C030F1123009F0B9
:101F60005FC01092B0001092B1008091B00082600A
:101F70008093B0008091B10081608093B100EEE861
:101F8000F0E0E491F0E0EE0FFF1FED58FF4F859178
:101F9000949190930C0280930B02E2EAF0E0E491BA
:101FA000E0930A0212E04BC214BC15BC84B58260F7
:101FB00084BD85B5816085BDEEE8F0E0E491F0E098
:101FC000EE0FFF1FED58FF4F85919491E2EAF0E08C
:101FD000E491E0930E0210E032C210928000109261
:101FE00081008091810088608093810080918100D0
:101FF000816080938100EEE8F0E0E491F0E0EE0F84
:10200000FF1FED58FF4F85919491E2EAF0E0E491D3
:10201000E0930D0261E087E00E94530C11E088C05C
:1020200017FD08C161E087E00E94530C812F8D7F6E
:1020300009F07EC02101612C712C60E072E18AE719
:1020400090E0A30192010E94EE1222962CAF3DAFC8
:102050004EAF5FAF229769017A0141E0C41AD108FF
:10206000E108F1085FEFC516D104E104F10409F0BD
:1020700008F44CC060E472E48FE090E0A3019201A8
:102080000E94EE1269017A0181E0C81AD108E108C4
:10209000F108123009F59FEFC916D104E104F104EB
:1020A00009F008F48EC160E970ED83E090E0A301CF
:1020B00092010E94EE1269017A01E1E0CE1AD10884
:1020C000E108F108FFEFCF16D104E104F10411F0AB
:1020D00008F002C183E025C02FEFC216D104E1044D
:1020E000F104B1F0A8F068E478EE81E090E0A3019B
:1020F00092010E94EE1269017A0181E0C81AD108AA
:10210000E108F108112309F461C125C181E001C092
:1021100082E0111106C095B5987F892B85BD41C01D
:1021200085E09091B100987F892B8093B10039C0F0
:102130002101612C712C60E072E18AE790E0A3013B
:1021400092010E94EE1269017A0181E0C81AD10859
:10215000E108F108C114D10491E0E906F10488F026
:1021600068E478EE81E090E0A30192010E94EE1213
:1021700069017A01E1E0CE1AD108E108F10883E0B3
:1021800001C081E0113069F490918100987F892B22
:1021900080938100A114B10439F42FEF3FEFA9011E
:1021A00028C0A114B10469F09101220F331FD50199
:1021B0000E94251528EE33E040E050E00E940D1308
:1021C00003C02FEF3FEFA901113099F0123019F140
:1021D000111130C0C7BC20931702309318024093EE
:1021E000190250931A0280916E00826080936E00F3
:1021F00021C0D0928900C0928800209313023093AE
:102200001402409315025093160280916F00826071
:1022100080936F000FC0C092B30020930F023093E1
:10222000100240931102509312028091700082605C
:1022300080937000B501BB0C880B990B0E94E813CA
:1022400026E636E646EA5FE30E9498140E94B01341
:10225000072E000C880B990B0E948F0C87E00E94C0
:10226000280580911B028F5F64E10E940515909301
:102270001B0260911C0270E080E090E00E94E81375
:1022800020E030E040E05FE30E943F136B017C01FF
:1022900060911F0370E080E090E00E94E8139B01D2
:1022A000AC01C701B6010E94AB1387FD1092070273
:1022B0000E94CF095FCC90910602911108CE803226
:1022C00009F005CE87E00E94280561E087E00E94C2
:1022D000240C00930701FBCD68E478EE81E090E0E8
:1022E000A30192010E94EE1269017A01F1E0CF1A76
:1022F000D108E108F1082FEFC216D104E104F1047E
:1023000041F138F164E274EF80E090E0A3019201C2
:102310000E94EE1269017A0191E0C91AD108E10820
:10232000F108EFEFCE16D104E104F10409F008F44E
:10233000F7CE62E17AE780E090E0A30192010E948B
:10234000EE1269017A01F1E0CF1AD108E108F10833
:1023500019C084E0E6CE9FEFC916D104E104F10470
:1023600009F008F46AC062E17AE780E090E0A30136
:1023700092010E94EE1269017A0181E0C81AD10827
:10238000E108F1088FEFC816D104E104F104B9F0B7
:10239000B0F022968CAD9DADAEADBFAD22972AE0D8
:1023A000B595A795979587952A95D1F76C017D01ED
:1023B00051E0C51AD108E108F10887E0B2CE86E005
:1023C000B0CE82E0AECEF7011083AFCC4FEFC41693
:1023D000D104E104F10479F170F162E17AE780E07F
:1023E00090E0A30192010E94EE1269017A01F1E0EE
:1023F000CF1AD108E108F1082FEFC216D104E10489
:10240000F104B9F0B0F022968CAD9DADAEADBFAD8C
:1024100022973AE0B595A795979587953A95D1F784
:102420006C017D0141E0C41AD108E108F10885E0A2
:1024300072CE84E070CE83E06ECE84E06ACE61E03E
:1024400087E00E94530CF6CD109274021092730232
:1024500088EE93E0A0E0B0E080937502909376025E
:10246000A0937702B09378022AE431E030937202AD
:102470002093710225EC30E030937E0220937D02A0
:1024800024EC30E03093800220937F0220EC30E097
:10249000309382022093810221EC30E03093840259
:1024A0002093830222EC30E0309386022093850251
:1024B00026EC30E0309388022093870210928A0243
:1024C00010928B0210928C0210928D0210921103C6
:1024D000109210038093120390931303A09314039C
:1024E000B09315038CE591E090930F0380930E0356
:1024F000109223031092220386E791E09093210328
:102500008093200384E08093240385E08093250357
:10251000549A559A5C9A9BB181E08295880F807E8F
:10252000892B8BB9109229038CE291E090932B03B5
:1025300080932A0310922C0384E6809328034FE8AB
:1025400065E084E00E943A0740E4609125038091B1
:1025500024030E943A0786E791E090932103809339
:10256000200380E180931F038CE180931E0386E0AB
:1025700080931D0340E081E697E9542F537021E0DA
:1025800009F020E061E0640F30E0F901E359FE4F0B
:102590008E179F0730F0821B930B8D569140462F6C
:1025A000ECCF40931A0321E0E22FF0E0EE5DFE4F06
:1025B000E491511103C0223009F4EF5FF0E031E003
:1025C000320F8E179F0720F08E1B9F0B232FECCF0F
:1025D00020931B038F5F80931C030895052E97FBA8
:1025E0001EF400940E94051357FD07D00E940D139E
:1025F00007FC03D04EF40C9405135095409530958C
:1026000021953F4F4F4F5F4F08959095809570955E
:1026100061957F4F8F4F9F4F0895A1E21A2EAA1BFD
:10262000BB1BFD010DC0AA1FBB1FEE1FFF1FA21782
:10263000B307E407F50720F0A21BB30BE40BF50B7F
:10264000661F771F881F991F1A9469F76095709508
:10265000809590959B01AC01BD01CF010895A29F8B
:10266000B001B39FC001A39F700D811D1124911D66
:10267000B29F700D811D1124911D08955058BB27E4
:10268000AA270E9456130C945E140E94501438F02E
:102690000E94571420F039F49F3F19F426F40C944B
:1026A0004D140EF4E095E7FB0C944714E92F0E94BB
:1026B0006F1458F3BA17620773078407950720F061
:1026C00079F4A6F50C9491140EF4E0950B2EBA2F24
:1026D000A02D0B01B90190010C01CA01A001112428
:1026E000FF27591B99F0593F50F4503E68F11A16D4
:1026F000F040A22F232F342F4427585FF3CF469565
:1027000037952795A795F0405395C9F77EF41F1686
:10271000BA0B620B730B840BBAF09150A1F0FF0F50
:10272000BB1F661F771F881FC2F70EC0BA0F621F3C
:10273000731F841F48F4879577956795B795F7952C
:102740009E3F08F0B0CF9395880F08F09927EE0FC1
:102750009795879508950E94231408F481E00895C1
:102760000E94B7136894B1110C94921408950E94BA
:10277000771488F09F5798F0B92F9927B751B0F088
:10278000E1F0660F771F881F991F1AF0BA95C9F7F5
:1027900014C0B13091F00E949114B1E008950C94EE
:1027A0009114672F782F8827B85F39F0B93FCCF3A1
:1027B000869577956795B395D9F73EF49095809572
:1027C000709561957F4F8F4F9F4F0895E89409C092
:1027D00097FB3EF490958095709561957F4F8F4F54
:1027E0009F4F9923A9F0F92F96E9BB279395F6956A
:1027F000879577956795B795F111F8CFFAF4BB0FE8
:1028000011F460FF1BC06F5F7F4F8F4F9F4F16C04B
:10281000882311F096E911C0772321F09EE8872FD5
:10282000762F05C0662371F096E8862F70E060E091
:102830002AF09A95660F771F881FDAF7880F96950A
:10284000879597F90895990F0008550FAA0BE0E8AE
:10285000FEEF16161706E807F907C0F01216130662
:10286000E407F50798F0621B730B840B950B39F4A2
:102870000A2661F0232B242B252B21F408950A2608
:1028800009F4A140A6958FEF811D811D089597F948
:102890009F6780E870E060E008959FEF80EC089506
:1028A00000240A941616170618060906089500242F
:1028B0000A9412161306140605060895092E0394A9
:1028C000000C11F4882352F0BB0F40F4BF2B11F41D
:1028D00060FF04C06F5F7F4F8F4F9F4F089557FD7C
:1028E0009058440F551F59F05F3F71F04795880F7E
:1028F00097FB991F61F09F3F79F087950895121615
:1029000013061406551FF2CF4695F1DF08C01616C0
:1029100017061806991FF1CF869571056105089471
:102920000895E894BB2766277727CB0197F9089588
:102930000E94AB140C945E140E94501438F00E9454
:10294000571420F0952311F00C9447140C944D1457
:1029500011240C9492140E946F1470F3959FC1F38C
:10296000950F50E0551F629FF001729FBB27F00D3D
:10297000B11D639FAA27F00DB11DAA1F649F662792
:10298000B00DA11D661F829F2227B00DA11D621FE1
:10299000739FB00DA11D621F839FA00D611D221F9B
:1029A000749F3327A00D611D231F849F600D211D7F
:1029B000822F762F6A2F11249F5750409AF0F1F002
:1029C00088234AF0EE0FFF1FBB1F661F771F881F6B
:1029D00091505040A9F79E3F510580F00C94471448
:1029E0000C9492145F3FE4F3983ED4F38695779568
:1029F0006795B795F795E7959F5FC1F7FE2B880F11
:102A0000911D9695879597F90895991B79E004C0D3
:102A1000991F961708F0961B881F7A95C9F780951D
:102A2000089597FB072E16F4009407D077FD09D080
:102A30000E942C1507FC05D03EF4909581959F4F80
:102A40000895709561957F4F08950E942F13B7FFE9
:102A50000895821B930B0895AA1BBB1B51E107C06D
:102A6000AA1FBB1FA617B70710F0A61BB70B881F1E
:102A7000991F5A95A9F780959095BC01CD010895AD
:102A8000EE0FFF1F0590F491E02D099481E090E096
:102A9000F8940C945415FB01DC0102C001900D92D6
:0C2AA00041505040D8F70895F894FFCF43
:102AAC00760876080100FF01060126015D0126016A
:102ABC00B8010000B80188010000060126015D0183
:102ACC0026018801000088015D0100000000000063
:102ADC000808080808080202040808080808080280
:102AEC00020404040000000000008C0BC3009209D7
:102AFC00D90BC309A109B509000000007A014D01E9
:102B0C009704210145013101220188898A8B8C8D22
:102B1C008E8F000000001E08E007970496044E6F8D
:102B2C007620313020323031380031323A35373A74
:042B3C003035000030
:00000001FF
