:100000000C9419030C94BE140C9497140C94410393
:100010000C9441030C9441030C94C4150C941015DA
:100020000C9441030C9441030C9441030C94410340
:100030000C9441030C94F50F0C9441030C94410370
:100040000C94E21F0C9441030C9492150C946C15C3
:100050000C9441030C9441030C9441030C94410310
:100060000C94E30D0C9441030200000000003E5B81
:100070004F5B3E3E6B4F6B3E1C3E7C3E1C183C7EF5
:100080003C181C577D571C1C5E7F5E1C00183C18DA
:1000900000FFE7C3E7FF0018241800FFE7DBE7FFD6
:1000A00030483A060E2629792926407F0505074063
:1000B0007F05253F5A3CE73C5A7F3E1C1C08081C24
:1000C0001C3E7F14227F22145F5F005F5F06097F62
:1000D000017F006689956A606060606094A2FFA2FB
:1000E0009408047E040810207E201008082A1C08AA
:1000F000081C2A08081E101010100C1E0C1E0C30B4
:10010000383E3830060E3E0E0600000000000000AB
:100110005F00000007000700147F147F14242A7F6B
:100120002A12231308646236495620500008070338
:1001300000001C2241000041221C002A1C7F1C2AB6
:1001400008083E0808008070300008080808080009
:100150000060600020100804023E5149453E004204
:100160007F400072494949462141494D33181412D4
:100170007F1027454545393C4A49493141211109FC
:10018000073649494936464949291E0000140000EE
:100190000040340000000814224114141414140008
:1001A0004122140802015909063E415D594E7C1254
:1001B00011127C7F494949363E414141227F4141EC
:1001C000413E7F494949417F090909013E41415169
:1001D000737F0808087F00417F41002040413F01B4
:1001E0007F081422417F404040407F021C027F7FF5
:1001F0000408107F3E4141413E7F090909063E4106
:1002000051215E7F09192946264949493203017F58
:1002100001033F4040403F1F2040201F3F403840E7
:100220003F631408146303047804036159494D4380
:10023000007F4141410204081020004141417F04F8
:1002400002010204404040404000030708002054DF
:100250005478407F2844443838444444283844443F
:10026000287F385454541800087E090218A4A49C0E
:10027000787F0804047800447D40002040403D0021
:100280007F1028440000417F40007C047804787C83
:10029000080404783844444438FC182424181824EA
:1002A0002418FC7C08040408485454542404043FD3
:1002B00044243C4040207C1C2040201C3C403040DA
:1002C0003C44281028444C9090907C4464544C4406
:1002D00000083641000000770000004136080002A7
:1002E000010204023C2623263C1EA1A161123A40D1
:1002F00040207A3854545559215555794122545447
:100300007842215554784020545579400C1E527241
:10031000123955555559395454545939555454581E
:100320000000457C410002457D420001457C407D46
:100330001211127DF0282528F07C545545002054D8
:10034000547C547C0A097F4932494949323A444431
:10035000443A324A4848303A4141217A3A424020B0
:1003600078009DA0A07D3D4242423D3D4040403D41
:100370003C24FF2424487E4943662B2FFC2F2BFF6F
:100380000929F620C0887E090320545479410000D1
:10039000447D413048484A32384040227A007A0A47
:1003A0000A727D0D19317D2629292F282629292910
:1003B0002630484D40203808080808080808083842
:1003C0002F10C8ACBA2F102834FA00007B000008A8
:1003D000142A142222142A14085500550055AA552F
:1003E000AA55AAFF55FF55FF000000FF001010108E
:1003F000FF00141414FF001010FF00FF1010F01085
:10040000F0141414FC001414F700FF0000FF00FFA8
:100410001414F404FC141417101F10101F101F14D0
:1004200014141F00101010F0000000001F10101016
:10043000101F10101010F010000000FF101010100E
:100440001010101010FF10000000FF140000FF003B
:10045000FF00001F10170000FC04F41414171017FD
:100460001414F404F40000FF00F71414141414140A
:1004700014F700F7141414171410101F101F14147D
:1004800014F4141010F010F000001F101F000000F2
:100490001F14000000FC140000F010F01010FF10FA
:1004A000FF141414FF141010101F00000000F010AF
:1004B000FFFFFFFFFFF0F0F0F0F0FFFFFF00000094
:1004C0000000FFFF0F0F0F0F0F3844443844FC4A61
:1004D0004A4A347E02020606027E027E02635549C3
:1004E00041633844443C04407E201E2006027E02C4
:1004F0000299A5E7A5991C2A492A1C4C7201724C45
:10050000304A4D4D303048784830BC625A463D3E06
:10051000494949007E0101017E2A2A2A2A2A4444A7
:100520005F444440514A444040444A51400000FF27
:100530000103E080FF000008086B6B0836123624C8
:1005400036060F090F0600001818000000101000F2
:100550003040FF0101001F01011E00191D1712008C
:100560003C3C3C3C00000000000000000024002750
:10057000002A0000000000250028002B00000000D9
:1005800000230026002900040404040404040402D7
:100590000202020202030303030303010204081020
:1005A00020408001020408102001020408102000ED
:1005B0000000080002010000030407000000000022
:1005C000000000000622766D247F20390F5C501059
:1005D0004008063F065B4F666D7D077F6F303058E1
:1005E000484C535F777F395E79713D76060E7538DA
:1005F00015373F7367336D783E1C2A766E5B393052
:100600000F1308105F7C585E7B716F74040C75309B
:1006100015545C7367506D781C1C2A76665B7906EE
:100620004F40001F1C1F1E1F1E1F1F1E1F1E1F00CE
:100630007F2911241FBECFEFD8E0DEBFCDBF14E06D
:10064000A0E0B1E0E6E7F5E602C005900D92A63F16
:10065000B107D9F727E0A6EFB4E001C01D92AA398F
:10066000B207E1F713E0C9E1D3E004C02197FE012E
:100670000E94F52DC831D107C9F70E942C200C9497
:10068000B9320C940000089580E090E008958F92B4
:100690009F92AF92BF92CF92DF92EF92FF920F9311
:1006A0001F93CF93DF93CDB7DEB7AC970FB6F89417
:1006B000DEBF0FBECDBFDC011696ED91FC91179702
:1006C000319609F482C089017A016B014C01FE0167
:1006D00031965F0188E2DF011D928A95E9F7D40126
:1006E000ED91FC910484F585E02DB501C4010995D7
:1006F000009709F06CC01CA61BA61AA619A6D40167
:10070000ED91FC910684F785E02D9E01275D3F4F1A
:10071000AE01455D5F4FB501C4010995009709F031
:1007200056C00115110539F088E2F501D801019094
:100730000D928A95E1F70BA51CA5C114D10409F10E
:1007400017FD03C081E090E002C08FEF9FEF98019A
:100750003F77289FB001299F700D389F700D11249D
:10076000072E000C880B990B0E94F12B20E030E043
:1007700040E85BE30E942C2CF60160837183828346
:100780009383E114F104A1F069A57AA5072E000C6A
:10079000880B990B0E94F12B20E030E040E85BE3EE
:1007A0000E942C2CD7016D937D938D939C9313976E
:1007B000C801009739F429A53AA5232B41F486E115
:1007C00090E005C080E090E002C087E190E0AC9648
:1007D0000FB6F894DEBF0FBECDBFDF91CF911F9152
:1007E0000F91FF90EF90DF90CF90BF90AF909F90D0
:1007F0008F9008958F929F92AF92BF92CF92DF9287
:10080000EF92FF920F931F93CF93DF93EC018B0135
:100810005A017901E881F9810284F385E02D099577
:10082000C82EB801685F7F4FE881F9810284F385A3
:10083000E02DCE010995D82EB801605F7F4FE88189
:10084000F9810284F385E02DCE010995882EB80147
:10085000685E7F4FE881F9810284F385E02DCE0147
:100860000995982EB801605E7F4FE881F981028476
:10087000F385E02DCE0109959C2D9D0D980D990DC8
:1008800089130FC0892D90E09829F5019183808309
:100890008D2D90E09C29F7019183808380E090E08A
:1008A00002C085E190E0DF91CF911F910F91FF9001
:1008B000EF90DF90CF90BF90AF909F908F90089572
:1008C00047E050E080E0FB012191BF01042E01C010
:1008D000220F0A94EAF7820F41505109A0F70895B8
:1008E000CF92DF92EF92FF920F931F93CF93DF93FC
:1008F000CDB7DEB728970FB6F894DEBF0FBECDBFD9
:10090000DC011696ED91FC911797319691F18A01D1
:100910007B011D821E821F82188619821A821B8209
:100920001C82DC01ED91FC910480F581E02DAE018B
:100930004F5F5F4FBE016B5F7F4F09956C01892B45
:10094000B1F4E114F10441F06D817E818F819885CD
:100950000E94842DF70160830115110541F0698122
:100960007A818B819C810E94842DD8016C93C60171
:1009700002C087E190E028960FB6F894DEBF0FBE64
:10098000CDBFDF91CF911F910F91FF90EF90DF903E
:10099000CF900895FF920F931F93CF93DF93CDB71E
:1009A000DEB7C058D1090FB6F894DEBF0FBECDBF79
:1009B0004138510510F040E850E09E012F5F3F4F55
:1009C000DB018B01040F151FB901A017B10779F0E6
:1009D000ED91E0323CF00E2E000CFF0BED55FA4F7E
:1009E000F49001C0F12CF901F1929F01EECFFC01CE
:1009F00021850E946410C058DF4F0FB6F894DEBF07
:100A00000FBECDBFDF91CF911F910F91FF90089541
:100A10001F93CF93DF93EC01162F89859E81891355
:100A200028C090E0BE01635F7F4F20E0E22FF0E03E
:100A3000E817F90730F4E60FF71F318130832F5F95
:100A4000F5CF898590E0103244F0E12F012E000CA3
:100A5000FF0BED55FA4FE49101C0E0E0DE01A80F75
:100A6000B91F1D96EC934E8150E020E0CE010E940C
:100A7000641049858E814817F8F450E010323CF03C
:100A8000E12F110FFF0BED55FA4FE49101C0E0E0AB
:100A9000DE01A40FB51F1D96EC934F5F5F4F20E062
:100AA000BE01635F7F4FCE010E94641089858F5F16
:100AB000843008F083E08987DF91CF911F910895FA
:100AC000EF92FF920F931F93CF93DF93EC018B0173
:100AD00088E2FB0111928A95E9F761E08E810E941C
:100AE000A61D60E08E810E941B1C64E170E080E026
:100AF00090E00E941E1E61E08E810E941B1C60E03F
:100B00008E810E94A61D8FE590E00197F1F7E881A4
:100B1000F9810084F185E02D26E030E04AE050E0E4
:100B200060E0CE0109956E3171058105910534F4BF
:100B3000B82FA72F962F882780616FC0E881F98191
:100B40000084F185E02D26E030E04AE050E061E0ED
:100B5000CE010995623371058105910534F4B82FF2
:100B6000A72F962F8827816158C07801F8E2EF0EF1
:100B7000F11CE881F9810084F185E02D26E030E068
:100B80004AE050E060E0CE010995683171058105C9
:100B9000910534F4B82FA72F962F882782613DC086
:100BA000E881F9810084F185E02D26E030E04AE01B
:100BB00050E061E0CE0109956B307105810591052A
:100BC00034F4B82FA72F962F8827836126C021E001
:100BD00069327105810591050CF420E0F80121933B
:100BE0008F01EE15FF0529F6E881F9810084F18572
:100BF000E02D26E030E04AE050E060E0CE010995CB
:100C0000683171058105910534F4B82FA72F962F0F
:100C10008827846102C080E090E0DF91CF911F912E
:100C20000F91FF90EF9008953F924F925F926F92D5
:100C30007F928F929F92AF92BF92CF92DF92EF926C
:100C4000FF920F931F93CF93DF93EC01162F7A013E
:100C500069010E94F91D4B015C01112311F03884D8
:100C600001C0312C2701440C551C440C551C85E057
:100C7000481A51083601660C771C660C771C85E013
:100C8000681A710800E010E060E070E0CB012A8192
:100C90003B814C815D8126173707480759072CF4A3
:100CA0004FEF3FEF2FEF9FEF2BC00115110531F4F0
:100CB00082E0E816F1044CF0C20105C082E0C816DB
:100CC000D1041CF0C3010197F1F70E94F91D6819C6
:100CD00079098A099B09E985F0E0EE0FFF1FE358C7
:100CE000FA4FA591B4913C910F5F1F4F28852323A4
:100CF000321203C097FFCBCFD3CF462F372F282FE9
:100D0000642F732F822FDF91CF911F910F91FF904E
:100D1000EF90DF90CF90BF90AF909F908F907F909B
:100D20006F905F904F903F90089580911001909147
:100D300011018430910509F45FC064F4813091059C
:100D4000C9F0029709F05EC041E0609123058091EF
:100D5000220524C08031910599F1811521E0920787
:100D600049F0089709F04EC041E060913505809147
:100D7000340514C08091760541E0882329F0609104
:100D800035058091340543C080917505811101C0FE
:100D900040E06091200780911F0739C00E94971E94
:100DA000809175058823A9F180913705811131C0A3
:100DB00040E060E884E897E00E94761E41E016C0BB
:100DC00041E060913505809134050E94971E809125
:100DD00075058823F1F08091370581111AC042E032
:100DE00060E884E897E00E94761E43E060E884E8CB
:100DF00097E00E94761E0DC041E06091230580912E
:100E00002205E3CF41E060912305809122050E94F5
:100E1000971E809175058F5F817080937505089589
:100E200082E00E94F21B892B21F481E08093360539
:100E30000895109236050895DC0117967C936E9301
:100E40001697FB01E556FA4FE4911896EC93189724
:100E5000FB01E957FA4F649119966C930895CF926C
:100E6000DF92EF92FF920F931F93CF93DF93EC01EA
:100E70007A0169010E941C07E881F9810480F581EB
:100E8000E02D9801A601B701CE01DF91CF911F910E
:100E90000F91FF90EF90DF90CF900994CF92DF9267
:100EA000EF92FF920F931F93CF93DF93EC017A01A0
:100EB00069010E941C07E881F9810190F081E02D11
:100EC0009801A601B701CE01DF91CF911F910F913B
:100ED000FF90EF90DF90CF900994EF92FF920F93E5
:100EE0001F93CF93DF9300D0CDB7DEB78091100171
:100EF0009091110181159140E9F120E030E0AE01BF
:100F00004F5F5F4FBE016E5F7F4F82E297E00E94AE
:100F100070048CE0E82EF12CF0920407E0920307B5
:100F200008E110E010930607009305078BEA94E0B0
:100F30000E94651FF0920407E092030710930607D2
:100F4000009305076A8170E080E090E04AE00E942B
:100F5000671F8AEC94E00E94651F698170E080E061
:100F600090E04AE00E94671F8EEC94E00E94651FAB
:100F70000E94651C0F900F90DF91CF911F910F91F0
:100F8000FF90EF900895EF92FF920F931F93CF93EE
:100F9000DF9300D000D0CDB7DEB7809110019091E3
:100FA00011018115914009F48AC00CE010E0109302
:100FB00004070093030710920607109205078BEAB7
:100FC00094E00E94651F109304070093030710929A
:100FD00006071092050780911001909111018E0172
:100FE0000F5F1F4F8130910549F08830910531F036
:100FF0008031910519F08115914041F560911C07F0
:1010000070E06053784F072E000C880B990B4AE074
:101010000E94671F82ED94E00E94651F80911D076A
:101020001F928F9394EDE92E94E0F92EFF92EF92A8
:101030001F930F930E940630C8010E94651F82ED26
:1010400094E00E94651F80911E0727C060910401F3
:1010500070E06053784F072E000C880B990B4AE024
:101060000E94671F82ED94E00E94651F8091050138
:101070001F928F9384EDE82E84E0F82EFF92EF927A
:101080001F930F930E940630C8010E94651F82EDD6
:1010900094E00E94651F809106011F928F93FF923A
:1010A000EF921F930F930E940630C8010E94651FA4
:1010B0000FB6F894DEBF0FBECDBF0E94651C0F9027
:1010C0000F900F900F90DF91CF911F910F91FF9094
:1010D000EF900895AB0121E030E0BC0187EF96E08E
:1010E0000C9439118F929F92AF92BF92CF92DF9260
:1010F000EF92FF920F931F93CF93DF934C01C5E3C1
:10110000D0E0C12CD12CC814D904ECF4EE24EA941C
:101110008FE0F82E03E010E023E030E049E250E0F9
:10112000BE0187EF96E00E94BB1123E030E049E268
:1011300050E0BE0187EF96E00E94A4128FEFC81A1C
:10114000D80A2C96E0CF8CE0889D5001899DB00C88
:10115000112460E070E06B018CE0C80ED11C83E0CC
:101160008816910404F56B5C7F4FEB01CA0DDB1D03
:10117000E12CF12C03E010E023E030E049E250E004
:10118000BE0187EF96E00E94BB1123E030E049E208
:1011900050E0BE0187EF96E00E94A4128FEF881AFC
:1011A000980AB601D8CFDF91CF911F910F91FF9090
:1011B000EF90DF90CF90BF90AF909F908F900C9466
:1011C000651C80912F05E82FF0E0E55DFA4F608106
:1011D00070E02FE0829FC001112441E050E00C96A6
:1011E0000C94181DCF93462F813009F4ABC0209189
:1011F0001001309111012031310589F1ACF4223018
:10120000310509F48BC024F42130310509F131C0D6
:101210002430310509F487C02830310551F5C0E08C
:1012200098E1E4E3F5E083C020343105E9F044F4CB
:1012300020323105F1F4C0E094E6E4E0F1E077C05B
:101240002038310509F476C0211581E0380789F48A
:10125000809176058F5F81708093760573C0C0E0C2
:101260009CE3E5E3F5E063C0C1E09CE0E5E0F1E08C
:101270005EC0C0E04F3F21F48081811101C09083A6
:101280002038310549F580910501863051F028F468
:10129000823049F0843001F504C0893011F08B3080
:1012A000D9F49EE119C020910401822F837099F432
:1012B00030E02053384FC90164E670E00E94C62D2B
:1012C000892B39F4C90160E971E00E94C62D892B90
:1012D00011F49DE101C09CE1242F8081022E000CBD
:1012E000330B280F311D2C1B3109692F70E0C90108
:1012F0000E94C62DC80FC08381E0809337050E94ED
:10130000581E609338057093390580933A05909381
:101310003B050E949506CF910C94C307C0E098E16D
:10132000E2E2F5E004C0C0E09CE3E3E2F5E04F3F19
:1013300099F6A2CFC1E09FE1E6E0F1E06F3F09F04E
:10134000A2CF9ACFCF910895CF93DF9300D000D052
:1013500000D0CDB7DEB7E0912F05F0E0E55DFA4FA4
:101360008081811112C069ED74E0CE0101960E9466
:10137000491448E250E062E070E0CE0101960E941C
:101380009F1C89819A810E94932EE0912F05F0E0A5
:10139000E55DFA4F8081813091F460EE74E0CE011A
:1013A00001960E94491448E250E062E070E0CE01EC
:1013B00001960E949F1C89819A810E94932EE09140
:1013C0002F05F0E0E55DFA4F8081823091F467EE01
:1013D00074E0CE0101960E94491448E250E062E0B8
:1013E00070E0CE0101960E949F1C89819A810E9423
:1013F000932EE0912F05F0E0E55DFA4F8081833078
:1014000091F46EEE74E0CE0101960E94491448E218
:1014100050E062E070E0CE0101960E949F1C89813D
:101420009A810E94932E26960FB6F894DEBF0FBEC7
:10143000CDBFDF91CF9108950E94581E6093300573
:1014400070933105809332059093330583E0809348
:101450000E0183E090E00E9472080E94E1088091F2
:101460002F058F5F80932F05843010F40E94A4090C
:1014700010920F01089585ED8093BC008091BC000F
:1014800084FDFCCF1092290608954091B705262FC0
:1014900030E0240F311D21323105DCF42091290682
:1014A0002430C9F4FC0180E090E0861758F43091B4
:1014B000B7052191DC01A956BA4FA30FB11D2C939A
:1014C0000196F3CF8091B705680F6093B70580E070
:1014D000089581E0089582E0089508950895E091C7
:1014E000FB048091FA04E81730F4F0E0E958FA4F71
:1014F000808190E008958FEF9FEF08959091FB0415
:101500008091FA04981750F4E92FF0E0E958FA4F67
:10151000208130E09F5F9093FB0402C02FEF3FEFEC
:10152000C90108958091FA0490E02091FB04821B88
:1015300091090895CF92DF92EF92FF920F931F933C
:10154000CF93DF937C01CB018A0120912A062223CD
:1015500089F0EB016B01C40ED51ECC15DD0569F0D9
:101560006991D701ED91FC910190F081E02DC701C7
:101570000995F3CF642F0E94450AC801DF91CF91EE
:101580001F910F91FF90EF90DF90CF900895CF9330
:10159000DF931F92CDB7DEB7698320912A062223FD
:1015A000D1F020914D06203240F021E030E0FC01E6
:1015B0003383228380E090E015C080912B06E82FD2
:1015C000F0E0E45DF94F998190838F5F80932B0663
:1015D00080934D0605C061E0CE0101960E94450A48
:1015E00081E090E00F90DF91CF910895883048F02E
:1015F00098EF980F963050F4E5E2F0E0A5E2B0E005
:1016000009C0EBE2F0E0ABE2B0E004C0E8E2F0E0F9
:10161000A8E2B0E09C918E3018F042EF480F02C073
:10162000482F477021E030E001C0220F4A95EAF7C9
:10163000209529232083683048F098EF960F963044
:1016400050F4E4E2F0E0A4E2B0E009C0EAE2F0E045
:10165000AAE2B0E004C0E7E2F0E0A7E2B0E09C91CB
:101660006E3018F042EF460F02C0462F477021E05F
:1016700030E001C0220F4A95EAF720952923208304
:10168000683048F098EF960F963050F0E8E2F0E0BE
:10169000A8E2B0E009C0EBE2F0E0ABE2B0E004C0E9
:1016A000E5E2F0E0A5E2B0E02C9191E06E3018F0B8
:1016B00032EF360F02C0362F377001C0990F3A95BE
:1016C000EAF7922B9083EFE0F0E03197F1F7683082
:1016D00038F098EF960F963030F0E6E2F0E005C073
:1016E000E9E2F0E002C0E3E2F0E02081422F50E0C6
:1016F0006E3058F092EF960F21E030E002C0220FDA
:10170000331F9A95E2F7332709C0962F977021E08F
:1017100030E002C0220F331F9A95E2F724233523CD
:1017200041E0232B09F040E0883048F098EF980F13
:10173000963050F0E8E2F0E0A8E2B0E009C0EBE259
:10174000F0E0ABE2B0E004C0E5E2F0E0A5E2B0E03A
:101750002C9191E08E3018F032EF380F02C0382F04
:10176000377001C0990F3A95EAF7922B9083EFE01A
:10177000F0E03197F1F7883048F098EF980F963005
:1017800050F0E8E2F0E0A8E2B0E009C0EBE2F0E0FF
:10179000ABE2B0E004C0E5E2F0E0A5E2B0E05C91CD
:1017A0008E3040F08E5021E030E001C0220F8A954B
:1017B000EAF708C0982F977021E030E001C0220FAF
:1017C0009A95EAF7209525232083683048F088EF22
:1017D000860F863050F0E7E2F0E0A7E2B0E009C003
:1017E000EAE2F0E0AAE2B0E004C0E4E2F0E0A4E261
:1017F000B0E02C916E3010F06E5001C0677091E037
:1018000001C0990F6A95EAF7922B9083842F08956F
:10181000883048F098EF980F963050F4E5E2F0E009
:10182000A5E2B0E009C0EBE2F0E0ABE2B0E004C05A
:10183000E8E2F0E0A8E2B0E09C918E3018F042EFD0
:10184000480F02C0482F477021E030E001C0220F4E
:101850004A95EAF7209529232083EFE0F0E03197BD
:10186000F1F7683048F098EF960F963050F4E5E2C3
:10187000F0E0A5E2B0E009C0EBE2F0E0ABE2B0E0FE
:1018800004C0E8E2F0E0A8E2B0E09C916E3018F00D
:1018900042EF460F02C0462F477021E030E001C002
:1018A000220F4A95EAF7209529232083EFE0F0E004
:1018B0003197F1F7883048F098EF980F963050F054
:1018C000E8E2F0E0A8E2B0E009C0EBE2F0E0ABE271
:1018D000B0E004C0E5E2F0E0A5E2B0E02C918E308B
:1018E00040F092EF980F81E001C0880F9A95EAF7D7
:1018F00007C0877091E001C0990F8A95EAF7892F98
:10190000822B80838FE090E00197F1F7683048F0F8
:1019100088EF860F863050F4E5E2F0E0A5E2B0E013
:1019200009C0EBE2F0E0ABE2B0E004C0E8E2F0E0D6
:10193000A8E2B0E09C916E3010F06E5001C067706C
:1019400081E001C0880F6A95EAF7892B80830895AA
:10195000683048F098EF960F963050F4E5E2F0E0EA
:10196000A5E2B0E009C0EBE2F0E0ABE2B0E004C019
:10197000E8E2F0E0A8E2B0E02C9191E06E3018F0DF
:1019800032EF360F02C0362F377001C0990F3A95EB
:10199000EAF7922B9083883048F098EF980F9630B2
:1019A00050F4E5E2F0E0A5E2B0E009C0EBE2F0E0DF
:1019B000ABE2B0E004C0E8E2F0E0A8E2B0E02C91D5
:1019C0008E3010F08E5001C0877091E001C0990FE9
:1019D0008A95EAF7892F822B80838FE090E0019728
:1019E000F1F7683048F088EF860F863050F0E8E273
:1019F000F0E0A8E2B0E009C0EBE2F0E0ABE2B0E07A
:101A000004C0E5E2F0E0A5E2B0E02C916E3010F009
:101A10006E5001C0677081E090E001C0880F6A9548
:101A2000EAF780958223808308958F929F92AF92E8
:101A3000BF92DF92EF92FF920F931F93CF93DF93AA
:101A400000D01F92CDB7DEB7F42E48EF480F4630D6
:101A500010F475E201C078E250E092EF980F21E0B7
:101A600030E0F90102C0EE0FFF1F9A95E2F7FB8309
:101A7000EA83982F977001C0220F9A95EAF78E306B
:101A800010F0DE2E01C0D22ED094F8EFF60FF983BD
:101A9000F63010F4A5E201C0A8E2B0E092EF960F94
:101AA000E1E0F0E08F0101C0000F9A95EAF7962F70
:101AB000977001C0EE0F9A95EAF76E3010F0E02EA5
:101AC00001C0EE2E6E3010F0902F01C09E2F909529
:101AD0008E3008F02A8138E0EFE08E2E912C88308D
:101AE00030F40BE2A02EB12C0BE210E007C0A72EC1
:101AF000B52E463008F05BC005E210E0F801108119
:101B00001D21F5011083F0FE13C0683030F41BE294
:101B1000A12EB12C0BE210E007C0F9815D01F63077
:101B200008F448C008E210E0F80110811E2911C035
:101B3000683030F4FBE2AF2EB12C0BE210E006C0AF
:101B4000E9815D01E630C8F108E210E0F80110819A
:101B50001923F5011083F4013197F1F7F6948830D9
:101B600030F4EBE2AE2EB12C0BE210E006C0A72E53
:101B7000B52E463028F108E210E0F8011081122B52
:101B8000F5011083F4013197F1F7315009F0A7CF37
:101B90000F900F900F90DF91CF911F910F91FF90B9
:101BA000EF90DF90BF90AF909F908F90089508E2E4
:101BB00010E0A4CF05E210E0B7CF05E210E0C6CFF9
:101BC00005E210E0DACF1F920F920FB60F921124A8
:101BD0002F933F934F935F936F937F938F939F9335
:101BE000AF93BF93EF93FF938091B900887F8036C6
:101BF00009F49CC068F5883209F45BC090F4803128
:101C000009F454C038F4882309F4F6C0883009F484
:101C10004DC0F6C0883109F44CC0803209F45DC073
:101C2000EFC0803409F468C048F4803309F455C02B
:101C3000883309F0E5C080932706D8C0803509F4C1
:101C40004FC0883509F45DC0883409F0D9C0D6C0CA
:101C5000883909F4C7C0A8F4883709F467C038F494
:101C6000883609F463C0803709F460C0C9C0883879
:101C700009F4B8C0803909F45FC0803809F0C0C0E9
:101C80005BC0803B09F486C038F4803A09F466C032
:101C9000883A09F47FC0B4C0803C09F4A7C0883CEE
:101CA00009F4A4C0883B09F48AC0AAC08091040644
:101CB00010C09091260680912506981770F5E09146
:101CC000260681E08E0F80932606F0E0EB5FF94F49
:101CD00080818093BB0085EC86C0809327068EC0F0
:101CE000E091260681E08E0F809326068091BB004E
:101CF000F0E0EB5FF94F80839091260680912506F6
:101D00006EC0E091260681E08E0F809326068091BA
:101D1000BB00F0E0EB5FF94F8083809128068111D2
:101D20006DC081E08093030684EA61C083E0809304
:101D300029061092D905CFCF8091D905803208F0BD
:101D400051C0E091D90581E08E0F8093D905809133
:101D5000BB00F0E0E754FA4F8083BDCF85EC809361
:101D6000BC00109229068091D905803230F4E091B0
:101D7000D905F0E0E754FA4F10826091D90570E080
:101D8000E091F604F091F70489EB95E00995109243
:101D9000D90536C084E0809329061092B8051092C8
:101DA000B705E091F804F091F90409958091B70521
:101DB000811105C081E08093B70510929705E091ED
:101DC000B80581E08E0F8093B805F0E0E956FA4F30
:101DD00080818093BB009091B8058091B7059817DA
:101DE00008F479CF85E88093BC000AC085EC809325
:101DF000BC001092290604C0109227060E943B0ADC
:101E0000FF91EF91BF91AF919F918F917F916F91D2
:101E10005F914F913F912F910F900FBE0F901F90A8
:101E20001895CF92DF92EF92FF920F931F93CF936B
:101E3000DF9300D000D000D0CDB7DEB781E0809333
:101E40002A0688E680934C0610922B0610924D06C7
:101E500060E08BEE96E00E94C70A0E94711A8091A2
:101E600029068111FCCF81E0809329068093280602
:101E70009FEF909327061092260696E090932506F2
:101E80008093040680910406806D809304068091FF
:101E90000306813061F4109203068091040680935A
:101EA000BB008091BC0083FDF8CF85EC01C085EEBE
:101EB0008093BC00809129068130E1F38091260651
:101EC000873018F49091260601C097E0A5E0B6E0AF
:101ED000E7E7F5E080E0891721F02D9121938F5FEE
:101EE000FACF1092FB048093FA048BEE96E00E94E6
:101EF0007E0A8F77982F92959F701AEF082F919FE7
:101F0000000D11248BEE96E00E947E0A9C0133277F
:101F100094E0359527959A95E1F7F82E129FF00CED
:101F200011248BEE96E00E947E0A9C01332744E048
:101F3000359527954A95E1F7E82E129FE00C11247C
:101F40008BEE96E00E947E0A8BEE96E00E947E0A5F
:101F50009C01332754E0359527955A95E1F7D82E03
:101F6000129FD00C11248BEE96E00E947E0A9C01F9
:101F7000332764E0359527956A95E1F7C82E129FBF
:101F8000C00C11248BEE96E00E947E0A9C01332740
:101F900074E0359527957A95E1F7482F129F400D0B
:101FA0001124242F3C2D4D2D5E2D6F2D702F80E0A0
:101FB00090E026960FB6F894DEBF0FBECDBFDF913E
:101FC000CF911F910F91FF90EF90DF90CF900895E8
:101FD000FC01908190539A3008F090E08181805309
:101FE0002AE0929F800D112408951F920F920FB640
:101FF0000F9211242F933F934F935F936F937F938F
:102000008F939F93AF93BF93EF93FF93E09120053E
:10201000F09121050995FF91EF91BF91AF919F91AB
:102020008F917F916F915F914F913F912F910F9081
:102030000FBE0F901F901895CF92DF92FF920F93D3
:102040001F93CF93DF93182F062F6A01F22E0E9461
:10205000A80CE601CF0CD11CFF24F394CC15DD05B0
:1020600059F04991602F812F0E94150D602F812F0B
:102070000E94F60AF822F2CF602F812F0E94080CEE
:102080008F2DDF91CF911F910F91FF90DF90CF9017
:1020900008951F93CF93DF93C82FD62F142F0E943C
:1020A000A80C412F6D2F8C2F0E94150D6D2F8C2F9A
:1020B0000E94F60A182F6D2F8C2F0E94080C812F7A
:1020C000DF91CF911F9108958F929F92AF92BF920F
:1020D000DF92EF92FF920F931F93CF93DF9300D085
:1020E00000D01F92CDB7DEB77C015B018A01D22EF2
:1020F000FC018681420F511D282F30E0241735073F
:10210000A8F1CE0101964C0185E0F40111928A9567
:10211000E9F78D2D8770806C8983A801CE01029626
:102120000E94E72FF1E0FD15C0F0F7019485D11072
:102130000CC00230110548F02B81911102C080E0E3
:1021400001C080E8822B8B8308C02A81911102C0D4
:1021500080E001C080E8822B8A8321E0200FA40167
:10216000F701658184810E941C1028C0182F1D1959
:10217000412F50E02D2DC7010E946410F7016285A8
:10218000738580E090E00E941E1E0D5F011B11E030
:10219000F7014681041790F050E0B501610F711D01
:1021A00020E0C7010E946410F7016285738580E01A
:1021B00090E00E941E1E01501F5FEACF0F900F900B
:1021C0000F900F900F90DF91CF911F910F91FF9083
:1021D000EF90DF90BF90AF909F908F900895DC01BB
:1021E000862F653608F084E618968C9318976AE077
:1021F0000E94BA2D893008F088E08150883030F490
:10220000E82FF0E0EC50FC4F408101C040E815960B
:102210006C91159714968C910C9449100895CF9257
:10222000DF92EF92FF920F931F93CF93DF936C0196
:102230007A018B01C0E0D0E0CE15DF0581F0D80136
:102240006D918D01D601ED91FC910190F081E02D11
:10225000C6010995892B11F02196EECF7E01C701A9
:10226000DF91CF911F910F91FF90EF90DF90CF9072
:102270000895FC0177FD68C080859185681779070E
:102280000CF062C057FD60C08285938548175907DE
:102290000CF05AC08589823059F08330B1F081301A
:1022A000D1F48FE290E0861B970BBA01AC0113C00A
:1022B00083E590E0FC01E61BF70BBF018FE290E0A5
:1022C000FC01E41BF50BAF0106C083E590E0841B25
:1022D000950BAB01BC0164357105B0F54033510578
:1022E00098F5CA01E3E095958795EA95E1F747707F
:1022F0005527232BA1F024E5289FF001299FF00DFD
:1023000011246E0F7F1FFB01ED5EFE4F81E090E018
:1023100001C0880F4A95EAF79081892B14C024E503
:10232000289FF001299FF00D11246E0F7F1FFB01E4
:10233000ED5EFE4F81E090E001C0880F4A95EAF71C
:10234000809590818923808308950895FC016370AE
:10235000658B8481958126813781613039F06330C6
:1023600029F09187808733872287089531872087D6
:102370009387828708956F927F928F929F92AF92F8
:10238000BF92CF92DF92EF92FF920F931F93CF9362
:10239000DF93EC014B015A0169013801E881F981B1
:1023A0000284F385E02D0995E881F9810288F3899B
:1023B000E02D87019601A501B401CE010995A50183
:1023C000460D571D41505109E881F9810288F38972
:1023D000E02D9601B401CE010995E881F9810088CC
:1023E000F189E02D9301A501B401CE010995C80C36
:1023F000D91CB60161507109E881F9810088F18921
:10240000E02D9301A501CE010995E881F9810688A7
:10241000F789E02DCE01DF91CF911F910F91FF90B1
:10242000EF90DF90CF90BF90AF909F908F907F9074
:102430006F9009948F929F92AF92BF92CF92DF924A
:10244000EF92FF920F931F93CF93DF934C016B0199
:102450005A01E901DC01ED91FC916217730781F4E7
:102460000417150724F48B2D5801042F182F0A196F
:102470001B0998012F5F3F4F048CF58DE02D12C092
:102480004017510709F52617370724F48D2D6901E8
:10249000C62FD82F9E012C193D092F5F3F4F068C68
:1024A000F78DE02D8701A501B601C4010995DF91E3
:1024B000CF911F910F91FF90EF90DF90CF90BF9041
:1024C000AF909F908F9008950284F385E02D099539
:1024D000D401ED91FC910488F589E02D9E01A501C0
:1024E000B601C4010995D401ED91FC910688F789E4
:1024F000E02DC401DF91CF911F910F91FF90EF90DC
:10250000DF90CF90BF90AF909F908F900994EF9203
:10251000FF920F931F93DC011A960D911C911B974C
:1025200018962D913C911997ED91FC9100A0F1A185
:10253000E02D7B0140E050E060E070E009951F91E4
:102540000F91FF90EF9008954F925F926F927F925C
:102550008F929F92AF92BF92CF92DF92EF92FF92B3
:102560000F931F93CF93DF936C012B015A01390115
:102570004801DC01ED91FC910284F385E02D099581
:10258000E201640C751CD601ED91FC91C615D705CE
:102590005CF40088F189E02D87019401A501BE015A
:1025A000C60109952196EFCF0688F789E02DC6016F
:1025B000DF91CF911F910F91FF90EF90DF90CF901F
:1025C000BF90AF909F908F907F906F905F904F9053
:1025D00009948F929F92AF92BF92CF92DF92EF9227
:1025E000FF920F931F93CF93DF93EC015B014A019E
:1025F0006901E881F9810284F385E02D099595014F
:102600002C0D3D1D21503109E881F9810488F5899F
:10261000E02D78018401A401B501CE010995E8817E
:10262000F9810688F789E02DCE01DF91CF911F91C6
:102630000F91FF90EF90DF90CF90BF90AF909F9061
:102640008F9009948F929F92AF92BF92CF92DF9218
:10265000EF92FF920F931F93CF93DF93EC015B01F7
:102660004A0169017801E881F9810284F385E02D4E
:102670000995C80CD91C860101501109E881F9811E
:102680000488F589E02D9501A401B501CE010995D5
:10269000E881F9810688F789E02DCE01DF91CF919D
:1026A0001F910F91FF90EF90DF90CF90BF90AF9070
:1026B0009F908F9009940895EF92FF920F931F932C
:1026C000DC01ED91FC9100A0F1A1E02D09951F9195
:1026D0000F91FF90EF9008950F931F93DC01ED9100
:1026E000FC91068CF78DE02D09951F910F910895AF
:1026F0000F931F93DC01ED91FC91048CF58DE02D7F
:1027000009951F910F910895DC01ED91FC910084D2
:10271000F185E02D09942F923F924F925F926F9234
:102720007F928F929F92AF92BF92CF92DF92EF9261
:10273000FF920F931F93CF93DF9300D000D000D070
:10274000CDB7DEB72C017E836D836A015901C801C4
:10275000FC82EB824801841A950A97FE03C091948B
:102760008194910835012D813E81621A730A77FEAA
:1027700003C0719461947108681479045CF43A2D73
:102780002B2D5C01832F922F3D812E81DE82CD8205
:10279000C32ED22EAD81BE81AA16BB065CF43C2DA1
:1027A0002D2D6C01832F922F3D812E81BE82AD8213
:1027B000A32EB22E85012D813E81021B130B1C011D
:1027C0002C183D0837FE03C031942194310878015C
:1027D00017FF03C03FEFE31AF30AF594E794C81616
:1027E000D9062CF08FEF9FEF9A83898304C0A1E074
:1027F000B0E0BA83A9832D813E81A216B30624F1ED
:10280000D201ED91FC910484F585E02D2B813C8172
:102810006814790424F44D815E81B60103C0A601D9
:102820006D817E81C2010995E218F308F7FE06C0AA
:1028300029813A81C20ED31EE00EF11E8D819E8148
:1028400001969E838D83D7CF26960FB6F894DEBF70
:102850000FBECDBFDF91CF911F910F91FF90EF90F1
:10286000DF90CF90BF90AF909F908F907F906F90B0
:102870005F904F903F902F9008950E94E22F8EE43A
:1028800096E00E94321A21E0892B09F420E0822F81
:102890000895EF92FF920F931F93CF93DF93EC0174
:1028A000198218821B821A821D821C826115710591
:1028B000B9F17B01FB0101900020E9F731978F010D
:1028C000061B170BB8016F5F7F4F80E090E00E94FE
:1028D0001C2F009759F0998388831B830A832C81CE
:1028E0003D81232B81F4FC0110820DC088819981E8
:1028F000009711F00E94932E198218821D821C826B
:102900001B821A820DC01D830C83B70188819981B7
:10291000DF91CF911F910F91FF90EF900C94F02FCA
:10292000DF91CF911F910F91FF90EF9008951F922B
:102930000F920FB60F9211242F933F934F935F93F3
:102940006F937F938F939F93AF93BF93EF93FF9377
:10295000E0910201F09103010995FF91EF91BF9180
:10296000AF919F918F917F916F915F914F913F9127
:102970002F910F900FBE0F901F9018951F920F92DE
:102980000FB60F9211242F933F934F935F936F9342
:102990007F938F939F93AF93BF93EF93FF93E091B8
:1029A0000001F09101010995FF91EF91BF91AF9165
:1029B0009F918F917F916F915F914F913F912F9157
:1029C0000F900FBE0F901F90189590910D018913D5
:1029D00024C0E8E6F0E0E4919FEF90930D01E13030
:1029E000B9F098F0E230C9F4909170009D7F909317
:1029F000700091E09093B0009091B100987F946046
:102A00009093B1001092B30008C010926E0005C000
:102A100090916F009D7F90936F0060E00C941B1C61
:102A20001F920F920FB60F9211242F933F934F9343
:102A30005F936F937F938F939F93AF93BF93EF9326
:102A4000FF938091270590912805A0912905B091C9
:102A50002A05892B8A2B8B2B51F190912405E0912B
:102A60002505F0912605808189278083809127059F
:102A700090912805A0912905B0912A0518161906EC
:102A80001A061B06C4F48091270590912805A09191
:102A90002905B0912A050197A109B109809327055D
:102AA00090932805A0932905B0932A0504C080912E
:102AB0000D010E94E514FF91EF91BF91AF919F919D
:102AC0008F917F916F915F914F913F912F910F90D7
:102AD0000FBE0F901F9018951F920F920FB60F9276
:102AE00011242F933F934F935F936F937F938F9313
:102AF0009F93AF93BF93EF93FF938EE496E00E9472
:102B0000611BFF91EF91BF91AF919F918F917F9149
:102B10006F915F914F913F912F910F900FBE0F904A
:102B20001F9018951F920F920FB60F9211242F939A
:102B30008F939F93EF93FF93E0915E06F0915F0672
:102B40008081E0916406F091650682FD12C090815B
:102B5000809167068F5F8F7320916806821751F00E
:102B6000E0916706F0E0E25BF94F958F809367068E
:102B700001C08081FF91EF919F918F912F910F90D4
:102B80000FBE0F901F9018951F920F920FB60F92C5
:102B900011240F931F932F933F934F935F936F9342
:102BA0007F938F939F93AF93BF93EF93FF939091F6
:102BB00084008091FD04E82FF0E0E552FA4F908305
:102BC0008F5F8093FD04803208F418C190911E0538
:102BD00080911F05890F87708093FC0480E0E0914D
:102BE000FC0424E0E29FF0011124E250FB4F4081FD
:102BF000518162817381A82FB0E0A552BA4F9C9198
:102C0000490F511D611D711D408351836283738380
:102C1000E091FC0494E0E99FF0011124E250FB4FA5
:102C20004081518162817381E091FC0424E0E29F44
:102C3000F0011124E250FB4F008111812281338188
:102C40009AE0440F551F661F771F9A95D1F7400FE2
:102C5000511F621F731F4083518362837383E0910E
:102C6000FC0494E0E99FF0011124E250FB4F408105
:102C7000518162817381E091FC0424E0E29FF001C4
:102C80001124E250FB4F0081118122813381A6E0A3
:102C90007695679557954795AA95D1F7402751277F
:102CA0006227732740835183628373838F5F8032EF
:102CB00009F095CF8093DA05E091FC0484E0E89F69
:102CC000F0011124E250FB4F80819181A281B381F8
:102CD000E091FC0424E0E29FF0011124E250FB4F5C
:102CE000408151816281738123E0880F991FAA1F5F
:102CF000BB1F2A95D1F7840F951FA61FB71F80838E
:102D00009183A283B383E091FC0484E0E89FF00107
:102D10001124E250FB4F80819181A281B381E09127
:102D2000FC0424E0E29FF0011124E250FB4F4081BB
:102D30005181628173813BE0B695A7959795879500
:102D40003A95D1F784279527A627B72780839183C3
:102D5000A283B383E091FC0484E0E89FF001112496
:102D6000E250FB4F80819181A281B381E091FC040C
:102D700024E0E29FF0011124E250FB4F4081518199
:102D8000628173811FE0880F991FAA1FBB1F1A95CC
:102D9000D1F7840F951FA61FB71F80839183A2834D
:102DA000B383E091FC04A091FC0484E0A89FD001CF
:102DB0001124A250BB4F8D919D910D90BC91A02DDF
:102DC00024E0E29FF0011124E250FB4F80839183C5
:102DD000A283B3831092FD0480911F05883049F4CB
:102DE00080911E0590E001968770992780931E05BB
:102DF00005C080911F058F5F80931F05FF91EF91A4
:102E0000BF91AF919F918F917F916F915F914F9102
:102E10003F912F911F910F910F900FBE0F901F9018
:102E200018952F923F924F925F926F927F928F925E
:102E30009F92AF92BF92CF92DF92EF92FF920F9349
:102E40001F93CF93DF93CDB7DEB76B970FB6F89490
:102E5000DEBF0FBECDBF9B8F8A8F5B011A01D22EC2
:102E60001F830E833701C982DC0158962D913C9156
:102E700059972115310509F0E6C018968D919C915E
:102E80001997681779070CF0CDC11A968D919C910E
:102E90001B97481759070CF0C5C18C2C912CFB01CE
:102EA00026E0C29EE00DF11D1124FB87EA871E1665
:102EB0001F060CF0B7C1A40183E0440F551F8A958B
:102EC000E1F75D874C87CA01820D931D181619061C
:102ED0000CF0A8C157968C91811104C05FEA5D1572
:102EE00008F4D394AA8DBB8DED91FC9111970284C7
:102EF000F385E02DCD010995B5E0DB9EC0011124DD
:102F0000F5013596FF87EE87BB82AA8225019C01D9
:102F10002A193B09398B288BA101485F5F4F5B8BD6
:102F20004A8BE889F989E40DF51DE759FF4F549163
:102F3000588761013D822C82888580FF13C0AA8D4D
:102F4000BB8DED91FC91B981B13031F40484F585EC
:102F5000E02D2E813F8116C00684F785E02DEE809E
:102F6000FF801AC0EE81FF81E615F705F1F0AA8D0A
:102F7000BB8DED91FC91B981B13051F40484F5859C
:102F8000E02D9301A601B2018A8D9B8D09950DC09C
:102F90000684F785E02D7301840194014C815D81E5
:102FA0006A817B818A8D9B8D0995E885E695E88706
:102FB000FFEFCF1ADF0A2C813D81280D391D3D839B
:102FC0002C834A895B89C416D50609F0B5CF5FEF1B
:102FD000451A550A8A819B81880D991D9B838A8396
:102FE000AE85BF854A165B0609F09BCFEE81FF8157
:102FF000E615F70509F4F4C0EA8DFB8DA081B181D7
:10300000F981F13079F4B5016B5F7F4F5096ED9106
:10301000FC915197830128E030E0A1018A8D9B8DBE
:103020000995DEC06A857B85681979091E96ED9140
:10303000FC911F9773010C851D859401A1018A8D58
:103040009B8D0995CDC0F9013496E491DE1AF90102
:10305000329685919491B7E0DB9E800D911D1124ED
:10306000F901259134913B8B2A8BFC0125913491F8
:103070002901FC013296C490319634913E873296F4
:1030800014913196D4904981423058F0612E012E2E
:10309000000C77088D2D0D2C000C990B99878887D3
:1030A00004C019861886612C712CAA8DBB8DED91F8
:1030B000FC9111970284F385E02DCD010995B9812A
:1030C0008B2E912C689CC001699C900D789C900D72
:1030D0001124FC01EA0DFB1DFD87EC871A82712C7F
:1030E000612CE12F110FFF0B95012E0F3F1F3B8726
:1030F0002A87AC0CB11CA5014E0F5F1F5F8B4E8B56
:10310000C1018D0D911DD7FC9A95998F888F9E8551
:10311000691608F065C0862D90E048855985480FEE
:10312000591F489D9001499D300D589D300D112427
:10313000D101A20FB31FB98BA88BEC85FD85FD8350
:10314000EC83AA84BB84DA80FA85DF1A288D398D56
:10315000280F391F3D8B2C8B8D2D8A0D4E895F8951
:10316000A416B506C1F1877041F4C2010196EA893F
:10317000FB89E40DF51D74902C0177FE21C0AA8D0A
:10318000BB8DED91FC91B981B13061F40484F5857A
:10319000E02D2E813F814C895D89B5018A8D9B8D03
:1031A00009950EC00684F785E02DEE80FF8084012E
:1031B0009401488959896C817D818A8D9B8D0995FF
:1031C000770CEFEFAE1ABE0A2C813D81280D391D18
:1031D0003D832C83C1CF3A813C0D3A83639497CFD2
:1031E000AA8DBB8DED91FC9111970688F789E02D92
:1031F000CD016B960FB6F894DEBF0FBECDBFDF9149
:10320000CF911F910F91FF90EF90DF90CF90BF90E3
:10321000AF909F908F907F906F905F904F903F9076
:103220002F9009946B960FB6F894DEBF0FBECDBFFA
:10323000DF91CF911F910F91FF90EF90DF90CF9092
:10324000BF90AF909F908F907F906F905F904F90C6
:103250003F902F900895AF92BF92CF92EF92FF923E
:103260000F931F93CF93DF93EC01262F888D998DB9
:10327000009709F040C06A3059F41D861C862C89DD
:103280008E859F8538E0239F800D911D112441C0BC
:103290006D3009F4AAC08E898823C1F03C898C85E1
:1032A0009D8546E0349F800D911D112448855985E8
:1032B000481759075CF41D861C868E859F8548E05B
:1032C000349F800D911D11249F878E87EA88FB888B
:1032D000088919894E855F856C857D85CC88CE01EE
:1032E0000E9411172C898C859D8536E0239F800DC7
:1032F000911D112442C06A3079F41D861C862C89E8
:10330000FC013696E4918E859F852E9F800D911D40
:1033100011249F878E8769C06D3009F466C0FC0157
:1033200034963491631708F460C03196E491E6173F
:1033300008F45BC0FC01329665917491422F50E015
:10334000431B510937E0349F5001359FB00C1124C5
:10335000A60EB71EF501329634913196E4913323CF
:1033600011F0E1110DC0F5013496E4912C898C85A2
:103370009D85E29F800D911D11249D878C8735C00E
:10338000F501359644915E89552311F16C89E32F3F
:10339000F0E0E40FF11D47FDFA956E9FD0016F9F9D
:1033A000B00D11244C855D854A0F5B1FE885F985BA
:1033B000E417F5076CF41D861C86FC013696E49133
:1033C0008E859F856E9F800D911D11249F878E870E
:1033D000EA88FB88088919894E855F856C857D851B
:1033E000CC88CE010E941117BECF81E090E0DF9122
:1033F000CF911F910F91FF90EF90CF90BF90AF9022
:103400000895FC01538D448D252F30E0842F90E0EA
:10341000821B930B541710F0CF96089501970895CF
:10342000FC01918D828D981761F0828DDF01A80FCC
:10343000B11D5D968C91928D9F5F9F73928F90E0EE
:1034400008958FEF9FEF0895FC01918D828D98175D
:1034500031F0828DE80FF11D858D90E008958FEF9A
:103460009FEF0895FC01918D228D892F90E0805C63
:103470009F4F821B91098F739927089580E090E0F8
:10348000892B29F00E943F1481110C9400000895AB
:10349000833081F028F4813099F08230A1F00895D2
:1034A0008730A9F08830B9F08430D1F48091800061
:1034B0008F7D03C0809180008F7780938000089576
:1034C00084B58F7702C084B58F7D84BD08958091C7
:1034D000B0008F7703C08091B0008F7D8093B000E3
:1034E000089530914D06313208F04BC08091290685
:1034F0008111FCCF90914C0622E02093290621E017
:10350000209328062FEF209327061092260630934B
:103510002506ECE2F6E0A5E0B6E020E0321721F067
:1035200041914D932F5FFACF10920406209104062B
:10353000990F922B9093040690910306913061F4B9
:1035400010920306909104069093BB009091BC00EA
:1035500093FDF8CF95EC01C095EE9093BC0090914F
:1035600029069230E1F3909127069F3F79F08091F0
:103570002706803241F080912706803331F084E0C5
:1035800005C081E003C082E001C083E010922B06F9
:1035900010924D0610922A0608950F931F93CF9311
:1035A0008C0181E080932A0688E680934C06109275
:1035B0002B0610924D0660E08BEE96E00E94C70A43
:1035C000F8012581CAE0822F6C2F0E94BA2D682F46
:1035D000660F860F880F682F620F8BEE96E00E94B1
:1035E000C70AF8012481822F6C2F0E94BA2D682F00
:1035F000660F860F880F682F620F8BEE96E00E9491
:10360000C70AF8012381822F6C2F0E94BA2D682FE0
:10361000660F860F880F682F620F8BEE96E00E9470
:10362000C70A60E08BEE96E00E94C70AF80122818B
:10363000822F6C2F0E94BA2D682F660F860F880F7D
:10364000682F620F8BEE96E00E94C70AF801218175
:10365000822F6C2F0E94BA2D682F660F860F880F5D
:10366000682F620F8BEE96E00E94C70AF801208156
:10367000822F6C2F0E94BA2D682F660F860F880F3D
:10368000682F620F8BEE96E00E94C70A60E08BEE17
:1036900096E00E94C70ACF911F910F910C94711A66
:1036A00088EF91E0E3E1F1E0DF019C011D92215000
:1036B0003040E1F7E7EFF6E01586148617861686A8
:1036C0000895FC01848DDF01A80FB11DA35ABF4FDF
:1036D0002C91848D90E001968F739927848FA68911
:1036E000B7892C93A089B1898C91837080648C9365
:1036F000938D848D981306C00288F389E02D808114
:103700008F7D80830895EF92FF920F931F93CF9345
:10371000DF93EC0181E0888F9B8D8C8D981305C021
:10372000E889F989808185FD26C0F62E0B8D10E091
:103730000F5F1F4F0F731127E02E8C8DE8120CC006
:103740000FB607FCFACFE889F989808185FFF5CFAC
:10375000CE010E94611BF1CF8B8DFE01E80FF11DA0
:10376000E35AFF4FF0829FB7F8940B8FEA89FB89E9
:10377000808180620AC09FB7F894EE89FF896083D8
:10378000E889F98980818370806480839FBF81E0AC
:1037900090E0DF91CF911F910F91FF90EF900895EE
:1037A000CF93DF93EC01888D8823C9F0EA89FB89E8
:1037B000808185FD05C0A889B9898C9186FD0FC0DF
:1037C0000FB607FCF5CF808185FFF2CFA889B989B4
:1037D0008C9185FFEDCFCE010E94611BE7CFDF9179
:1037E000CF910895CF93DF93282F30E0F901E15571
:1037F000FA4F8491F901E556FA4FD491F901E9574E
:10380000FA4FC491CC2391F081110E94481AEC2FF9
:10381000F0E0EE0FFF1FE358FA4FA591B491EC9141
:10382000ED2381E090E021F480E002C080E090E0B0
:10383000DF91CF9108951F93CF93DF93282F30E02E
:10384000F901E155FA4F8491F901E556FA4FD49107
:10385000F901E957FA4FC491CC23C1F0162F811119
:103860000E94481AEC2FF0E0EE0FFF1FED58FA4FC0
:10387000A591B4919FB7F894111104C08C91D09583
:10388000D82302C0EC91DE2BDC939FBFDF91CF9158
:103890001F910895CF93C82F60E0809113070E9475
:1038A0001B1C8091150718161CF460E00E941B1C5D
:1038B0008C2F0E94A81F80911507181624F461E030
:1038C000CF910C941B1CCF910895EF92FF920F9310
:1038D0001F93CF93DF9303E111E0C0E08C2F80644E
:1038E0000E944A1C80E80E944A1C61E080911307F4
:1038F0000E941B1C8091150718161CF460E00E94A2
:103900001B1C7801D4E5F70181917F010E94A81F5B
:10391000D150C9F78091150718161CF461E00E9478
:103920001B1CCF5F0C5A1F4FC630C1F680E4DF91DD
:10393000CF911F910F91FF90EF900C944A1C2F9202
:103940003F924F925F926F927F928F929F92AF922F
:10395000BF92CF92EF92FF920F931F93CF93DF937B
:1039600000D0CDB7DEB73C011B012A018DB79EB751
:103970009A838983F301A480B5808A199B090FB6C5
:10398000F8949EBF0FBE8DBFEDB7FEB731964F01C5
:10399000A114B10481F1C50101978A159B0508F4B2
:1039A0005C01F30160817181A501C4010E94F72FC0
:1039B000F401EA0DFB1D108251011401F301248171
:1039C0003581C1018819990982179307A0F4F10183
:1039D00021911F01CC24C394EE24E394F12C00E048
:1039E00010E0A201B50187EF96E00E941117F6E002
:1039F000AF0EB11CE3CF0E94651C89819A810FB67E
:103A0000F8949EBF0FBE8DBF0F900F90DF91CF91A6
:103A10001F910F91FF90EF90CF90BF90AF909F902C
:103A20008F907F906F905F904F903F902F90089570
:103A30006F927F928F929F92AF92BF92CF92DF92BE
:103A4000EF92FF920F931F93CF93DF936C013B0193
:103A5000C1E0452B09F0C0E0C195D0E0C601049655
:103A60005C0108974C017E0192E06916710450F5E3
:103A700008E110E0960140E150E0B60187EF96E0E2
:103A80000E948B13672871F404E110E0950140E176
:103A900050E0B60187EF96E00E948B13940140E15D
:103AA00050E00EC07E0104E110E0950148E150E0D5
:103AB000B60187EF96E00E948B13940148E150E035
:103AC000B60130C004E110E0950144E150E0B401DA
:103AD00087EF96E00E948B1382E06816710489F4E8
:103AE00000E110E0960144E150E0B40187EF96E078
:103AF0000E948B1308E110E0960144E150E0B4010C
:103B000011C07E0108E110E0960144E150E0B501EA
:103B100087EF96E00E948B1300E110E0960144E1EC
:103B200050E0B50187EF96E00E948B13DF91CF91B3
:103B30001F910F91FF90EF90DF90CF90BF90AF90CB
:103B40009F908F907F906F900C94651CCF93DF9324
:103B500090E0FC01E556FA4F2491FC01E957FA4F39
:103B60008491882361F190E0880F991FFC01E75947
:103B7000FA4FC591D491FC01ED58FA4FA591B4913B
:103B8000611109C09FB7F8948881209582238883AA
:103B9000EC912E230BC0623061F49FB7F8948881BA
:103BA000322F309583238883EC912E2B2C939FBF4B
:103BB00006C08FB7F894E8812E2B28838FBFDF9142
:103BC000CF9108958E3008F08E5087708064809376
:103BD0007C0080917A00806480937A0080917A00E2
:103BE00086FDFCCF809178002091790090E0922BA7
:103BF00008953FB7F8948091FF0590910006A09139
:103C00000106B091020626B5A89B05C02F3F19F00A
:103C10000196A11DB11D3FBFBA2FA92F982F88274C
:103C2000820F911DA11DB11DBC01CD0142E0660FA7
:103C3000771F881F991F4A95D1F708958F929F92F9
:103C4000AF92BF92CF92DF92EF92FF926B017C0115
:103C50000E94F91D4B015C01C114D104E104F1047F
:103C6000F1F00E94F91DDC01CB0188199909AA091C
:103C7000BB09883E9340A105B10570F321E0C21A4B
:103C8000D108E108F10888EE880E83E0981EA11C97
:103C9000B11CC114D104E104F10419F7DDCFFF9088
:103CA000EF90DF90CF90BF90AF909F908F9008954E
:103CB0002FB7F8946091FB057091FC058091FD058C
:103CC0009091FE052FBF0895009769F0FC010190C7
:103CD0000020E9F73197AF01481B590BBC0187EF72
:103CE00096E00C940F1180E090E00895CF93DF935D
:103CF00000D0CDB7DEB7FC01842F806C89836A8346
:103D0000413041F48485811102C090E001C090E807
:103D1000962B9A8322E0AE014F5F5F4F65818481CD
:103D20000E941C100F900F90DF91CF9108950F9378
:103D30001F93CF93DF9300D000D0CDB7DEB7582FBD
:103D4000262F042F11E080919007811101C010E00F
:103D500081E080939007852F6AE00E94BA2D8A3017
:103D600030F4E82FF0E0ED52FA4FE49101C0E0E0CA
:103D7000E9833AE0852F632F0E94BA2DE92FF0E006
:103D8000ED52FA4FE491EA83822F0E94BA2D8A30D5
:103D900030F4E82FF0E0ED52FA4FE49101C0E0E09A
:103DA000EB83822F6AE00E94BA2DE92FF0E0ED52FA
:103DB000FA4FE491EC8320E044E050E0BE016F5FF5
:103DC0007F4F84E897E00E946410002321F081E097
:103DD0008093900702C01092900741E06A8184E8C6
:103DE00097E00E94761E109390070F900F900F900F
:103DF0000F90DF91CF911F910F910895AF92BF92D5
:103E0000CF92DF92EF92FF920F931F93CF93DF93A6
:103E100000D0CDB7DEB769834A83880F991F009120
:103E2000820710918307000F111FECE2F7E09F015A
:103E30002C5237402017310714F41192F8CF298102
:103E4000FC01E45DF84F21838A81808360E08091EA
:103E500080070E941B1C1016110634F50150110931
:103E6000F801E45DF84FC080B0907E07A0907C0719
:103E700087E0E82EF12CD12CB6010E2C02C07595EE
:103E800067950A94E2F761708A2D0E941B1C61E01D
:103E90008B2D0E941B1C60E08B2D0E941B1C81E05F
:103EA000E81AF10848F7D7CF61E0809180070F90BA
:103EB0000F90DF91CF911F910F91FF90EF90DF90C6
:103EC000CF90BF90AF900C941B1C0C94641E8F92EB
:103ED0009F92AF92BF920F931F93CF93DF93CDB773
:103EE000DEB7A1970FB6F894DEBF0FBECDBF19A203
:103EF000423008F44AE08E010F5D1F4F842E912C52
:103F0000A12CB12CA50194010E94532DE62FB901DB
:103F1000CA0101501109EA3014F4E05D01C0E95C06
:103F2000D801EC93232B242B252B61F7C8010E9489
:103F3000641EA1960FB6F894DEBF0FBECDBFDF9111
:103F4000CF911F910F91BF90AF909F908F90089548
:103F5000909111079F3F21F4909112079F3F59F1D3
:103F600028E030E040E8E0911807F091190750810F
:103F700090911B07909595239083E0911607F091FF
:103F8000170790911A07582F542319F05081952B39
:103F900003C05081909595239083E0911807F0918C
:103FA0001907508190911B07952B908346952150BE
:103FB0003109C9F608958EBD00000DB407FEFDCF8E
:103FC0008EB508951F920F920FB60F9211242F9362
:103FD0003F938F939F93AF93BF938091FB059091F5
:103FE000FC05A091FD05B091FE053091950723E0F9
:103FF000230F2D3720F40196A11DB11D05C026E821
:10400000230F0296A11DB11D209395078093FB05F8
:104010009093FC05A093FD05B093FE058091FF05EC
:1040200090910006A0910106B09102060196A11D93
:10403000B11D8093FF0590930006A0930106B093F5
:104040000206BF91AF919F918F913F912F910F9059
:104050000FBE0F901F901895CF93DF93CDB7DEB7AB
:1040600068970FB6F894DEBF0FBECDBF789484B5C5
:10407000826084BD84B5816084BD85B5826085BD64
:1040800085B5816085BD80916E00816080936E00F2
:1040900010928100809181008260809381008091E4
:1040A0008100816080938100809180008160809395
:1040B00080008091B10084608093B1008091B00055
:1040C00081608093B00080917A00846080937A0050
:1040D00080917A00826080937A0080917A0081607A
:1040E00080937A0080917A00806880937A001092A1
:1040F000C10062E080E00E94A61D62E082E00E94B2
:10410000A61D62E081E00E94A61D60E083E00E949F
:10411000A61D84E080938A0711E010938B07198213
:104120001A821B821C8220E044E050E0BE016F5FD7
:104130007F4F84E897E00E94641010928D0764E638
:1041400084E897E00E94EF1080E180938100109254
:10415000800084E294EF909387008093860083E14F
:104160008093810085E996E0909321058093200556
:1041700010936F001092FB041092FA0410922B0619
:1041800010924D06109229061093280610920306ED
:1041900061E082E10E941B1C61E083E10E941B1C24
:1041A0008091B9008E7F8093B9008091B9008D7F96
:1041B0008093B90088E48093B80085E48093BC00C4
:1041C0008DE69AE09093F9048093F8048EE69AE0E5
:1041D0009093F7048093F60489E894E00E94E80F36
:1041E00089838BE08A8384E894E00E94E80F8B83C4
:1041F0008CE894E00E94E80F8C838FE894E00E94A2
:10420000E80F8D8382E994E00E94E80F8E83CE014F
:1042100001960E94CD1A0E94110F20931C07309323
:104220001D0740931E0750931F076093200770934C
:10423000210780E197E09093010180930001809134
:1042400069008C7F816080936900E89A0E94100762
:1042500080918207909183071816190634F441E083
:104260006CE080E090E00E94FE1E809182079091B9
:1042700083071816190634F440E06AE080E090E005
:104280000E94FE1E809111078F3F29F49091120722
:104290009F3F09F471C161E00E94A61D61E0809119
:1042A00012070E94A61D80911207082E000C990B80
:1042B000FC01E957FA4FE491F0E0EE0FFF1FED58D3
:1042C000FA4F259134913093190720931807FC0178
:1042D000E556FA4FE491E0931B0780911107082EF1
:1042E000000C990BFC01E957FA4FE491F0E0EE0F56
:1042F000FF1FED58FA4F2591349130931707209303
:104300001607FC01E556FA4FE491E0931A0761E0C5
:10431000809113070E94A61D8091140718161CF4A3
:1043200061E00E94A61D8091150718161CF461E03B
:104330000E94A61D80911407181674F460E00E9474
:104340001B1C64EF71E080E090E00E941E1E61E0A3
:10435000809114070E941B1C81E20E944A1C84E188
:104360000E944A1C88EA0E944A1C80E20E944A1C61
:104370008CE00E944A1C0E94651C0E94501B81E236
:104380000E944A1C8EE90E944A1C80E20E944A1C3C
:104390008FEF9FEF909308078093070710920A070B
:1043A000109209070E94651C0E94C3070E946D07B6
:1043B0001092FD0410921E051092FC0410921F052D
:1043C000F89414BE8091600088618093600080E45E
:1043D00080936000789480911F058823E1F32FB7C4
:1043E000F894E0911E0534E0E39FF0011124E250BF
:1043F000FB4F80819181A281B3818093410590938D
:104400004205A0934305B093440580911E0590E0BA
:1044100001968770992780931E0580911F05815012
:1044200080931F052FBF60914105709142058091D7
:10443000430590914405611571058105910511F0C1
:104440000E94E62B60ED77E080E090E00E941E1E67
:104450008091150390911603A09117038E8B9F8B6B
:10446000A88F0E94110F7B8B20931C0730931D0790
:1044700040931E0750931F076093200770932107F6
:104480000E94581E2B013C012E893F89488D2F83A5
:1044900038874987AE01495F5F4F5D874C874AE0A7
:1044A000C42E41E0D42E07E011E089E495E09B871B
:1044B0008A87E12CF12CEC85FD858191FD87EC87C5
:1044C0000E94F21B382EF6018081381651F00E94AE
:1044D000581EEA85FB856083718382839383F6018E
:1044E0003082EA85FB8581909190A190B190FB8705
:1044F000EA870E94581EF9E18F0E911CA11CB11C85
:1045000086169706A806B90680F4F801808138124D
:1045100073C00BC082E0E816F10409F474C061E0D6
:10452000832D0E94F208F8013082FFEFEF1AFF0A94
:104530002FEFC21AD20A0F5F1F4F33E0E316F104C8
:1045400009F0B9CF209136058091100190911101A9
:10455000222309F4FEC08130910509F0FAC03091A0
:104560001F07209134053213F4C0309120072091A9
:1045700035053213EEC000C51FB7F89480913C0595
:10458000811127C0E1E9F5E08491E5EAF5E0949135
:10459000E82FF0E0EE0FFF1FE759FA4FA591B49115
:1045A000EC91E92321F461E08AE00E941B1C61E0A8
:1045B0008AE00E94A61D8CB580618CBD8CB580649C
:1045C0008CBD61E08DE00E94A61D61E08BE00E9441
:1045D000A61D80913C058F5F80933C051FBF8CB565
:1045E0008C7F8CBD8DB58E7F8DBD8CB5837F8CBD52
:1045F0008CB58F7D8CBD8BCE51E0E516F10409F0B2
:1046000089CF6FEF8DCFF1E03F120BC00E94581E93
:104610006093450570934605809347059093480540
:1046200082CF8090450590904605A0904705B090B8
:10463000480528EE820E23E0921EA11CB11C0E94A8
:10464000581E209110013091110186169706A80678
:10465000B906E8F42130310509F065CF80911F07D4
:1046600080932205809120078093230580911C0769
:104670008093040180911D078093050180911E079E
:1046800080930601F0921101E09210015FC0203189
:10469000310509F455C0ACF42230310521F13CF468
:1046A0002130310509F052C088E090E024C0243068
:1046B0003105E1F02830310509F048C020E130E053
:1046C0003AC020343105A9F034F420323105F1F537
:1046D00040E450E037C02038310591F021153140D9
:1046E00009F421CF33C0E4E0F0E020C020E230E064
:1046F00022C080E890E0909311018093100126C0C1
:1047000080912305909122052091060130910501A9
:104710004091040149833A832B839C838D831E82BD
:10472000CE0101960E94CD1AE1E0F0E0F093110174
:10473000E09310010BC0309311012093100106C0CB
:1047400041E050E05093110140931001109212018A
:10475000EACE20913605211108C020916905222357
:1047600021F08115914009F4FFC4809110019091CE
:1047700011018115914009F03AC3809168058111BA
:10478000C2C100916A0510E0F801E05CFC4F608155
:1047900070E088EE93E00E94C62D1B01798B688B38
:1047A000072E000C880B990B0E94F12B26E636E6AB
:1047B00046EA5FE30E942C2C0E94842DAB01421933
:1047C00053095D8B4C8B000F111FF801E85EFC4F05
:1047D000808191819B878A87892B09F487C1809189
:1047E0000D01863021F08F3F09F080C104C0E8E65A
:1047F000F0E014916FC086E080930D01E8E6F0E0F0
:1048000014911F3F09F472C1113009F440C030F116
:10481000123009F05FC01092B0001092B100809188
:10482000B00082608093B0008091B100816080937D
:10483000B100EDE8F5E0E491F0E0EE0FFF1FED5878
:10484000FA4F859194919093260580932505E1EA8E
:10485000F5E0E491E093240512E04CC514BC15BCCE
:1048600084B5826084BD85B5816085BDEDE8F5E0E5
:10487000E491F0E0EE0FFF1FED58FA4F859194910F
:10488000E1EAF5E0E491E093560510E033C51092BB
:104890008000109281008091810088608093810067
:1048A00080918100816080938100EDE8F5E0E491E2
:1048B000F0E0EE0FFF1FED58FA4F85919491E1EA79
:1048C000F5E0E491E093550561E086E00E94A61DC5
:1048D00011E087C017FD0AC161E086E00E94A61DB5
:1048E000812F8D7F09F07DC0EA85FB854F01A12CCA
:1048F000B12C60E072E18AE790E0A50194010E948A
:10490000EA2C2C873D874E875F87DA01C901019722
:10491000A109B1098F3F9105A105B10509F00CF47A
:104920004CC060E472E48FE090E0A50194010E9425
:10493000EA2C69017A01F1E0CF1AD108E108F10807
:10494000123009F52FEFC216D104E104F10409F089
:104950000CF497C460E970ED83E090E0A501940148
:104960000E94EA2C69017A0181E0C81AD108E108A5
:10497000F1089FEFC916D104E104F10411F00CF025
:104980000DC483E027C0AFEFCA16D104E104F104DF
:10499000C1F0BCF068E478EE81E090E0A5019401FC
:1049A0000E94EA2C69017A01E1E0CE1AD108E108FF
:1049B000F108112309F467C430C46C017D0181E062
:1049C00001C082E0111106C095B5987F892B85BD85
:1049D00043C085E09091B100987F892B8093B1000E
:1049E0003BC0EA85FB854F01A12CB12C60E072E150
:1049F0008AE790E0A50194010E94EA2C69017A01FE
:104A0000F1E0CF1AD108E108F108C114D10421E086
:104A1000E206F1048CF068E478EE81E090E0A50114
:104A200094010E94EA2C69017A0181E0C81AD10838
:104A3000E108F10883E001C081E0113069F4909150
:104A40008100987F892B809381002114310439F4EF
:104A50002FEF3FEFA90129C02114310471F02A85FD
:104A60003B85220F331FD1010E94DA2D28EE33E05F
:104A700040E050E00E94532D03C02FEF3FEFA9010B
:104A8000113099F0123019F1111130C0C7BC2093C8
:104A90005B0530935C0540935D0550935E05809106
:104AA0006E00826080936E0021C0D0928900C09217
:104AB000880020935705309358054093590550932B
:104AC0005A0580916F00826080936F000FC0C09282
:104AD000B300209327053093280540932905509370
:104AE0002A05809170008260809370000E94581E99
:104AF00060936405709365058093660590936705E0
:104B000081E080936805C0906405D0906505E090D1
:104B10006605F0906705E889F989CF01FF0FAA0BB8
:104B2000BB0BC80ED91EEA1EFB1E0E94581E6C1538
:104B30007D058E059F05E8F186E00E94E51461E0A1
:104B400086E00E941B1C8091630581110DC00E94AC
:104B5000581E60935F057093600580936105909384
:104B6000620581E080936305C0905F05D090600589
:104B7000E0906105F09062052C893D89C901330FF1
:104B8000AA0BBB0BC80ED91EEA1EFB1E0E94581EA4
:104B90006C157D058E059F0560F080916A058F5F1D
:104BA00064E10E94BA2D90936A05109268051092F4
:104BB00063058091690581111AC180910F018823D5
:104BC00009F476C0E0912F05F0E0E55DFA4F8081B1
:104BD000823019F580E10E94E21D489774F50E9429
:104BE000581E609330057093310580933205909381
:104BF000330583E080930E0183E090E00E94720809
:104C00000E94E10880912F058F5F80932F058430EB
:104C100010F40E94A40910920F01E0912F05F0E01A
:104C2000E55DFA4F8081833041F480E10E94E21D0E
:104C3000893E934074F10E941C0AE0912F05F0E038
:104C4000E55DFA4F8081811124C08FE00E94E21D52
:104C5000893E93406CF10E94581E6093300570931A
:104C60003105809332059093330583E080930E01E4
:104C700083E090E00E9472080E94E10880912F0575
:104C80008F5F80932F05843010F40E94A409109246
:104C90000F01E0912F05F0E0E55DFA4F8081813052
:104CA00039F48FE00E94E21D489714F40E941C0A18
:104CB00080E10E94E21D883592409CF480E10E94D0
:104CC000E21D813991406CF08FE00E94E21D883531
:104CD00092403CF48FE00E94E21D813991400CF03B
:104CE00059C280912F05882359F190910E0191119D
:104CF00027C0815080932F050E94A40980912F0521
:104D0000E82FF0E0E55DFA4F608170E02FE0829FD0
:104D1000C001112440E050E00C960E94181D0E9432
:104D2000581E60933005709331058093320590933F
:104D3000330583E080930E0183E090E00E947208C7
:104D400010912F0580916905143000F181111EC06A
:104D500080E090E00E9472080E94501B60EA74E0BC
:104D6000CE0101960E94491441E150E06BE070E0F1
:104D7000CE0101960E949F1C89819A810E94932EE8
:104D800081E08093690531E03A8B31C0882319F0C6
:104D90004A8941112CC00E94581EC0903005D09005
:104DA0003105E0903205F0903305DC01CB018C1920
:104DB0009D09AE09BF09893C9105A105B105B0F077
:104DC00080910E01882341F0112331F081508093AE
:104DD0000E0190E00E9472080E94581E60933005F8
:104DE0007093310580933205909333051A8A809130
:104DF000710590917205A0917305B09174058C5066
:104E00009E4FAF4FBF4F84159505A605B705F4F526
:104E1000C090120152E05C15C8F1D0906B0588E09B
:104E2000D89E800111240C5A1C4F6CE2E62E67E0DC
:104E3000F62EBB24B39480918207909183071816B5
:104E400019064CF4F8014081F701408B6B2D80E08E
:104E500090E00E94FE1E0F5F1F4FFFEFEF1AFF0A48
:104E6000B39429E0B212E7CF81E08D0D8370809377
:104E70006B05811103C0C394C09212014092710569
:104E80005092720560927305709274058091380596
:104E900090913905A0913A05B0913B0588519C4FFE
:104EA000AF4FBF4F84159505A605B70510F41092B6
:104EB000370580916D0590916E05A0916F05B091B9
:104EC000700588519C4FAF4FBF4F84159505A605BF
:104ED000B7050CF040C081E10E94E21D8C01809179
:104EE00082079091830718161906A4F42FE030E08A
:104EF000D8010E94DA2D2FEF33E040E050E00E940D
:104F0000EA2C2031310530F4422F6AE080E090E055
:104F10000E94FE1E2AE530E0D8010E94DA2D2FEF14
:104F200033E040E050E00E94EA2CCA01B901665F1C
:104F30007F4F8F4F9F4F84E897E00E94EF10409281
:104F40006D0550926E0560926F05709270053B89F9
:104F5000311110926C0580916C0581110AC04B894A
:104F6000411107C00E94C3070E946D0781E0809332
:104F70006C050E943E1A75CA80E091E09093110181
:104F80008093100110926A051092120110922F0561
:104F900081E080930F01109269050E94501B00E090
:104FA00010E06AE070E0C8010E946A0869E070E001
:104FB000C8010E946A080F5F1F4F0435110589F769
:104FC00000E010E06FE270E0C8010E946A086EE243
:104FD00070E0C8010E946A080F5F1F4F0435110579
:104FE00089F70AE010E0B80180E090E00E946A08CA
:104FF000B80181E090E00E946A080F5F1F4F003304
:10500000110589F70AE010E0B80183E590E00E94FD
:105010006A08B80182E590E00E946A080F5F1F4F9E
:105020000033110589F70E94651C2BE2C22E25E092
:10503000D22E3FE2E32E35E0F32E86010E94982B1C
:1050400024E030E040E050E00E94EA2CF801619357
:105050008F01EE16FF0691F70CE010E07601F601E5
:105060008081811107C040E050E060E070E0C8013D
:105070000E94181DF6018081813039F440E050E033
:1050800061E070E0C8010E94181DF6018081823045
:1050900039F440E050E062E070E0C8010E94181D61
:1050A000FFEFCF1ADF0AF7018081833039F440E047
:1050B00050E063E070E0C8010E94181D015F1F4FBF
:1050C0000834110559F6EE24E394F12C09E010E0C0
:1050D00023E530E040E050E060E070E087EF96E0EC
:1050E0000E94BB1123E530E040E050E060E070E05A
:1050F00087EF96E00E94A41265E974E0CE01019664
:105100000E94491442E050E062E070E0CE01019656
:105110000E949F1C89819A810E94932E22E330E095
:1051200046E250E060E070E087EF96E00E94BB113D
:1051300022E330E046E250E060E070E087EF96E086
:105140000E94A4120E94A4090E94581E6093300578
:1051500070933105809332059093330580910E0151
:1051600090E00E94720801CB86E00E94E51461E0A5
:1051700086E00E941B1CE1E0F0E0F0931101E09357
:1051800010010E94501B0E94C3070E946D070E94DD
:10519000651CEBCA81E080930F01A3CD68E478EE33
:1051A00081E090E0A50194010E94EA2C69017A0156
:1051B000F1E0CF1AD108E108F1082FEFC216D104AF
:1051C000E104F10441F13CF164E274EF80E090E02D
:1051D000A50194010E94EA2C69017A01F1E0CF1A3D
:1051E000D108E108F1082FEFC216D104E104F1045F
:1051F00009F008F4EECB62E17AE780E090E0A501E7
:1052000094010E94EA2C69017A0181E0C81AD10850
:10521000E108F10819C084E0DDCBFFEFCF16D1041F
:10522000E104F10409F008F463C062E17AE780E088
:1052300090E0A50194010E94EA2C69017A01E1E065
:10524000CE1AD108E108F1085FEFC516D104E104D8
:10525000F104A9F0A0F08C859D85AE85BF852AE07C
:10526000B595A795979587952A95D1F76C017D01FE
:1052700041E0C41AD108E108F10887E0ABCB86E031
:10528000A9CB82E0A7CBAFEFCA16D104E104F104A9
:1052900069F160F162E17AE780E090E0A5019401B4
:1052A0000E94EA2C69017A0181E0C81AD108E1085C
:1052B000F1089FEFC916D104E104F104A9F0A0F0B0
:1052C0008C859D85AE85BF853AE0B595A795979568
:1052D00087953A95D1F76C017D0131E0C31AD10869
:1052E000E108F10885E070CB84E06ECB83E06CCB05
:1052F00084E068CB61E086E00E94A61DF5CACF92EB
:10530000DF92EF92FF921F93CF93DF93109251069B
:105310001092500688EE93E0A0E0B0E08093520631
:1053200090935306A0935406B093550620E034E0C2
:1053300030934F0620934E0625EC30E030935B0609
:1053400020935A0624EC30E030935D0620935C06EF
:1053500020EC30E030935F0620935E0621EC30E0D5
:10536000309361062093600622EC30E030936306B0
:105370002093620626EC30E03093650620936406A5
:1053800010926706109268061092690610926A06DB
:105390001092EE061092ED068093EF069093F006C1
:1053A000A093F106B093F20682E194E09093EC06AC
:1053B0008093EB06109287071092860788E794E0A7
:1053C000909385078093840784E08093880785E025
:1053D00080938907549A559A5C9A9BB181E0829593
:1053E000880F807E892B8BB910928D078CE291E01B
:1053F00090938F0780938E071092900764E684E85D
:1054000097E00E94EF1040E460918907809188073F
:105410000E94491088E794E0909385078093840761
:10542000C7E0D0E0D0937D07C0937C0789E090E08F
:1054300090937F0780937E0788E090E090938107A8
:105440008093800781E090E09093830780938207A8
:1054500061E087E00E94A61D61E080917E070E94C6
:10546000A61D61E0809180070E94A61D61E08091E9
:1054700080070E941B1CD0937D07C0937C07ECE340
:10548000F7E08CE797E011928E179F07E1F7E12C88
:10549000F12CC0E0D0E08091820790918307C8177B
:1054A000D9070CF042C040E06FE0CE010E94FE1E22
:1054B000D7FD0CC08091820790918307C817D90748
:1054C0002CF447E06BE0CE010E94FE1E40E069E054
:1054D000CE010E94FE1ED7FD23C0809182079091CD
:1054E0008307C817D90784F4C701845C984F6C01FF
:1054F00011E0F60111926F0140E0612FCE010E9490
:10550000FE1E1F5F1930A9F78091820790918307D3
:10551000C817D9072CF440E06CE0CE010E94FE1EB3
:105520002196F8E0EF0EF11CB6CF80E594E0909361
:1055300023078093220780E49BE4ACE4B0E08093EF
:10554000240790932507A0932607B09327078FEF92
:105550009FEF909329078093280780932A078093D1
:105560002B076EE070E082E297E00E941C0784E661
:1055700094E0909323078093220780E18093210792
:105580008CE18093200786E080931F0740E081E64E
:1055900097E9542F537021E009F020E061E0640F97
:1055A00030E0F901E359FE4F8E179F0730F0821B60
:1055B000930B8D569140462FECCF40931C0721E072
:1055C000E22FF0E0EE5DF94FE491511103C022307B
:1055D00009F4EF5FF0E031E0320F8E179F0720F003
:1055E0008E1B9F0B232FECCF20931D078F5F809383
:1055F0001E071092FA061092F90624E530E0309367
:10560000FC062093FB0680E390E09093FE068093D7
:10561000FD06309300072093FF06909302078093C6
:10562000010710920C0710920407109203071092C2
:1056300006071092050781E080930B072FEF3FEFDD
:1056400030930A0720930907309308072093070730
:1056500080930D0710920E071092100710920F07FB
:1056600084E294E09093F8068093F7068CE08093B0
:1056700011078DE0809312078BE0809313078AE077
:10568000809314078FEF80931507DF91CF911F91BF
:10569000FF90EF90DF90CF9008958F929F92AF92FE
:1056A000BF92CF92DF92EF92FF92CF93DF93EC0104
:1056B000688179818A819B816115710581059105D8
:1056C00021F464E279ED8BE597E02DE133EF41E0E1
:1056D00050E00E94EA2C49015A019B01AC01A7EA63
:1056E000B1E40E94092D6B017C01ACEEB4EFA50181
:1056F00094010E94172DDC01CB018C0D9D1DAE1D68
:10570000BF1DB7FF03C00197A109B04888839983E3
:10571000AA83BB83BC01CD019F77DF91CF91FF901E
:10572000EF90DF90CF90BF90AF909F908F900895B3
:105730008F929F92AF92BF92CF92DF92EF92FF92A1
:1057400060910B0370910C0380910D0390910E03F7
:10575000611571058105910521F464E279ED8BE510
:1057600097E02DE133EF41E050E00E94EA2C49013F
:105770005A019B01AC01A7EAB1E40E94092D6B011B
:105780007C01ACEEB4EFA50194010E94172DDC0161
:10579000CB018C0D9D1DAE1DBF1DB7FF03C0019732
:1057A000A109B04880930B0390930C03A0930D03C1
:1057B000B0930E03BC01CD019F77FF90EF90DF9077
:1057C000CF90BF90AF909F908F90089560930B0300
:1057D00070930C0380930D0390930E030895E89447
:1057E00009C097FB3EF490958095709561957F4F29
:1057F0008F4F9F4F9923A9F0F92F96E9BB279395D7
:10580000F695879577956795B795F111F8CFFAF4E6
:10581000BB0F11F460FF1BC06F5F7F4F8F4F9F4F17
:1058200016C0882311F096E911C0772321F09EE875
:10583000872F762F05C0662371F096E8862F70E0DB
:1058400060E02AF09A95660F771F881FDAF7880FB5
:105850009695879597F908950E943F2C0C94B02C4B
:105860000E94A22C38F00E94A92C20F0952311F060
:105870000C94992C0C949F2C11240C94E42C0E94D1
:10588000C12C70F3959FC1F3950F50E0551F629F97
:10589000F001729FBB27F00DB11D639FAA27F00D89
:1058A000B11DAA1F649F6627B00DA11D661F829FB0
:1058B0002227B00DA11D621F739FB00DA11D621F95
:1058C000839FA00D611D221F749F3327A00D611DB2
:1058D000231F849F600D211D822F762F6A2F112494
:1058E0009F5750409AF0F1F088234AF0EE0FFF1FC7
:1058F000BB1F661F771F881F91505040A9F79E3F1E
:10590000510580F00C94992C0C94E42C5F3FE4F347
:10591000983ED4F3869577956795B795F795E79573
:105920009F5FC1F7FE2B880F911D9695879597F97C
:10593000089597F99F6780E870E060E008959FEF11
:1059400080EC089500240A94161617061806090616
:10595000089500240A9412161306140605060895E5
:10596000092E0394000C11F4882352F0BB0F40F46D
:10597000BF2B11F460FF04C06F5F7F4F8F4F9F4FAD
:10598000089557FD9058440F551F59F05F3F71F02F
:105990004795880F97FB991F61F09F3F79F0879596
:1059A0000895121613061406551FF2CF4695F1DF1F
:1059B00008C0161617061806991FF1CF86957105AF
:1059C000610508940895E894BB2766277727CB01E3
:1059D00097F90895052E97FB1EF400940E94012D5F
:1059E00057FD07D00E94532D07FC03D04EF40C94B2
:1059F000012D50954095309521953F4F4F4F5F4F6A
:105A0000089590958095709561957F4F8F4F9F4F2A
:105A100008950E94752DA59F900DB49F900DA49F91
:105A2000800D911D11240895B7FF0C94092D0E943B
:105A3000092D821B930B08952F923F924F925F92F4
:105A40006F927F928F929F92AF92BF92CF92DF928E
:105A5000EF92FF920F931F93CF93DF93CDB7DEB7F3
:105A6000CA1BDB0B0FB6F894DEBF0FBECDBF099487
:105A70002A88398848885F846E847D848C849B84DE
:105A8000AA84B984C884DF80EE80FD800C811B81EC
:105A9000AA81B981CE0FD11D0FB6F894DEBF0FBE1B
:105AA000CDBFED010895A1E21A2EAA1BBB1BFD017B
:105AB0000DC0AA1FBB1FEE1FFF1FA217B307E407ED
:105AC000F50720F0A21BB30BE40BF50B661F771F45
:105AD000881F991F1A9469F7609570958095909525
